:100000000C9462000C948A000C948A000C948A0070
:100010000C948A000C948A000C948A000C948A0038
:100020000C948A000C94BA040C948A000C948A00F4
:100030000C948A000C948A000C948A000C948A0018
:100040000C9470040C948A000C943E040C941804D4
:100050000C948A000C948A000C948A000C948A00F8
:100060000C948A000C948A000000000024002700F1
:100070002A0000000000250028002B0000000000DE
:1000800023002600290004040404040404040202DA
:100090000202020203030303030301020408102007
:1000A0004080010204081020010204081020000012
:1000B0000008000201000003040700000000000027
:1000C0000000FA0411241FBECFEFD8E0DEBFCDBF81
:1000D00011E0A0E0B1E0E0E2FDE002C005900D9289
:1000E000AA32B107D9F721E0AAE2B1E001C01D921E
:1000F000AD3EB207E1F710E0C2E6D0E004C02197C0
:10010000FE010E948806C136D107C9F70E94440546
:100110000C948E060C940000FC01538D448D252F09
:1001200030E0842F90E0821B930B541710F0CF9691
:10013000089501970895FC01918D828D981761F0C3
:10014000A28DAE0FBF2FB11D5D968C91928D9F5FDA
:100150009F73928F90E008958FEF9FEF0895FC01B9
:10016000918D828D981731F0828DE80FF11D858D6C
:1001700090E008958FEF9FEF0895FC01918D228DFF
:10018000892F90E0805C9F4F821B91098F73992784
:100190000895FC01A48DA80FB92FB11DA35ABF4F1C
:1001A0002C91848D90E001968F739927848FA68976
:1001B000B7892C93A089B1898C91837080648C93CA
:1001C000938D848D981306C00288F389E02D808179
:1001D0008F7D80830895EF92FF920F931F93CF93AB
:1001E000DF93EC0181E0888F9B8D8C8D98131AC072
:1001F000E889F989808185FF15C09FB7F894EE8959
:10020000FF896083E889F9898081837080648083B5
:100210009FBF81E090E0DF91CF911F910F91FF9000
:10022000EF900895F62E0B8D10E00F5F1F4F0F73A8
:100230001127E02E8C8D8E110CC00FB607FCFACF63
:10024000E889F989808185FFF5CFCE010E94C90038
:10025000F1CFEB8DEC0FFD2FF11DE35AFF4FF08234
:100260009FB7F8940B8FEA89FB8980818062CFCF9A
:10027000CF93DF93EC01888D8823B9F0AA89BB89DD
:10028000E889F9898C9185FD03C0808186FD0DC0C8
:100290000FB607FCF7CF8C9185FFF2CF808185FFE9
:1002A000EDCFCE010E94C900E9CFDF91CF91089533
:1002B00088E391E00E94BD0021E0892B09F420E051
:1002C000822F089580E090E0892B29F00E94580148
:1002D00081110C9400000895AF92BF92CF92DF92EB
:1002E000EF92FF920F931F93CF93DF936C017B01EB
:1002F0008B01040F151FEB015E01AE18BF08C0177C
:10030000D10759F06991D601ED91FC910190F081EE
:10031000E02DC6010995892B79F7C501DF91CF91B1
:100320001F910F91FF90EF90DF90CF90BF90AF9013
:100330000895833081F028F4813099F08230A9F05B
:1003400008958730A9F08830C9F08430B1F48091E5
:1003500080008F7D03C0809180008F778093800024
:10036000089584B58F7784BD089584B58F7DFBCFC4
:100370008091B0008F778093B00008958091B00095
:100380008F7DF9CFCF93DF93282F30E0F901E2552D
:10039000FF4F8491F901E656FF4FD491F901EA57D6
:1003A000FF4FC491CC23A1F081110E949901EC2F41
:1003B000F0E0EE0FFF1FE458FF4FA591B491EC91D0
:1003C000ED2381E090E009F480E0DF91CF91089582
:1003D00080E090E0FACF1F93CF93DF93282F30E097
:1003E000F901E255FF4F8491F901E656FF4FD49190
:1003F000F901EA57FF4FC491CC23A9F0162F8111C0
:100400000E949901EC2FF0E0EE0FFF1FEE58FF4F16
:10041000A591B4918FB7F894EC91111108C0D095C3
:10042000DE23DC938FBFDF91CF911F910895DE2BE8
:10043000F8CFCF93DF9390E0FC01E656FF4F249175
:100440008A579F4FFC0184918823D1F090E0880F58
:10045000991FFC01E859FF4FA591B491FC01EE589A
:10046000FF4FC591D49161110EC09FB7F8948C9144
:10047000E22FE0958E238C932881E223E8839FBFAF
:10048000DF91CF9108958FB7F894EC91E22BEC9324
:100490008FBFF6CF3FB7F894809130019091310132
:1004A000A0913201B091330126B5A89B05C02F3F22
:1004B00019F00196A11DB11D3FBFBA2FA92F982F8A
:1004C0008827BC01CD01620F711D811D911D42E085
:1004D000660F771F881F991F4A95D1F708950895D1
:1004E00090E080E008958F929F92AF92BF920F9319
:1004F0001F93CF93DF93CDB7DEB7A1970FB6F894D4
:10050000DEBF0FBECDBF19A2423008F44AE08E0113
:100510000F5D1F4F842E912CB12CA12CA5019401AD
:100520000E946606E62FB901CA01EA3044F5E05D93
:10053000D801EE938D01232B242B252B79F790E006
:1005400080E0109769F0FD0101900020E9F73197F4
:10055000AF014A1B5B0BBD0188E391E00E946C0177
:10056000A1960FB6F894DEBF0FBECDBFDF91CF913D
:100570001F910F91BF90AF909F908F900895E95C6D
:10058000D7CFCF93DF93EC0160E08E810E94EB0127
:1005900061E08E810E94EB0160E08E810E94EB01A0
:1005A0008BE891E00197F1F7DF91CF910895CF9219
:1005B000DF92EF92FF920F931F93CF93DF936C0123
:1005C0007C0187E0E80EF11CD0E0C0E0062F10E0CF
:1005D000B8010C2E02C0759567950A94E2F7617018
:1005E000F70181917F010E94EB012196C430D10572
:1005F00079F7C601DF91CF911F910F91FF90EF9096
:10060000DF90CF900C94C102CF92DF92EF92FF92D5
:100610000F931F93CF93DF93EC01F62E642F8C8101
:100620000E94EB018D818F3F19F060E00E94EB0189
:100630000F2D10E08F8584FF25C06E0187E0C80E66
:10064000D11CF12CE12CB8010E2C02C075956795D8
:100650000A94E2F76170F60181916F010E94EB014B
:10066000FFEFEF1AFF0A88E0E816F10461F7CE0108
:10067000DF91CF911F910F91FF90EF90DF90CF907E
:100680000C94C102B80184E0759567958A95E1F7ED
:10069000CE010E94D7026F2DCE01DF91CF911F9125
:1006A0000F91FF90EF90DF90CF900C94D702CF93F3
:1006B000DF93823029F49091E40198609093E401F3
:1006C0008093E8011092E90180E48093EA0180E1DF
:1006D0008093EB0180E58093EC0161E08091D9018A
:1006E0000E9419028091DA018F3F19F061E00E94A7
:1006F000190261E08091DB010E941902C5EDD1E091
:100700009E01255D31408091E40184FD0BC084E0B1
:1007100090E021962817390744F461E08E810E9409
:100720001902EECF88E090E0F4CF8BE39DE00197D3
:10073000F1F760E08091D9010E94EB0160E08091C7
:10074000DB010E94EB018091DA018F3F19F060E03C
:100750000E94EB016091E40164FD45C063E085ED1A
:1007600091E00E94D702CBE4D6E4CE010197F1F7E5
:1007700063E085ED91E00E94D7022197F1F763E0F5
:1007800085ED91E00E94D70283E592E00197F1F7B1
:1007900062E085ED91E00E94D7026091E401606221
:1007A00040E085ED91E00E94040384E08093E50140
:1007B00040E06CE085ED91E00E94040340E061E0E0
:1007C00085ED91E00E9404038BE39FE10197F1F72F
:1007D00082E08093E60140E066E085ED91E0DF9104
:1007E000CF910C940403606240E085ED91E00E949B
:1007F00004038BE496E40197F1F76091E4016062F1
:1008000040E085ED91E00E94040383E592E00197CA
:10081000F1F76091E401606240E085ED91E00E94B3
:100820000403BBCF41E00E94040381E090E00895FF
:100830001F920F920FB60F9211242F933F934F9355
:100840005F936F937F938F939F93AF93BF93EF9338
:10085000FF9388E391E00E94C900FF91EF91BF915F
:10086000AF919F918F917F916F915F914F913F9148
:100870002F910F900FBE0F901F9018951F920F92FF
:100880000FB60F9211242F938F939F93EF93FF93A3
:10089000E0914801F09149018081E0914E01F09191
:1008A0004F0182FD1BC09081809151018F5F8F733A
:1008B00020915201821741F0E0915101F0E0E85C93
:1008C000FE4F958F80935101FF91EF919F918F91F2
:1008D0002F910F900FBE0F901F9018958081F4CF2D
:1008E0001F920F920FB60F9211242F933F938F9365
:1008F0009F93AF93BF9380912C0190912D01A09174
:100900002E01B0912F0130912B0123E0230F2D37C1
:1009100058F50196A11DB11D20932B0180932C0148
:1009200090932D01A0932E01B0932F01809130015F
:1009300090913101A0913201B09133010196A11D36
:10094000B11D8093300190933101A0933201B09397
:100950003301BF91AF919F918F913F912F910F9054
:100960000FBE0F901F90189526E8230F0296A11D29
:10097000B11DD2CF1F920F920FB60F9211242F9359
:100980003F934F935F936F937F938F939F93AF9317
:10099000BF93EF93FF9384E68093B20080912A0186
:1009A0008F5F80932A018A30A1F489E00E94C201FE
:1009B000892B31F481E090E09093370180933601E8
:1009C00088E00E94C201892B21F410923701109215
:1009D0003601FF91EF91BF91AF919F918F917F91E0
:1009E0006F915F914F913F912F910F900FBE0F909C
:1009F0001F901895E8E3F1E01382128288EE93E0ED
:100A0000A0E0B0E084839583A683B78384E091E07F
:100A10009183808385EC90E09587848784EC90E0D7
:100A20009787868780EC90E0918B808B81EC90E0BB
:100A3000938B828B82EC90E0958B848B86EC90E09C
:100A4000978B868B118E128E138E148EE5EDF1E04E
:100A50001382128286E191E0918380838DE084830A
:100A60008FEF858387E0868386E0878385E08087B4
:100A700084E0818783E08287138614861586168634
:100A8000178681E00C945703789484B5826084BD06
:100A900084B5816084BD85B5826085BD85B5816082
:100AA00085BD80916E00816080936E001092810000
:100AB00080918100826080938100809181008160BB
:100AC000809381008091800081608093800080917C
:100AD000B10084608093B1008091B0008160809308
:100AE000B00080917A00846080937A0080917A00CF
:100AF000826080937A0080917A00816080937A008E
:100B000080917A00806880937A001092C10060E042
:100B100088E00E94190260E089E00E94190260E00A
:100B20008AE00E94190260E08BE00E94190260E0F6
:100B30008CE00E94190261E080E00E94190261E0ED
:100B400081E00E94190261E082E00E94190260E0E7
:100B500080E00E94EB0160E081E00E94EB0160E038
:100B600082E00E94EB0182E00E9457031092B000E5
:100B700087E08093B10084E68093B20081E08093A7
:100B80007000C0E0D0E002E010E04AE050E06EE12A
:100B900071E088E391E00E946C01C0903601D09032
:100BA00037010D2C000CEE08FF084AE0C701B60122
:100BB000F7FE0DC06DE288E391E00E94EB0066272E
:100BC0007727CB016C197D098E099F094AE00E94A5
:100BD000730280913601909137010197B9F4E0904A
:100BE0003401F090350161E080E00E94EB0161E0AA
:100BF00082E00E94EB0160E081E00E94EB012FEFB8
:100C0000E21AF20AF0923501E09234018091340147
:100C100090913501883E9340A1F461E080E00E940C
:100C2000EB0160E082E00E94EB0161E081E00E9464
:100C3000EB011093370100933601109235011092A9
:100C400034018091360190913701892B81F460E065
:100C500080E00E94EB0160E082E00E94EB0160E036
:100C600081E00E94EB0110923501109234010E9444
:100C70004A024B015C0184E6C82ED12CE12CF12CF8
:100C80000E944A02681979098A099B09683E7340E3
:100C900081059105A8F381E0C81AD108E108F1089F
:100CA00028EE820E23E0921EA11CB11CC114D104B7
:100CB000E104F10429F7209709F467CF0E94580155
:100CC000882309F462CF0E9400005FCFA1E21A2EB0
:100CD000AA1BBB1BFD010DC0AA1FBB1FEE1FFF1FE0
:100CE000A217B307E407F50720F0A21BB30BE40B30
:100CF000F50B661F771F881F991F1A9469F7609577
:100D00007095809590959B01AC01BD01CF01089530
:100D1000EE0FFF1F0590F491E02D0994F894FFCF9A
:100D200000000000EB006C018C003801BD009B004E
:100D3000AF000000000012046C0170026F02436FEC
:0A0D40007272656E74653A200000BF
:00000001FF
