:1000000081EF1BF0F76A140FF66E000EF72209005D
:10001000F5501200000000000000005F0000000327
:10002000000300143E143E14242A7F2A124333088E
:10003000666136495522500005030000001C22412C
:10004000000041221C0014083E081408083E08085D
:100050000050300000080808080800606000002018
:10006000100804023E5149453E0004027F004261EF
:1000700051494622414949361814127F10274545F7
:1000800045393E4949493201017109073649494913
:1000900036264949493E00363600000056360000F3
:1000A00008142241001414141414004122140802EC
:1000B000015109063E4159555E7E0909097E7F4975
:1000C0004949363E414141227F4141413E7F4949B4
:1000D00049417F090909013E4141493A7F08080821
:1000E0007F00417F4100304040403F7F0814224163
:1000F0007F404040407F020C027F7F0204087F3E29
:100100004141413E7F090909061E2121215E7F09E7
:1001100009097600F76A240FF66E010EF72209002E
:10012000F5501200264949493201017F01013F4043
:1001300040403F1F2040201F7F2010207F41221C75
:10014000224107087008076151494543007F41007B
:100150000002040810200000417F00040201020494
:100160004040404040000102040020545454787F35
:10017000444444383844444444384444447F385424
:1001800054541804047E0505085454543C7F080454
:10019000047800447D40002040443D007F10284406
:1001A0000000417F40007C047804787C08040478D7
:1001B00038444444387C14141408081414147C0083
:1001C0007C080404485454542004043F44443C40F4
:1001D00040207C1C2040201C3C4030403C442810E7
:1001E00028440C5050503C4464544C440008364160
:1001F0004100007F00004141360800020102040274
:100200004C313A004C323A004C333A00446566694E
:100210006E61206F2074656D706F20646F202020E8
:100220002045737472656C61202F20547269616E71
:1002300067756C6F000054656D706F3A00004D6F0C
:10024000646F206465206C6967616D656E746F0012
:100250005469706F3A0050756C736F004469726531
:10026000746F000050756C736F73204F4E3A00002E
:1002700050756C736F73204F46463A005175616E2E
:100280007469646164653A0043616C6962726163B8
:10029000616F2020202020202020202020646F73E8
:1002A0002053656E736F726573004F666673657475
:1002B0003A005265663A00004C313A004C323A003E
:1002C0004C333A0050285265616C293D000050289B
:1002D0004850293D0000040EEA6EC30EE96EEF504F
:1002E0000EE0050E016E006A002EFED7012EFBD730
:1002F0002E0E006E002EFED700D0EF2EF2D7120089
:100300000401C98193948A9493968A86C9A109D0DD
:1003100093988A88958E83BE01D0C99193988A98C4
:10032000F5D700011200ECDF93948A9493968A9695
:10033000060E006E002EFED700000401C6BF02D0DC
:100340008C9E01D08C8E959EC6BD02D08C9C01D017
:100350008C8C959CC6BB02D08C9A01D08C8A959AC5
:10036000C6B902D08C9801D08C889598060E006E84
:10037000002EFED7000093988A88060E006E002E8D
:10038000FED7000093988A98060E006E002EFED7C6
:100390000000C6B702D08C9E01D08C8E959EC6B54B
:1003A00002D08C9C01D08C8C959CC6B302D08C9AC8
:1003B00001D08C8A959AC6B102D08C9801D08C88D5
:1003C0009598060E006E002EFED7000093988A883E
:1003D000060E006E002EFED7000093988A9800014A
:1003E00012000401E451E603F3CF01F0F4CF00F072
:1003F000E703F3500026E551E603F3500020026EB8
:10040000000112000401C32D03D00368FF0E02D0C7
:10041000036A000EC66F03C0C7F4C46BC4513F0823
:100420002EE3C56BC551070828E3E56BC4C4E4F4AB
:10043000E76B100EE66F0001D4DF02C003F001503D
:10044000010F0401C86F000E0220C96F036AC5C402
:1004500002F0D890023603360250C8270350C92351
:10046000040EC825E96E000EC921EA6EC7C4ECFF70
:10047000ED52C6C4EFFFC52BD5D7C42BCFD7048010
:10048000000112003DDF93948A8493968A96060EAB
:10049000006E002EFED700000401C8BF02D08C9E63
:1004A00001D08C8E959EC8BD02D08C9C01D08C8CC6
:1004B000959CC8BB02D08C9A01D08C8A959AC8B9F9
:1004C00002D08C9801D08C889598060E006E002E74
:1004D000FED7000093988A88060E006E002EFED785
:1004E000000093988A98060E006E002EFED700003A
:1004F000C8B702D08C9E01D08C8E959EC8B502D014
:100500008C9C01D08C8C959CC8B302D08C9A01D065
:100510008C8A959AC8B102D08C9801D08C88959815
:10052000060E006E002EFED7000093988A88060EF5
:10053000006E002EFED7000093988A9800011200EA
:1005400004A083D00401C36BC3513F08D8A07BD063
:10055000C3511F080DE3C3518009C56FC66F000169
:10056000E2DE800E0401C66F0001DDDE0DD0040165
:10057000200EC35D8009C56FC66F0001D4DE880EF2
:100580000401C66F0001CFDE0401C46BC45107082B
:1005900058E3E56BC3C4E4F4E76B100EE66F0001AB
:1005A00020DF02C003F00150010F0401C56F000EEF
:1005B0000220C66F036AC4C402F0D8900236033624
:1005C0000250C5270350C623010EC525016E000E3B
:1005D000C621036E0150040FE96E000E0320EA6E7F
:1005E000EFCFC5F4C5C4C8F400014CDF0401E56BCE
:1005F000C3C4E4F4E76B100EE66F0001F2DE02C044
:1006000003F00150010F0401C56F000E0220C66FF8
:10061000036AC4C402F0D890023603360250C527DC
:100620000350C623040EC525E96E000EC621EA6EEE
:10063000EFCFC7F4C7C4C8F4000124DF0401C42B02
:10064000A5D7C32B81D7049000011200280E040106
:10065000C36F000140DE939A8A9A00D000D0939A2B
:100660008A8A200E0401C66F00015DDEBF0E006E97
:10067000002EFED700D00C0E0401C66F000153DE21
:10068000850E006E002EFED7010E0401C66F00011C
:100690004ADE0A0E0401C36F00011DDE060E0401CE
:1006A000C66F000140DE5F0E006E002EFED700D048
:1006B000240E0401C66F000136DE5F0E006E002EB0
:1006C000FED700D0260E0401C66F00012CDE5F0E9F
:1006D000006E002EFED700D00401C36B000192DE35
:1006E0002FDF1AEF1CF00401C46BC45101081FE393
:1006F000040EC86FC50EC76FC451C725016E000E2A
:10070000C821036E0150E96E03C0EAFFC451C3253E
:10071000C96FF2CFCAF4F29EC9C4A9FFA69CA69ED7
:10072000A680A850CABFF28EEF6EC42BDED7C5C418
:1007300001F0C6C402F0000112008E0E006EC4C4A7
:1007400001F0C3C402F0036A015209E102C001F0E2
:10075000026A080E005E015202E1006A08D0D890D9
:1007600001BE04D0023601360006F9D7019E120000
:100770000401D451D8B471D0006ED851D8B46DD022
:10078000002604E3810E002668E204D07F0E005E9E
:1007900064E363E0D5C4DCF4D951DC1BD58FD98F79
:1007A000D751DB03F4CFDEF4D651DA03F4CF03F0F4
:1007B000F3CFDDF4DB03F350DE27F450DD23000E2E
:1007C0000322D751DA03F350DE27F450DD23000E65
:1007D000026A03220222D551DB03F350DD27F450D5
:1007E0000322000E0222D551DA03F3500326F450FF
:1007F0000222000E016A0122D751D903F350DD27EE
:10080000F4500322000E02220122D651D903F350E4
:100810000326F4500222000E0122D551D903F350D1
:100820000226F4500122002A01BE05D0DD3703362E
:10083000023601360006000EDDAF0AD0032A02227E
:100840000122015005E1025003E1035001E1002AB9
:10085000DCBF018EDCAF019E04D0006A016A026A2F
:10086000036A00011200800ED8A202D00401CC1B42
:100870000401D16BD26BC8C4D0F4CC51D01BC7518A
:10088000D8B4DFD0CF6F006ECB51D8B4E3D0CF5FF8
:10089000D8B483D03EE3CCC4D5F4D58FCDC4D4F442
:1008A000CEC4D3F4D26BD890D533D433D333D23330
:1008B000CF2FF8D7D0AF03D0D181E0D0D191CF9155
:1008C000D189040EEA6ECA0EE96EEBD0D199D0BF81
:1008D0000AD0CFA113D0D533D433D333D233002AA7
:1008E000D8B4C7D00BD0D5BF0CD0D890D237D3371F
:1008F000D437D5370006D8B4BCD0F5D7D18D6DD05C
:10090000D19DC8C4D0F4C8AF02D0D58FABD0D59F8D
:10091000A9D0CBC4CFF4CBC400F0C751CF5FC8C4BB
:10092000D5F4D58FC9C4D4F4CAC4D3F4D26BD8904B
:10093000D533D433D333D233CF2FF8D7D0AF03D07E
:10094000D1839CD0D193CF91D18B040EEA6ECE0E81
:10095000E96EA7D0D19BD0BF0AD0CFA113D0D53399
:10096000D433D333D233002AD8B483D00BD0D5BFFD
:100970000CD0D890D237D337D437D5370006D8B477
:1009800078D0F5D7D18F29D0D19FCCC4D0F4CCAFBB
:1009900002D0D58F67D0D59F65D0CCC4D5F4D58F84
:1009A000CDC4D4F4CEC4D3F4D0AF04D0D59FD18578
:1009B00065D0D195D26BCF91040EEA6ECA0EE96E66
:1009C00070D0D0BF1CD0C8C4D0F4CFA106D0D533CE
:1009D000D433D333D233002A4CE0D2AF0BD0D32B55
:1009E00009E1D42B07E1D52B05E1D533D433D3333B
:1009F000002A3FE0D1BD84D7D1BFC6D71CD0800E1E
:100A0000D51BD5AF04D03AD0CCC4D0F40AD0C8C4DA
:100A1000D0F4D55306E1D45304E1D35302E1006A84
:100A200021D0D5BF08D0D890D237D337D437D537D7
:100A3000002EF7D71ED0D0AF02D0D58F13D0D59FC0
:100A400011D0CBC400F0CCC4D5F4CDC4D4F4CEC402
:100A5000D3F408D0C7C400F0C8C4D5F4C9C4D4F4D2
:100A6000CAC4D3F4D5C401F0D4C402F0D3C403F093
:100A700034D0006A016A026A036A2FD0D26BD31F96
:100A8000D41FD51FD21FD22B05E1D32B03E1D42BCA
:100A900001E1D52BD1B112D7D1B354D7D1B589D774
:100AA000B3D7EF50D32705E3D42B03E1D52BD8B42C
:100AB000CF81ED52EF50D42703E3D52BD8B4CF81AB
:100AC000ED52EF50EFBE01D0800AD527D8B0CF81CC
:100AD000D1B9FCD6D1BB3ED774D7000112000401B6
:100AE000C751D8B4A5D0D36FCB51D8B4A1D0D35F60
:100AF00005E37F0ED327D8B09BD006D0810ED35FFD
:100B0000D8A096D0D8B494D0D3C400F0016A026AB9
:100B1000036AD26BC8C4D1F4D18FC9C4D0F4CAC49B
:100B2000CFF4190ED36FCE51CF5F0DE2010ED05F1F
:100B30000AE2D15F08E2D25F06E2D22BD12BD02BA2
:100B4000CE51CF2728D0CD51D05F12E2010ED15F18
:100B50000FE2D25F0DE2D22BD12BCD51D027CE5157
:100B6000CF2719E3D02B17E1D12B15E1D22B13D0CE
:100B7000CC518009D15F0EE2010ED25F0BE2D22B85
:100B8000CC518009D127CD51D027E9E3D12BE7E122
:100B9000D22BE5D70380D32F01D00BD0D890CF37FD
:100BA000D037D137D237D890033602360136D43712
:100BB000BAD7D4A106D0D890013202320332D4334E
:100BC00002D0000635E0D4BF1ED0D890CF37D03742
:100BD000D137D237CE51CF5F07E2010ED05F04E2AA
:100BE000D15F02E2D25F1AE3CD51D05F05E2010E80
:100BF000D15F02E2D25F12E3CC518009D15F03E200
:100C0000010ED25F0BE3032A09E1022A07E1012A60
:100C100005E1002A0DE0013202320332C8C4D3F4E8
:100C2000CC51D31BD3AF02D0018E06D0019E04D08D
:100C3000006A016A026A036A00011200C4C4CBF4AC
:100C40000401C851CB1BCBAF05D0D894D890C4BFFA
:100C5000D8802FD0C4C4CBF4C7C4CCF4C351CC5F6C
:100C600006E0CBAF26D0D850010AD86E22D0C8C437
:100C7000CCF4C451CC5F06E0CBAF1BD0D850010AF6
:100C8000D86E17D0C9C4CCF4C551CC5F06E0CBAF49
:100C900010D0D850010AD86E0CD0CAC4CCF4C651BA
:100CA000CC5F06E0CBAF05D0D850010AD86E01D09A
:100CB000D89000011200000E016EC250C70B011047
:100CC000C26E1A0E006E002EFED7000004016C6B7F
:100CD0006B6B766B756B746B736B726B716B010EF8
:100CE000796F795108081FE3C284C2B4FED7C3CF1D
:100CF00077F4C4CF78F47851000809E2FF0A03E1E1
:100D00007751F40804E278C476F477C475F4010EE0
:100D1000C36F00016BEC01F0040175516B27765134
:100D20006C23792BDED76C336B336C336B336C33C2
:100D30006B331F0E6C176CC4C4F46BC4C3F4000196
:100D4000FCDC00C0C3F401C0C4F402C0C5F403C09D
:100D5000C6F403C0D7F402C0D6F401C0D5F400C075
:100D6000D4F4E60E0401DB6F3F0EDA6F1C0ED96F70
:100D7000810ED86F0001FCDC03C074F402C073F470
:100D800001C072F400C071F474C456F473C455F415
:100D900072C454F471C453F4D8920401CA6B400E67
:100DA000C96F1C0EC86F8A0EC76F5AC4CEF459C4DF
:100DB000CDF458C4CCF457C4CBF4000154DDD88230
:100DC00074C4CAF473C4C9F472C4C8F471C4C7F457
:100DD00003C0CEF402C0CDF401C0CCF400C0CBF40B
:100DE00042DD00C0C3F401C0C4F402C0C5F403C0B6
:100DF000C6F403C0D7F402C0D6F401C0D5F400C0D5
:100E0000D4F40401DB6BDA6B480ED96F850ED86F12
:100E10000001AEDC00C0C3F401C0C4F402C0C5F4DC
:100E200003C0C6F403C0CAF402C0C9F401C0C8F4C8
:100E300000C0C7F40401CE6B400ECD6F4E0ECC6FD8
:100E4000890ECB6F00014BDE03C027F402C026F4ED
:100E500001C025F400C024F40401282BD89223C437
:100E6000CAF422C4C9F421C4C8F420C4C7F427C4F6
:100E7000CEF426C4CDF425C4CCF424C4CBF40001B4
:100E8000F2DC03C023F402C022F401C021F400C04C
:100E900020F404012851130826E223C4CAF422C412
:100EA000C9F421C4C8F420C4C7F4CE6BCD6B200EA6
:100EB000CC6F830ECB6F000112DE03C023F402C09F
:100EC00022F401C021F400C020F423C417F422C48A
:100ED00016F421C415F420C414F40401286B236B08
:100EE000226B216B206B17C4C6F416C4C5F415C45D
:100EF000C4F414C4C3F4CA6BC96BC86BC76B0001DC
:100F00009DDE06E30401176B166B156B146B000175
:100F1000080E016EC250C70B0110C26E1A0E006E91
:100F2000002EFED7000004016E6B6D6B766B756B47
:100F3000746B736B726B716B010E796F795108086A
:100F40001FE3C284C2B4FED7C3CF77F4C4CF78F412
:100F50007851000809E2FF0A03E17751F40804E23E
:100F600078C476F477C475F4010EC36F00016BEC9E
:100F700001F0040175516D2776516E23792BDED770
:100F80006E336D336E336D336E336D331F0E6E17EC
:100F90006EC4C4F46DC4C3F400019DEC03F000C042
:100FA000C3F401C0C4F402C0C5F403C0C6F403C056
:100FB000D7F402C0D6F401C0D5F400C0D4F4E60ED4
:100FC0000401DB6F3F0EDA6F1C0ED96F810ED86FF4
:100FD0000001B8EC03F003C074F402C073F401C064
:100FE00072F400C071F474C45EF473C45DF472C42E
:100FF0005CF471C45BF4D8920401CA6B400EC96FF3
:101000001C0EC86F8A0EC76F62C4CEF461C4CDF4E3
:1010100060C4CCF45FC4CBF4000125DCD88274C476
:10102000CAF473C4C9F472C4C8F471C4C7F403C069
:10103000CEF402C0CDF401C0CCF400C0CBF413DC7C
:1010400000C0C3F401C0C4F402C0C5F403C0C6F4B8
:1010500003C0D7F402C0D6F401C0D5F400C0D4F464
:101060000401DB6BDA6B480ED96F850ED86F000177
:10107000B8EC03F000C0C3F401C0C4F402C0C5F46E
:1010800003C0C6F403C0CAF402C0C9F401C0C8F466
:1010900000C0C7F40401CE6B400ECD6F4E0ECC6F76
:1010A000890ECB6F00011BDD03C03CF402C03BF492
:1010B00001C03AF400C039F404013D2BD89238C481
:1010C000CAF437C4C9F436C4C8F435C4C7F43CC440
:1010D000CEF43BC4CDF43AC4CCF439C4CBF4000113
:1010E00033EC04F003C038F402C037F401C036F426
:1010F00000C035F404013D51130826E238C4CAF497
:1011000037C4C9F436C4C8F435C4C7F4CE6BCD6B4C
:10111000200ECC6F830ECB6F0001E1DC03C038F4EE
:1011200002C037F401C036F400C035F438C42CF4E2
:1011300037C42BF436C42AF435C429F404013D6BBA
:10114000386B376B366B356B2CC4C6F42BC4C5F4C7
:101150002AC4C4F429C4C3F4CA6BC96BC86BC76B77
:1011600000016CDD06E304012C6B2B6B2A6B296BF1
:101170000001100E016EC250C70B0110C26E1A0E94
:10118000006E002EFED700000401706B6F6B766B53
:10119000756B746B736B726B716B010E796F795138
:1011A00008081FE3C284C2B4FED7C3CF77F4C4CF0C
:1011B00078F47851000809E2FF0A03E17751F40856
:1011C00004E278C476F477C475F4010EC36F0001AD
:1011D0006BEC01F0040175516F2776517023792B68
:1011E000DED770336F3370336F3370336F331F0E4E
:1011F000701770C4C4F46FC4C3F400019DEC03F015
:1012000000C0C3F401C0C4F402C0C5F403C0C6F4F6
:1012100003C0D7F402C0D6F401C0D5F400C0D4F4A2
:10122000E60E0401DB6F3F0EDA6F1C0ED96F810EE4
:10123000D86F0001B8EC03F003C074F402C073F47B
:1012400001C072F400C071F474C466F473C465F430
:1012500072C464F471C463F4D8920401CA6B400E82
:10126000C96F1C0EC86F8A0EC76F6AC4CEF469C4FA
:10127000CDF468C4CCF467C4CBF4000133EC04F0C3
:10128000D88274C4CAF473C4C9F472C4C8F471C4F3
:10129000C7F403C0CEF402C0CDF401C0CCF400C04A
:1012A000CBF433EC04F000C0C3F401C0C4F402C0BA
:1012B000C5F403C0C6F403C0D7F402C0D6F401C01D
:1012C000D5F400C0D4F40401DB6BDA6B480ED96F9F
:1012D000850ED86F0001B8EC03F000C0C3F401C064
:1012E000C4F402C0C5F403C0C6F403C0CAF402C00B
:1012F000C9F401C0C8F400C0C7F40401CE6B400EAD
:10130000CD6F4E0ECC6F890ECB6F00016FEC05F0E8
:1013100003C051F402C050F401C04FF400C04EF4B9
:101320000401522BD8924DC4CAF44CC4C9F44BC426
:10133000C8F44AC4C7F451C4CEF450C4CDF44FC469
:10134000CCF44EC4CBF4000133EC04F003C04DF4F4
:1013500002C04CF401C04BF400C04AF404015251E5
:10136000130827E24DC4CAF44CC4C9F44BC4C8F4F2
:101370004AC4C7F4CE6BCD6B200ECC6F830ECB6FFF
:1013800000016FEC05F003C04DF402C04CF401C045
:101390004BF400C04AF44DC441F44CC440F44BC477
:1013A0003FF44AC43EF40401526B4D6B4C6B4B6BE3
:1013B0004A6B41C4C6F440C4C5F43FC4C4F43EC43F
:1013C000C3F4CA6BC96BC86BC76B000137DC05E39C
:1013D0000401416B406B3F6B3E6B0001E1EF1CF081
:1013E0008E0E006E0401C351005EC4C402F0C5C479
:1013F00001F0028E005209E0D890025202E101523F
:1014000004E002320132002EF7D7C4AF05D0011E2E
:10141000021E012AD8B4022A000112000401D4518C
:10142000B608D46F036AD5C4D8F4D58FD890D53315
:10143000D633D7330332023201320032D42FF6D7FB
:10144000D8AF0BD0001E011E021E031E002AD8B406
:10145000012AD8B4022AD8B4032A0001B6EF0AF050
:10146000D8B204D0040EEA6EDC0EE96E006A016A9E
:10147000026A036A0401DC6BDD6BDE6BDF6BDB5140
:10148000DA11D911D8112CE0200EE06FD890D437A2
:10149000D537D637D737DC37DD37DE37DF37DB51A7
:1014A000DF5D08E1DA51DE5D05E1D951DD5D02E184
:1014B000D851DC5D0FE3D851DC5FD951D8A0D93DBC
:1014C000DD5FDA51D8A0DA3DDE5FDB51D8A0DB3D2D
:1014D000DF5FD8800036013602360336E02FD6D7DC
:1014E000DCC4EFFFDDC4ECFFDEC4ECFFDFC4ECFFC7
:1014F00000011200C2C4EAFFC1C4E9FF0401D4C460
:10150000EFFFE92AD8B4EA2AEF6AC12BD8B4C22B7C
:1015100000011200E9500401CC6FCB51CE6F1CE0EA
:10152000CAC4D7F4C9C4D6F4C8C4D5F4C7C4D4F463
:10153000DB6BDA6B200ED96F820ED86F0001B8EC2E
:1015400003F003C0CAF402C0C9F401C0C8F400C06B
:10155000C7F40401CE2FE4D7CAC4D7F4C9C4D6F463
:10156000C8C4D5F4C7C4D4F4000158D703C0CAF422
:1015700002C0C9F401C0C8F400C0C7F40401CAAF76
:101580000DD0CC07CC8BC71FC81FC91FCA1FC72BC4
:10159000D8B4C82BD8B4C92BD8B4CA2B3B0ED36F40
:1015A0009A0ED26FCA0ED16FD06B0A0ECE6FCB518E
:1015B000D8B4CC2BD882040EEA6EC70EE96ECAC42A
:1015C000D7F4C9C4D6F4C8C4D5F4C7C4D4F4D3C4BA
:1015D000DBF4D2C4DAF4D1C4D9F4D0C4D8F4000115
:1015E0003FDF0150005213E10401CB29CE5DD8A4A6
:1015F00002D000010CD0CC510DE00F0BCE5D01E00C
:1016000040E2CCBF3ED0CCBD05D0200E34D0200E61
:101610000401CC17CCAB0ED0CC9BCB51D8A4CC07BB
:101620000050CC6F2D0ED46F000164DF0401CC514B
:10163000006ECC6BCB51CE5D0CE10050CC6F2E0E0A
:10164000D46F000157DF0401CC51006E200ECC177F
:10165000000E300ECCAB0FD0CC9BCB51D8A4CC0716
:101660000050CC6F2D0ED46F000144DF0401CC512B
:10167000006ECC6B300E002600C0D4F400013ADFBF
:101680000401D892D3C4D7F4D2C4D6F4D1C4D5F4CB
:10169000D0C4D4F4DB6BDA6BD96B0A0ED86F0001BF
:1016A000DFDE03C0D3F402C0D2F401C0D1F400C025
:1016B000D0F40401CE2F7ED700011200DFC4E1F484
:1016C0000401DE39E26F0F0EE217DE510F0BFF0A45
:1016D000100FE36FE02D36D0E56BE1C4E4F4E76B67
:1016E000100EE66F0001F1EC01F002C003F00150B2
:1016F000010F0401E46F000E0220E56F036AE2C4EB
:1017000002F0D890023603360250E4270350E52356
:10171000040EE425016E000EE521036E01C0E9FF11
:10172000EA6E036A010E026EE351006E05E0D89086
:1017300002360336002EFBD70250EF120350EC1096
:10174000EF6E3AD0E56BE1C4E4F4E76B100EE66FA0
:101750000001F1EC01F002C003F00150010F04019F
:10176000E46F000E0220E56F036AE2C402F0D89035
:10177000023603360250E4270350E523040EE42525
:10178000016E000EE521036E01C0E9FFEA6E036AF7
:10179000010E026EE351006E05E0D890023603366A
:1017A000002EFBD70250FF0A006EFF0E031A0050F6
:1017B000EF160350EC14EF6E048000011200C6C453
:1017C00003F00401C5C4E9FFC6C4EAFFEF52D8B470
:1017D000C8D0C6C403F0C5C4E9FFC6C4EAFFEF50D1
:1017E000520822E3C6C403F0C5C4E9FFC6C4EAFF39
:1017F000200EEF5C050DF350036AD26F040EEA6E03
:10180000CD0EE96ED66BD2C4D5F4050E016EF76A23
:10181000D251000102EC00F00A000900F5CFEEFF02
:10182000012EFBD732D00401C6C403F0C5C4E9FFC2
:10183000C6C4EAFFEF507E0822E3C6C403F0C5C465
:10184000E9FFC6C4EAFF530EEF5C050DF350036ACF
:10185000D26F040EEA6ECD0EE96ED66BD2C4D5F40B
:10186000050E016EF76AD25100018AEC00F00A0001
:101870000900F5CFEEFF012EFBD707D00401CD6B99
:10188000CE6BCF6BD06BD16B0001C6C403F00401EB
:10189000C551E96E03C0EAFFEF500A0A000103E0F8
:1018A000070A09E00BD00401C751070DF350010FDF
:1018B000C42750D000010401C36B4CD00401C751B0
:1018C000050DF350C3257F0806E2C36BC751070D12
:1018D000F350010FC427C96BC95104083BE3CA6B1D
:1018E000CA51060833E3036AC951CD0FE96E040EED
:1018F0000320EA6EEFCFD2F4D2C400F0CA51016ED9
:1019000004E0D8900032012EFCD700A01DD0CB6B94
:10191000C751CB5D19E2CC6BC751CC5D13E2CC5102
:10192000C325D26FCA51C703F350C425CB25D36F4B
:10193000D2C4DEF4DF6FC8C4E0F40001BFDE0401EE
:10194000CC2BEAD7CB2BE4D7CA2BCAD7C92BC7518C
:10195000C327C2D7C52BD8B4C62BC32B00012FD7A2
:101960000401000112000900F5520CE0F6CFC3F4A7
:10197000F7CFC4F4F5CFD4F4BDDDC3C4F6FFC4C4BF
:10198000F7FFF1D71200016A026A006A036A0401D4
:10199000C65102E1C55118E0100EC76FD890C33789
:1019A000C43700360336C651035C02E1C551005C02
:1019B00007E3C551005ED8A00306C651035ED88078
:1019C00001360236C72FEAD7000194EF0EF004016A
:1019D000CA51016AC95D03E2C9C400F00CD0006AB3
:1019E000080ECB6FC9370036CA51005CD8B0006E04
:1019F0000136CB2FF7D700011200200E0401C4A935
:101A0000300EC56FC3C400F0C3AF08D0001E002A5B
:101A100000C0C3F42D0EC56FC48FC4810150C3C470
:101A2000C9F4640ECA6F0001D2DF00C0C3F4300EE7
:101A300001240401C66FC3C4C9F40A0ECA6F0001B1
:101A4000C6DF300E00240401C86F300E0124C76FBA
:101A5000C5C400F0300EC65D04E0C483C4BFC485B5
:101A600012D0C5C4C6F4200EC56F300EC75D04E0A9
:101A7000C481C4BFC48307D0D8A4C48104E1C6C450
:101A8000C7F4200EC66FC4B505D0C4B307D0C4B127
:101A900009D00CD0C5C4D4F400012CDDC6C4D4F4E4
:101AA000000128DDC7C4D4F4000124DDC8C4D4F487
:101AB000000120DD120004017A53D8A48AD17B539F
:101AC000D8A487D1D89217C4CAF416C4C9F415C4CF
:101AD000C8F414C4C7F42CC4CEF42BC4CDF42AC467
:101AE000CCF429C4CBF4000133EC04F000C0C3F4FF
:101AF00001C0C4F402C0C5F403C0C6F4D89203C048
:101B0000CAF402C0C9F401C0C8F400C0C7F441C49B
:101B1000CEF440C4CDF43FC4CCF43EC4CBF433EC9B
:101B200004F003C08BF402C08AF401C089F400C041
:101B300088F48BC4CAF48AC4C9F489C4C8F488C4BC
:101B4000C7F40401CE6BCD6B400ECC6F800ECB6F13
:101B500000016FEC05F003C08BF402C08AF401C0F1
:101B600089F400C088F487C4C4F486C4C3F49DEC2F
:101B700003F003C0D7F402C0D6F401C0D5F400C00E
:101B8000D4F48BC4DBF48AC4DAF489C4D9F488C4ED
:101B9000D8F4B8EC03F000C0C3F401C0C4F402C030
:101BA000C5F403C0C6F403C0D7F402C0D6F401C024
:101BB000D5F400C0D4F42D0E0401DB6FB20EDA6F41
:101BC0005D0ED96F7F0ED86F0001B8EC03F000C036
:101BD000C3F401C0C4F402C0C5F403C0C6F403C01A
:101BE000D7F402C0D6F401C0D5F400C0D4F49A0EE4
:101BF0000401DB6F990EDA6F590ED96F7E0ED86F24
:101C00000001B8EC03F003C0C6F402C0C5F401C083
:101C1000C4F400C0C3F4F0EC09F002C084F401C0C5
:101C200083F484C4C4F483C4C3F49DEC03F000C003
:101C3000C3F401C0C4F402C0C5F403C0C6F4040E6A
:101C40000401C26F8F0EC16F890EE96E03C0CAF422
:101C500002C0C9F401C0C8F400C0C7F4010ECB6FC4
:101C6000000158DC04018451260808E2FF0A03E160
:101C70008351100803E2976B570E966F8451270823
:101C800007E303E183510F0803E3966B570E956F4B
:101C90008451030807E303E18351E70803E3956BED
:101CA000570E946F845306E18351630803E3946BEA
:101CB000570E936F845306E18351090803E3936B36
:101CC000570E926F3C0EC36F280EC46F040EC66F82
:101CD0008F0EC56F010EC76FC86F000170DD040E57
:101CE0000401C26F8F0EC16FC40EF66E020EF76E46
:101CF000000139DE0401976B010EC36F280EC46F1B
:101D0000040EC66F8F0EC56F010EC76FC86F00013E
:101D100056DD84C4C4F483C4C3F4020E0401C66F48
:101D2000E00EC56F00012FD602C0C4F4040101C04B
:101D3000C3F4E56B030EE46F02C0E7F401C0E6F400
:101D40000001F1EC01F001C085F4040E0401C26F42
:101D50008F0EC16F85C4C3F4110EC46F00014DDE38
:101D600004018551630805E3946B500E936F480E90
:101D7000926F8551090805E3936B500E926F480EE0
:101D8000916F350EC36F320EC46F040EC66F8F0E87
:101D9000C56F010EC76FC86F000111DD040E04018D
:101DA000C26F8F0EC16FCE0EF66E020EF76E00017F
:101DB000DADD0401976B010EC36F320EC46F040E9F
:101DC000C66F8F0EC56F010EC76FC86F0001F7DCBD
:101DD00004010001E3EF1CF00401C36B000102ECFD
:101DE00002F0968084B014D004017A53D8A402D0B3
:101DF00000010ED07A510508D8B002D0000108D0F9
:101E00007C53D8B402D0000103D07A2B7C2B000184
:101E1000968084B014D004017B510408D8B002D05D
:101E200000010DD07C53D8B402D0000108D07A5301
:101E3000D8B402D0000103D07B2B7C2B000196800C
:101E400084B00CD004017B2D01D002D0000106D05B
:101E50007A53D8B402D0000101D07C2B04017C510C
:101E6000140802E2010E7A6F968084A001D07C6B88
:101E7000948682B607D07A5305E07D5303E17A0752
:101E80007D2B076B948682B607D07B5305E07D538C
:101E900003E17B077D2B076B948682A601D07D6BC7
:101EA0000001E7EF1CF0EACFCBF4E9CFCAF404015C
:101EB000C4AF08D0CA8FCAA9CA2BC31FC41FC32B63
:101EC000D8B4C42BC439F009C66FC627E20FC76F58
:101ED000320FC96FC4510F0BC727C727C927E90F96
:101EE000C86FC827C827C3390F0BC827C927C837E9
:101EF000C937C91FC937C3510F0BC927C637070ECA
:101F0000C56F0A0EC807C927FDE3C707C827FDE349
:101F1000C607C727FDE3C507C627FDE3040EEA6E23
:101F2000C50EE96E070ECA15CA9DE906CA1507E176
:101F3000CAB9E92ACAB903D0200E006E1CD0E9261E
:101F4000C90EE95CD8B4CA8DEF50006E08E1CABD75
:101F500006D0CAB91ED0CAB702D0200E0BD0CAAF65
:101F600006D02D0E006EED50CA9DCA9F04D0CA87C0
:101F7000CA99300E0026EACFC4F4E9CFC3F400C0FA
:101F8000D4F400017AEC0AF0C4C4EAFFC3C4E9FF48
:101F90000401EE50CAADD4D700011200010E0401B5
:101FA000D76FD86FDD6BCE51D05DDE6FDE51DEAF07
:101FB00003D0000ED880DE55036AD56F03C0D6F477
:101FC000CF51D15DDE6FDE51DEAF03D0000ED88081
:101FD000DE55036AD36F03C0D4F4CE51D05D01E265
:101FE000D769CF51D15D01E2D869D451D65D3CE3C8
:101FF00003E1D351D55D38E3D890D337D437D551E9
:10200000D35D006ED651D45900C0D9F4DA6FD551E2
:10201000D95DDB6FD651DA59DC6FD65303E1DD5160
:10202000D55D21E3CEC4DEF4CFC4DFF4D2C4E0F446
:1020300000015EEC0BF00401DABF01D008D0D351EF
:10204000D927D451DA23D751CE25CE6F0AD0DB5110
:10205000D927DC51DA23D751CE25CE6FD851CF25E1
:10206000CF6FDD2BDAD737D0D890D537D637D351CD
:10207000D55D006ED451D65900C0D9F4DA6FD35172
:10208000D95DDB6FD451DA59DC6FD45303E1DD51F4
:10209000D35D21E3CEC4DEF4CFC4DFF4D2C4E0F4D8
:1020A00000015EEC0BF00401DABF01D008D0D5517D
:1020B000D927D651DA23D851CF25CF6F0AD0DB519B
:1020C000D927DC51DA23D751CE25CE6FD851CF2571
:1020D000CF6FDD2BDAD7000112000401C7532FE0C8
:1020E000C551C35D05E2C3C4CAF4C5C4CBF404D072
:1020F000C5C4CAF4C3C4CBF4C651C45D05E2C4C4AC
:10210000CCF4C6C4CDF404D0C6C4CCF4C4C4CDF45D
:10211000CA51CB5D13E3CCC4C9F4C951CD5D0CE306
:10212000CAC4DEF4C9C4DFF4C8C4E0F400015EEC44
:102130000BF00401C92BF1D7CA2BEAD72ED0C3C4A8
:10214000CEF4C4C4CFF4C5C4D0F4C4C4D1F4C8C45C
:10215000D2F4000123DFC3C4CEF4C6C4CFF4C5C497
:10216000D0F4C6C4D1F4C8C4D2F418DFC3C4CEF4CA
:10217000C4C4CFF4C3C4D0F4C6C4D1F4C8C4D2F428
:102180000DDFC5C4CEF4C4C4CFF4C5C4D0F4C6C4F6
:10219000D1F4C8C4D2F402DF04010001120004012A
:1021A0007A53D8A496D17B53D8A493D1C36B0001A2
:1021B00002EC02F0040E0401C26F8F0EC16F890E93
:1021C000E96E17C4CAF416C4C9F415C4C8F414C41B
:1021D000C7F4010ECB6F00018AEC0AF00401C66B54
:1021E000C56B480EC46F850EC36F17C4CAF416C4FE
:1021F000C9F415C4C8F414C4C7F400011EEC06F0F9
:1022000001E204E10401956B410E946F17C4C6F41A
:1022100016C4C5F415C4C4F414C4C3F40401CA6BD1
:10222000C96B480EC86F850EC76F00011EEC06F023
:1022300004E30401946B410E936F17C4C6F416C4F3
:10224000C5F415C4C4F414C4C3F40401CA6BC96B47
:10225000200EC86F820EC76F00011EEC06F004E36B
:102260000401936B410E926F120E0401C36F010EB5
:10227000C46F040EC66F8F0EC56F010EC76FC86F97
:102280000001DFEC0BF0040E0401C26F8F0EC16F72
:10229000000EF66E020EF76E0001B3EC0CF00401B6
:1022A000926B010EC36FC46F040EC66F8F0EC56FA5
:1022B000010EC76FC86F0001DFEC0BF0040E0401C4
:1022C000C26F8F0EC16F890EE96E2CC4CAF42BC485
:1022D000C9F42AC4C8F429C4C7F4010ECB6F0001A5
:1022E0008AEC0AF00401C66BC56B480EC46F850EFC
:1022F000C36F2CC4CAF42BC4C9F42AC4C8F429C4BB
:10230000C7F400011EEC06F001E204E10401956B44
:10231000410E946F2CC4C6F42BC4C5F42AC4C4F473
:1023200029C4C3F40401CA6BC96B480EC86F850E7B
:10233000C76F00011EEC06F004E30401946B410E2C
:10234000936F2CC4C6F42BC4C5F42AC4C4F429C4A6
:10235000C3F40401CA6BC96B200EC86F820EC76F2D
:1023600000011EEC06F004E30401936B410E926F32
:10237000120E0401C36F0A0EC46F040EC66F8F0ED7
:10238000C56F010EC76FC86F0001DFEC0BF0040EC4
:102390000401C26F8F0EC16F040EF66E020EF76E4F
:1023A0000001B3EC0CF00401926B010EC36F0A0E36
:1023B000C46F040EC66F8F0EC56F010EC76FC86F56
:1023C0000001DFEC0BF0040E0401C26F8F0EC16F31
:1023D000890EE96E41C4CAF440C4C9F43FC4C8F4CC
:1023E0003EC4C7F4010ECB6F00018AEC0AF0040171
:1023F000C66BC56B480EC46F850EC36F41C4CAF46B
:1024000040C4C9F43FC4C8F43EC4C7F400011EEC84
:1024100006F001E204E10401956B410E946F41C4A2
:10242000C6F440C4C5F43FC4C4F43EC4C3F40401BC
:10243000CA6BC96B480EC86F850EC76F00011EECD2
:1024400006F004E30401946B410E936F41C4C6F49B
:1024500040C4C5F43FC4C4F43EC4C3F40401CA6B11
:10246000C96B200EC86F820EC76F00011EEC06F00C
:1024700004E30401936B410E926F120E0401C36FCB
:10248000130EC46F040EC66F8F0EC56F010EC76F9B
:10249000C86F0001DFEC0BF0040E0401C26F8F0E59
:1024A000C16F080EF66E020EF76E0001B3EC0CF071
:1024B0000401926B010EC36F130EC46F040EC66F3E
:1024C0008F0EC56F010EC76FC86F0001DFEC0BF0F8
:1024D00004017B2DA1D07A53D8A49ED0C36B0001F8
:1024E00002EC02F0040E0401C26F8F0EC16F0C0EDD
:1024F000F66E020EF76E0001B3EC0CF00401B76B40
:10250000010EC36FC46F040EC66F8F0EC56F010E30
:10251000C76FC86F0001DFEC0BF0040E0401C26F3F
:102520008F0EC16F360EF66E020EF76E0001B3EC21
:102530000CF00401956B010EC36F190EC46F040EED
:10254000C66F8F0EC56F010EC76FC86F0001DFEC3D
:102550000BF0040E0401C26F8F0EC16F890EE96E7D
:1025600082C4CAF481C4C9F480C4C8F47FC4C7F467
:10257000010ECB6F00018AEC0AF00401936B730E1D
:10258000926F320EC36F190EC46F040EC66F8F0E9A
:10259000C56F010EC76FC86F0001DFEC0BF09682AC
:1025A00084B209D004017E512C08D8B002D00001B9
:1025B00002D07E2B0001948482B408D004017E51A5
:1025C0000508D8A002D0000101D07E070401C46B29
:1025D0007EC4C3F400019DEC03F003C0CAF402C042
:1025E000C9F401C0C8F400C0C7F4AE0E0401CE6F38
:1025F000470ECD6F110ECC6F810ECB6F00016FECCB
:1026000005F003C082F402C081F401C080F400C070
:102610007FF4A0EC02F00401075303E17B510208B0
:102620000AE07B51030807E07B51040804E07B517A
:102630000508D8A4A9D1C36B000102EC02F0040E76
:102640000401C26F8F0EC16F3E0EF66E020EF76E62
:102650000001B3EC0CF00401B76B010EC36FC46F43
:10266000040EC66F8F0EC56F010EC76FC86F0001D5
:10267000DFEC0BF0040E0401C26F8F0EC16F500E21
:10268000F66E020EF76E0001B3EC0CF00401946BD1
:10269000010EC36F0F0EC46F040EC66F8F0EC56F91
:1026A000010EC76FC86F0001DFEC0BF00401092DAC
:1026B0001CD0040EC26F8F0EC16F560EF66E020E46
:1026C000F76E0001B3EC0CF00401966B460EC36F7D
:1026D0000F0EC46F040EC66F8F0EC56F010EC76F4D
:1026E000C86F0001DFEC0BF0040109531CE1040E7C
:1026F000C26F8F0EC16F5C0EF66E020EF76E000198
:10270000B3EC0CF00401966B460EC36F0F0EC46F52
:10271000040EC66F8F0EC56F010EC76FC86F000124
:10272000DFEC0BF00401040EC26F8F0EC16F640E5C
:10273000F66E020EF76E0001B3EC0CF0010E040110
:10274000C36F230EC46F040EC66F8F0EC56F010ECC
:10275000C76FC86F0001DFEC0BF0040E0401C26FFD
:102760008F0EC16F100EE96E0FC4C4F40EC4C3F413
:10277000000153EC0FF0460E0401C36F230EC46F2B
:10278000040EC66F8F0EC56F010EC76FC86F0001B4
:10279000DFEC0BF0040E0401C26F8F0EC16F700EE0
:1027A000F66E020EF76E0001B3EC0CF0010E0401A0
:1027B000C36F2D0EC46F040EC66F8F0EC56F010E52
:1027C000C76FC86F0001DFEC0BF0040E0401C26F8D
:1027D0008F0EC16F100EE96E11C4C4F410C4C3F49F
:1027E000000153EC0FF0460E0401C36F2D0EC46FB1
:1027F000040EC66F8F0EC56F010EC76FC86F000144
:10280000DFEC0BF0040E0401C26F8F0EC16F7C0E63
:10281000F66E020EF76E0001B3EC0CF0010E04012F
:10282000C36F370EC46F040EC66F8F0EC56F010ED7
:10283000C76FC86F0001DFEC0BF0040E0401C26F1C
:102840008F0EC16F13C4C3F4180EC46F0001FDECEA
:102850000CF0460E0401C36F370EC46F040EC66F32
:102860008F0EC56F010EC76FC86F0001DFEC0BF054
:10287000A0EC02F004017B51020821E1C36B0E0EB3
:10288000C46F780EC56F160EC66F010EC76FC86F86
:10289000000123DC968284B208D004010953D8B425
:1028A00002D0000102D0092B0001948482B408D028
:1028B00004010953D8A402D0000102D00907000185
:1028C00004017B5103081DE1C36B220EC46F780E17
:1028D000C56F2A0EC66F010EC76FC86F00016DEC81
:1028E00010F0968284B205D004010E2BD8B40F2BC1
:1028F0000001948482B406D004010E51D8B40F07AD
:102900000E07000104017B5104081DE1C36B2C0E6E
:10291000C46F780EC56F340EC66F010EC76FC86FD7
:1029200000016DEC10F0968284B205D00401102BEA
:10293000D8B4112B0001948482B406D00401105144
:10294000D8B411071007000104017B51050818E1F4
:10295000C36B360EC46F780EC56F3E0EC66F010E88
:10296000C76FC86F00016DEC10F0968284B203D07F
:102970000401132B0001948482B403D004011307D3
:102980000001A0EC02F004017A2D01D014D07A519C
:10299000020811E07A5103080EE07A5104080BE0B6
:1029A0007A51050808E07A51060805E07A510708CF
:1029B000D8A466EF19F0C36B000102EC02F0040E1C
:1029C0000401C26F8F0EC16F880EF66E020EF76E95
:1029D0000001B3EC0CF00401B76B010EC36FC46FC0
:1029E000040EC66F8F0EC56F010EC76FC86F000152
:1029F000DFEC0BF0040E0401C26F8F0EC16FAA0E44
:102A0000F66E020EF76E0001B3EC0CF0010E04013D
:102A1000C36F190EC46F040EC66F8F0EC56F010E03
:102A2000C76FC86F0001DFEC0BF0040E0401C26F2A
:102A30008F0EC16FB20EF66E020EF76E0001B3EC90
:102A40000CF0010E0401C36F230EC46F040EC66F99
:102A50008F0EC56F010EC76FC86F0001DFEC0BF062
:102A6000040E0401C26F8F0EC16F890EE96E1FC480
:102A7000CAF41EC4C9F41DC4C8F41CC4C7F4020EB1
:102A8000CB6F00018AEC0AF0320E0401C36F230EF3
:102A9000C46F040EC66F8F0EC56F010EC76FC86F6F
:102AA0000001DFEC0BF0A0EC02F004017A2D98D0CD
:102AB000040EC26F8F0EC16F890EE96E1BC4CAF47B
:102AC0001AC4C9F419C4C8F418C4C7F4020ECB6FF1
:102AD00000018AEC0AF0320E0401C36F190EC46FB4
:102AE000040EC66F8F0EC56F010EC76FC86F000151
:102AF000DFEC0BF00401C36B180EC46F500EC56FF2
:102B0000200EC66F010EC76FC86F00016DEC10F08C
:102B1000968284B230D01BC4C6F41AC4C5F419C45A
:102B2000C4F418C4C3F40401CA6BC96B200EC86F87
:102B3000820EC76F00011EEC06F01DE3D8921BC485
:102B4000CAF41AC4C9F419C4C8F418C4C7F4CD0E21
:102B50000401CE6FCC0ECD6F4C0ECC6F7B0ECB6FC5
:102B6000000133EC04F003C01BF402C01AF401C0EE
:102B700019F400C018F4948482B42FD00401C66BF9
:102B8000C56BC46BC36B1BC4CAF41AC4C9F419C4A3
:102B9000C8F418C4C7F400011EEC06F001E21DE100
:102BA000D8821BC4CAF41AC4C9F419C4C8F418C41E
:102BB000C7F4CD0E0401CE6FCC0ECD6F4C0ECC6F92
:102BC0007B0ECB6F000133EC04F003C01BF402C09A
:102BD0001AF401C019F400C018F4A0EC02F00401CA
:102BE0007A51020876E1C36B220EC46F500EC56F96
:102BF0002A0EC66F010EC76FC86F00016DEC10F092
:102C0000968284B230D01FC4C6F41EC4C5F41DC45D
:102C1000C4F41CC4C3F40401CA6BC96B700EC86F42
:102C2000830EC76F00011EEC06F01DE3D8921FC48F
:102C3000CAF41EC4C9F41DC4C8F41CC4C7F4CD0E24
:102C40000401CE6FCC0ECD6F4C0ECC6F7B0ECB6FD4
:102C5000000133EC04F003C01FF402C01EF401C0F5
:102C60001DF400C01CF4948482B430D00401C66BFF
:102C7000C56B200EC46F810EC36F1FC4CAF41EC47F
:102C8000C9F41DC4C8F41CC4C7F400011EEC06F04E
:102C90001DE3D8821FC4CAF41EC4C9F41DC4C8F4FD
:102CA0001CC4C7F4CD0E0401CE6FCC0ECD6F4C0EFC
:102CB000CC6F7B0ECB6F000133EC04F003C01FF42C
:102CC00002C01EF401C01DF400C01CF4A0EC02F010
:102CD00004017A2D01D003D07A51020841E1040E9B
:102CE000C26F8F0EC16F890EE96E17C4CAF416C485
:102CF000C9F415C4C8F414C4C7F4010ECB6F0001A5
:102D00008AEC0AF0120E0401C36F2D0EC46F040E7C
:102D1000C66F8F0EC56F010EC76FC86F0001DFEC65
:102D20000BF0040E0401C26F8F0EC16FB80EF66E69
:102D3000020EF76E0001B3EC0CF00401926B010E71
:102D4000C36F2D0EC46F040EC66F8F0EC56F010EBC
:102D5000C76FC86F0001DFEC0BF0A0EC02F00401BC
:102D60007A510308D8A497D0040EC26F8F0EC16F9A
:102D7000890EE96E30C4CAF42FC4C9F42EC4C8F455
:102D80002DC4C7F4020ECB6F00018AEC0AF0320E9C
:102D90000401C36F190EC46F040EC66F8F0EC56F8A
:102DA000010EC76FC86F0001DFEC0BF00401C36BAD
:102DB000180EC46F500EC56F200EC66F010EC76F80
:102DC000C86F00016DEC10F0968284B230D030C430
:102DD000C6F42FC4C5F42EC4C4F42DC4C3F4040136
:102DE000CA6BC96B200EC86F820EC76F00011EEC44
:102DF00006F01DE3D89230C4CAF42FC4C9F42EC41F
:102E0000C8F42DC4C7F4CD0E0401CE6FCC0ECD6F27
:102E10004C0ECC6F7B0ECB6F000133EC04F003C083
:102E200030F402C02FF401C02EF400C02DF49484BD
:102E300082B42ED00401C66BC56BC46BC36B30C4A7
:102E4000CAF42FC4C9F42EC4C8F42DC4C7F40001B9
:102E50001EEC06F01DE3D88230C4CAF42FC4C9F4B6
:102E60002EC4C8F42DC4C7F4CD0E0401CE6FCC0E11
:102E7000CD6F4C0ECC6F7B0ECB6F000133EC04F0AA
:102E800003C030F402C02FF401C02EF400C02DF4B2
:102E9000A0EC02F004017A51040876E1C36B220E23
:102EA000C46F500EC56F2A0EC66F010EC76FC86F74
:102EB00000016DEC10F0968284B230D034C4C6F4B8
:102EC00033C4C5F432C4C4F431C4C3F40401CA6BBE
:102ED000C96B700EC86F830EC76F00011EEC06F041
:102EE0001DE3D89234C4CAF433C4C9F432C4C8F45C
:102EF00031C4C7F4CD0E0401CE6FCC0ECD6F4C0E95
:102F0000CC6F7B0ECB6F000133EC04F003C034F4C4
:102F100002C033F401C032F400C031F4948482B4AE
:102F200030D00401C66BC56B200EC46F810EC36F19
:102F300034C4CAF433C4C9F432C4C8F431C4C7F4C5
:102F400000011EEC06F01DE3D88234C4CAF433C479
:102F5000C9F432C4C8F431C4C7F4CD0E0401CE6F35
:102F6000CC0ECD6F4C0ECC6F7B0ECB6F000133ECD3
:102F700004F003C034F402C033F401C032F400C0E2
:102F800031F4A0EC02F004017A51030803E07A5115
:102F9000040841E1040EC26F8F0EC16F890EE96E05
:102FA0002CC4CAF42BC4C9F42AC4C8F429C4C7F475
:102FB000010ECB6F00018AEC0AF0120E0401C36F00
:102FC0002D0EC46F040EC66F8F0EC56F010EC76F36
:102FD000C86F0001DFEC0BF0040E0401C26F8F0E0E
:102FE000C16FBC0EF66E020EF76E0001B3EC0CF072
:102FF0000401926B010EC36F2D0EC46F040EC66FD9
:103000008F0EC56F010EC76FC86F0001DFEC0BF0AC
:10301000A0EC02F004017A510508D8A497D0040E60
:10302000C26F8F0EC16F890EE96E45C4CAF444C4E5
:10303000C9F443C4C8F442C4C7F4020ECB6F000104
:103040008AEC0AF0320E0401C36F190EC46F040E2D
:10305000C66F8F0EC56F010EC76FC86F0001DFEC22
:103060000BF00401C36B180EC46F500EC56F200E19
:10307000C66F010EC76FC86F00016DEC10F096822D
:1030800084B230D045C4C6F444C4C5F443C4C4F4C7
:1030900042C4C3F40401CA6BC96B200EC86F820E10
:1030A000C76F00011EEC06F01DE3D89245C4CAF4B8
:1030B00044C4C9F443C4C8F442C4C7F4CD0E0401E7
:1030C000CE6FCC0ECD6F4C0ECC6F7B0ECB6F000154
:1030D00033EC04F003C045F402C044F401C043F4EF
:1030E00000C042F4948482B42ED00401C66BC56B38
:1030F000C46BC36B45C4CAF444C4C9F443C4C8F424
:1031000042C4C7F400011EEC06F01DE3D88245C49A
:10311000CAF444C4C9F443C4C8F442C4C7F4CD0ECD
:103120000401CE6FCC0ECD6F4C0ECC6F7B0ECB6FEF
:10313000000133EC04F003C045F402C044F401C0C4
:1031400043F400C042F4A0EC02F004017A510608F6
:1031500076E1C36B220EC46F500EC56F2A0EC66F88
:10316000010EC76FC86F00016DEC10F0968284B23B
:1031700030D049C4C6F448C4C5F447C4C4F446C4F6
:10318000C3F40401CA6BC96B700EC86F830EC76F9E
:1031900000011EEC06F01DE3D89249C4CAF448C4ED
:1031A000C9F447C4C8F446C4C7F4CD0E0401CE6FB9
:1031B000CC0ECD6F4C0ECC6F7B0ECB6F000133EC81
:1031C00004F003C049F402C048F401C047F400C051
:1031D00046F4948482B430D00401C66BC56B200ED3
:1031E000C46F810EC36F49C4CAF448C4C9F447C44C
:1031F000C8F446C4C7F400011EEC06F01DE3D882F3
:1032000049C4CAF448C4C9F447C4C8F446C4C7F49E
:10321000CD0E0401CE6FCC0ECD6F4C0ECC6F7B0E5D
:10322000CB6F000133EC04F003C049F402C048F452
:1032300001C047F400C046F4A0EC02F004017A514A
:10324000050803E07A51060841E1040EC26F8F0EB3
:10325000C16F890EE96E41C4CAF440C4C9F43FC4C9
:10326000C8F43EC4C7F4010ECB6F00018AEC0AF02B
:10327000120E0401C36F2D0EC46F040EC66F8F0EA5
:10328000C56F010EC76FC86F0001DFEC0BF0040EB5
:103290000401C26F8F0EC16FC00EF66E020EF76E84
:1032A0000001B3EC0CF00401926B010EC36F2D0E04
:1032B000C46F040EC66F8F0EC56F010EC76FC86F47
:1032C0000001DFEC0BF0A0EC02F004010001E9EFDB
:1032D0001CF00401095302E17B5304E07A51000819
:1032E000D8B0E2D0958083B001D0076B958283B2CD
:1032F00008D0958083A005D0085303E1010E076F25
:10330000082B072D09D094988B8895968C869594D8
:103310008C94052BD8B4062B7E51055D0EE1065327
:103320000CE1072D0AD094988B8895968C969594ED
:103330008C84020E076F066B056B0751020806E1CD
:1033400094988B8895968C9695948C840753D8A4E2
:10335000ABD094988B9895968C9695948C94066B9C
:10336000056B086BD882CA6B400EC96F1C0EC86F04
:103370008A0EC76F56C4CEF455C4CDF454C4CCF4F1
:1033800053C4CBF4000133EC04F003C05AF402C080
:1033900059F401C058F400C057F4D8820401CA6B34
:1033A000400EC96F1C0EC86F8A0EC76F5EC4CEF484
:1033B0005DC4CDF45CC4CCF45BC4CBF4000133EC4D
:1033C00004F003C062F402C061F401C060F400C004
:1033D0005FF4D8820401CA6B400EC96F1C0EC86F1F
:1033E0008A0EC76F66C4CEF465C4CDF464C4CCF451
:1033F00063C4CBF4000133EC04F003C06AF402C0F0
:1034000069F401C068F400C067F456C4D7F455C429
:10341000D6F454C4D5F453C4D4F40401DB6BDA6B92
:10342000800ED96F7F0ED86F0001B8EC03F003C097
:1034300056F402C055F401C054F400C053F45EC405
:10344000D7F45DC4D6F45CC4D5F45BC4D4F40401F1
:10345000DB6BDA6B800ED96F7F0ED86F0001B8EC92
:1034600003F003C05EF402C05DF401C05CF400C070
:103470005BF466C4D7F465C4D6F464C4D5F463C4FD
:10348000D4F40401DB6BDA6B800ED96F7F0ED86F3A
:103490000001B8EC03F003C066F402C065F401C09B
:1034A00064F400C063F40401092DF6D07B53D8A462
:1034B000F3D0958083B001D0076B958283B208D09A
:1034C000958083A005D0085303E1010E076F082BF8
:1034D0001351125D02E194988B88072D0CD00C5388
:1034E0000AE10D5308E11351125D05E094988B88B1
:1034F0000A2BD8B40B2B0E510A5D0DE10F510B5D59
:103500000AE1072D08D01351125D05E094988B98BD
:103510000C2BD8B40D2B10510C5D0DE111510D5D2C
:103520000AE1072D08D01351125D05E00B6B0A6B01
:103530000D6B0C6B122B0753D8A4AED094988B98BC
:1035400095968C9695948C94086B0B6B0A6B0D6B0F
:103550000C6B126BD882CA6B400EC96F1C0EC86F01
:103560008A0EC76F56C4CEF455C4CDF454C4CCF4FF
:1035700053C4CBF4000133EC04F003C05AF402C08E
:1035800059F401C058F400C057F4D8820401CA6B42
:10359000400EC96F1C0EC86F8A0EC76F5EC4CEF492
:1035A0005DC4CDF45CC4CCF45BC4CBF4000133EC5B
:1035B00004F003C062F402C061F401C060F400C012
:1035C0005FF4D8820401CA6B400EC96F1C0EC86F2D
:1035D0008A0EC76F66C4CEF465C4CDF464C4CCF45F
:1035E00063C4CBF4000133EC04F003C06AF402C0FE
:1035F00069F401C068F400C067F456C4D7F455C438
:10360000D6F454C4D5F453C4D4F40401DB6BDA6BA0
:10361000800ED96F7F0ED86F0001B8EC03F003C0A5
:1036200056F402C055F401C054F400C053F45EC413
:10363000D7F45DC4D6F45CC4D5F45BC4D4F40401FF
:10364000DB6BDA6B800ED96F7F0ED86F0001B8ECA0
:1036500003F003C05EF402C05DF401C05CF400C07E
:103660005BF466C4D7F465C4D6F464C4D5F463C40B
:10367000D4F40401DB6BDA6B800ED96F7F0ED86F48
:103680000001B8EC03F003C066F402C065F401C0A9
:1036900064F400C063F404010001EAEF1CF00401CB
:1036A000C86BC85101082BE3C851C525C96F040E6A
:1036B000CB6FC60ECA6FC851CA25016E000ECB2152
:1036C000036E0150E96E03C0EAFFEFCFCAF4C9C42C
:1036D000A9FFCAC4A8FFA69CA69EA684F250006EAD
:1036E000F29E0F01550EA76EAA0EA76EA682A6B275
:1036F000FED7A6940050F2120401C82BD2D70001C5
:103700001200F86AD09EEA6AE96A94948B840401F4
:10371000066B056B076B086B096B0B6B0A6B0D6B0C
:103720000C6B0F6B030E0E6F116B106F126B050E8F
:10373000136F176B166B156B146B1B6B1A6B196B76
:10374000186B1F6B1E6B1D6B1C6B236B226B216B2D
:10375000206B276B266B256B246B286B2C6B2B6BDC
:103760002A6B296B306B2F6B2E6B2D6B346B336B8D
:10377000326B316B386B376B366B356B3C6B3B6B3D
:103780003A6B396B3D6B416B406B3F6B3E6B456BEE
:10379000446B436B426B496B486B476B466B4D6B9D
:1037A0004C6B4B6B4A6B516B506B4F6B4E6B526B50
:1037B000566B556B546B536B5E6B5D6B5C6B5B6BED
:1037C000666B656B646B636B6C6B6B6B6E6B6D6B5D
:1037D000706B6F6B746B736B726B716B766B756BFD
:1037E000786B776B796B7A6B7B6B7C6B7D6B846BA7
:1037F000836B856B876BDC0E866F8B6B8A6B896B3B
:10380000886B8D6B8C6B8E6BC26BC16BC180C18200
:10381000C184C196C190C192C184C196C19CC28C21
:10382000C28EC18EC280010EC36F00016BEC01F02D
:1038300026EF03F0010E0401C36F00016BEC01F0F1
:103840000401C36B000102EC02F0010E0401C36F1E
:1038500000016BEC01F0A0EC02F09D8AC00EF212A8
:10386000F2CFC3F4F29E010EA96EA69CA69EA6807E
:10387000A8500401C3BFF28E7E6F0A0EC36F000111
:1038800073EC03F002C0C4F401C0C3F49DEC03F078
:1038900003C01BF402C01AF401C019F400C018F4EC
:1038A000140E0401C36F000173EC03F002C0C4F4F2
:1038B00001C0C3F49DEC03F003C01FF402C01EF46A
:1038C00001C01DF400C01CF41E0E0401C36F0001F2
:1038D00073EC03F002C0C4F401C0C3F49DEC03F028
:1038E00003C030F402C02FF401C02EF400C02DF448
:1038F000280E0401C36F000173EC03F002C0C4F48E
:1039000001C0C3F49DEC03F003C034F402C033F4EF
:1039100001C032F400C031F4320E0401C36F000163
:1039200073EC03F002C0C4F401C0C3F49DEC03F0D7
:1039300003C045F402C044F401C043F400C042F4A3
:103940003C0E0401C36F000173EC03F002C0C4F429
:1039500001C0C3F49DEC03F003C049F402C048F475
:1039600001C047F400C046F4F2CFC3F4F29E460E05
:10397000A96EA69CA69EA680A8500401C3BFF28E85
:103980008E6F8E5106081AE01B6B1A6B196B186B41
:103990001F6B1E6B1D6B1C6B306B2F6B2E6B2D6B9F
:1039A000346B336B326B316B456B446B436B426BE7
:1039B000496B486B476B466B190E7E6F00015BEFDE
:1039C00006F05BEF0DF0A0EC02F0ECEF0EF0CFEFA5
:1039D00010F07FD4F2CFC3F4F29E010EA96EA69C24
:1039E000A69EA680A8500401C3BFF28E8D6B8C6F7B
:1039F0007E518C5D02E18D5316E0010EA96E7EC4EE
:103A0000A8FFA69CA69EA684F250006EF29E0F010F
:103A1000550EA76EAA0EA76EA682A6B2FED7A694D2
:103A20000050F21204010A0EC36F000173EC03F0A0
:103A300002C08DF401C08CF48DC4C4F48CC4C3F4F2
:103A40009DEC03F003C0C6F402C0C5F401C0C4F489
:103A500000C0C3F41BC4CAF41AC4C9F419C4C8F41E
:103A600018C4C7F41EEC06F017E01BC4C6F41AC451
:103A7000C5F419C4C4F418C4C3F4F0EC09F002C0CE
:103A8000C4F401C0C3F40A0E0401C56F02C0C7F438
:103A900001C0C6F4000103DE140E0401C36F00016F
:103AA00073EC03F002C08DF401C08CF48DC4C4F437
:103AB0008CC4C3F49DEC03F003C0C6F402C0C5F48B
:103AC00001C0C4F400C0C3F41FC4CAF41EC4C9F4C6
:103AD0001DC4C8F41CC4C7F41EEC06F017E01FC4D4
:103AE000C6F41EC4C5F41DC4C4F41CC4C3F4F0EC75
:103AF00009F002C0C4F401C0C3F4140E0401C56F80
:103B000002C0C7F401C0C6F40001C9DD1E0E0401E5
:103B1000C36F000173EC03F002C08DF401C08CF49C
:103B20008DC4C4F48CC4C3F49DEC03F003C0C6F48C
:103B300002C0C5F401C0C4F400C0C3F430C4CAF468
:103B40002FC4C9F42EC4C8F42DC4C7F41EEC06F06B
:103B500017E030C4C6F42FC4C5F42EC4C4F42DC479
:103B6000C3F4F0EC09F002C0C4F401C0C3F41E0EAB
:103B70000401C56F02C0C7F401C0C6F400018FDDA7
:103B8000280E0401C36F000173EC03F002C08DF432
:103B900001C08CF48DC4C4F48CC4C3F49DEC03F058
:103BA00003C0C6F402C0C5F401C0C4F400C0C3F42D
:103BB00034C4CAF433C4C9F432C4C8F431C4C7F439
:103BC0001EEC06F017E034C4C6F433C4C5F432C4A6
:103BD000C4F431C4C3F4F0EC09F002C0C4F401C071
:103BE000C3F4280E0401C56F02C0C7F401C0C6F4B7
:103BF000000155DD320E0401C36F000173EC03F0C8
:103C000002C08DF401C08CF48DC4C4F48CC4C3F420
:103C10009DEC03F003C0C6F402C0C5F401C0C4F4B7
:103C200000C0C3F445C4CAF444C4C9F443C4C8F4CE
:103C300042C4C7F41EEC06F017E045C4C6F444C401
:103C4000C5F443C4C4F442C4C3F4F0EC09F002C0A8
:103C5000C4F401C0C3F4320E0401C56F02C0C7F43E
:103C600001C0C6F400011BDD3C0E0401C36F00015E
:103C700073EC03F002C08DF401C08CF48DC4C4F465
:103C80008CC4C3F49DEC03F003C0C6F402C0C5F4B9
:103C900001C0C4F400C0C3F449C4CAF448C4C9F4A0
:103CA00047C4C8F446C4C7F41EEC06F017E049C484
:103CB000C6F448C4C5F447C4C4F446C4C3F4F0EC25
:103CC00009F002C0C4F401C0C3F43C0E0401C56F86
:103CD00002C0C7F401C0C6F40001E1DC060E040115
:103CE0008E6FF2CFC3F4F29E460EA96EA69CA69EDE
:103CF000A680A850C3BFF28E8D6B8C6F8E518C5DE9
:103D000002E18D5316E0460EA96E8EC4A8FFA69C54
:103D1000A69EA684F250006EF29E0F01550EA76E6D
:103D2000AA0EA76EA682A6B2FED7A6940050F212E3
:063D3000040144D603006B
:020000040030CA
:0E00000000220C0E0001810000C00FE00F4036
:00000001FF
;PIC18F452
;CRC=211F  CREATED="22-jul-20 16:12"
