:100000006DEF1DF0F76A140FF66E000EF72209006F
:10001000F5501200000000000000005F0000000327
:10002000000300143E143E14242A7F2A124333088E
:10003000666136495522500005030000001C22412C
:10004000000041221C0014083E081408083E08085D
:100050000050300000080808080800606000002018
:10006000100804023E5149453E0004027F004261EF
:1000700051494622414949361814127F10274545F7
:1000800045393E4949493201017109073649494913
:1000900036264949493E00363600000056360000F3
:1000A00008142241001414141414004122140802EC
:1000B000015109063E4159555E7E0909097E7F4975
:1000C0004949363E414141227F4141413E7F4949B4
:1000D00049417F090909013E4141493A7F08080821
:1000E0007F00417F4100304040403F7F0814224163
:1000F0007F404040407F020C027F7F0204087F3E29
:100100004141413E7F090909061E2121215E7F09E7
:1001100009097600F76A240FF66E010EF72209002E
:10012000F5501200264949493201017F01013F4043
:1001300040403F1F2040201F7F2010207F41221C75
:10014000224107087008076151494543007F41007B
:100150000002040810200000417F00040201020494
:100160004040404040000102040020545454787F35
:10017000444444383844444444384444447F385424
:1001800054541804047E0505085454543C7F080454
:10019000047800447D40002040443D007F10284406
:1001A0000000417F40007C047804787C08040478D7
:1001B00038444444387C14141408081414147C0083
:1001C0007C080404485454542004043F44443C40F4
:1001D00040207C1C2040201C3C4030403C442810E7
:1001E00028440C5050503C4464544C440008364160
:1001F0004100007F00004141360800020102040274
:100200004C313A004C323A004C333A00446566694E
:100210006E61206F2074656D706F20646F202020E8
:100220002045737472656C61202F20547269616E71
:1002300067756C6F000054656D706F3A0000436124
:100240006C6962726163616F202020202020202071
:10025000202020646F2053656E736F72204C310034
:100260004F66667365743A005265663A00004361F2
:100270006C6962726163616F202020202020202041
:10028000202020646F2053656E736F72204C310004
:100290004F66667365743A005265663A00004C31E9
:1002A0003A0043616C6962726163616F20202020B3
:1002B00020202020202020646F2053656E736F72F1
:1002C000204C32004F66667365743A005265663A98
:1002D000000043616C6962726163616F20202020BD
:1002E00020202020202020646F2053656E736F72C1
:1002F000204C32004F66667365743A005265663A68
:1003000000004C323A0043616C6962726163616F54
:100310002020202020202020202020646F205365D2
:100320006E736F72204C33004F66667365743A00CB
:100330005265663A000043616C6962726163616F85
:100340002020202020202020202020646F205365A2
:100350006E736F72204C33004F66667365743A009B
:100360005265663A00004C333A0050285265616C81
:10037000293D000050284850293D0000050EEA6E36
:10038000A30EE96EEF500EE0050E016E006A002E1E
:10039000FED7012EFBD72E0E006E002EFED700D00A
:1003A000EF2EF2D712000501A98193948A949396B7
:1003B0008A86A9A109D093988A88958E83BE01D098
:1003C000A99193988A98F5D700011200ECDF9394D5
:1003D0008A9493968A96060E006E002EFED7000031
:1003E0000501A6BF02D08C9E01D08C8E959EA6BD25
:1003F00002D08C9C01D08C8C959CA6BB02D08C9A90
:1004000001D08C8A959AA6B902D08C9801D08C889C
:100410009598060E006E002EFED7000093988A88ED
:10042000060E006E002EFED7000093988A98060EE6
:10043000006E002EFED70000A6B702D08C9E01D021
:100440008C8E959EA6B502D08C9C01D08C8C959CF0
:10045000A6B302D08C9A01D08C8A959AA6B102D00C
:100460008C9801D08C889598060E006E002EFED7D1
:10047000000093988A88060E006E002EFED70000BA
:1004800093988A98000112000501C451C603F3CF66
:1004900001F0F4CF00F0C703F3500026C551C603A6
:1004A000F3500020026E000112000501A32D03D0BD
:1004B0000368FF0E02D0036A000EA66F03C0A7F503
:1004C000A46BA4513F082EE3A56BA551070828E3B0
:1004D000C56BA4C5C4F5C76B100EC66F0001D4DF91
:1004E00002C003F00150010F0501A86F000E0220A9
:1004F000A96F036AA5C502F0D890023603360250F0
:10050000A8270350A923040EA825E96E000EA921EF
:10051000EA6EA7C5ECFFED52A6C5EFFFA52BD5D718
:10052000A42BCFD70480000112003DDF93948A846E
:1005300093968A96060E006E002EFED700000501E7
:10054000A8BF02D08C9E01D08C8E959EA8BD02D0F3
:100550008C9C01D08C8C959CA8BB02D08C9A01D02D
:100560008C8A959AA8B902D08C9801D08C889598DD
:10057000060E006E002EFED7000093988A88060EA5
:10058000006E002EFED7000093988A98060E006E2B
:10059000002EFED70000A8B702D08C9E01D08C8E12
:1005A000959EA8B502D08C9C01D08C8C959CA8B34C
:1005B00002D08C9A01D08C8A959AA8B102D08C98DE
:1005C00001D08C889598060E006E002EFED7000094
:1005D00093988A88060E006E002EFED7000093982E
:1005E0008A980001120004A083D00501A36BA351D7
:1005F0003F08D8A07BD0A3511F080DE3A351800969
:10060000A56FA66F0001E2DE800E0501A66F000156
:10061000DDDE0DD00501200EA35D8009A56FA66F5C
:100620000001D4DE880E0501A66F0001CFDE0501B2
:10063000A46BA451070858E3C56BA3C5C4F5C76BE9
:10064000100EC66F000120DF02C003F00150010F41
:100650000501A56F000E0220A66F036AA4C502F073
:10066000D890023603360250A5270350A623010E68
:10067000A525016E000EA621036E0150040FE96E40
:10068000000E0320EA6EEFCFA5F5A5C5A8F5000181
:100690004CDF0501C56BA3C5C4F5C76B100EC66F53
:1006A0000001F2DE02C003F00150010F0501A56F49
:1006B000000E0220A66F036AA4C502F0D89002368D
:1006C00003360250A5270350A623040EA525E96E84
:1006D000000EA621EA6EEFCFA7F5A7C5A8F5000189
:1006E00024DF0501A42BA5D7A32B81D704900001FB
:1006F0001200280E0501A36F000140DE939A8A9A2A
:1007000000D000D0939A8A8A200E0501A66F0001BE
:100710005DDEBF0E006E002EFED700D00C0E050170
:10072000A66F000153DE850E006E002EFED7010E6F
:100730000501A66F00014ADE0A0E0501A36F000144
:100740001DDE060E0501A66F000140DE5F0E006E85
:10075000002EFED700D0240E0501A66F000136DE64
:100760005F0E006E002EFED700D0260E0501A66F8C
:1007700000012CDE5F0E006E002EFED700D00501BA
:10078000A36B000192DE2FDFE9EF1DF00401706B17
:10079000705101081FE3040E746F710E736F705176
:1007A0007325016E000E7421036E0150E96E03C0C3
:1007B000EAFF70516F25756FF2CF76F4F29E75C423
:1007C000A9FFA69CA69EA680A85076BFF28EEF6ECB
:1007D000702BDED771C401F072C402F00001120068
:1007E0008E0E006EA4C501F0A3C502F0036A01528B
:1007F00009E102C001F0026A080E005E015202E146
:10080000006A08D0D89001BE04D002360136000636
:10081000F9D7019E12000501B051D8B471D0006E15
:10082000B451D8B46DD0002604E3810E002668E2EE
:1008300004D07F0E005E64E363E0B1C5B8F5B55146
:10084000B81BB18FB58FB351B703F4CFBAF5B2511E
:10085000B603F4CF03F0F3CFB9F5B703F350BA27DB
:10086000F450B923000E0322B351B603F350BA2754
:10087000F450B923000E026A03220222B151B703D9
:10088000F350B927F4500322000E0222B151B603EF
:10089000F3500326F4500222000E016A0122B351E4
:1008A000B503F350B927F4500322000E02220122AF
:1008B000B251B503F3500326F4500222000E012278
:1008C000B151B503F3500226F4500122002A01BEB3
:1008D00005D0B9370336023601360006000EB9AF2F
:1008E0000AD0032A02220122015005E1025003E14D
:1008F000035001E1002AB8BF018EB8AF019E04D0B9
:10090000006A016A026A036A00011200800ED8A21E
:1009100002D00501A81B0501AD6BAE6BA4C5ACF5FB
:10092000A851AC1BA351D8B4DFD0AB6F006EA75158
:10093000D8B4E3D0AB5FD8B483D03EE3A8C5B1F55B
:10094000B18FA9C5B0F5AAC5AFF5AE6BD890B133DC
:10095000B033AF33AE33AB2FF8D7ACAF03D0AD81EC
:10096000E0D0AD91AB91AD89050EEA6EA60EE96EB1
:10097000EBD0AD99ACBF0AD0ABA113D0B133B0333B
:10098000AF33AE33002AD8B4C7D00BD0B1BF0CD030
:10099000D890AE37AF37B037B1370006D8B4BCD037
:1009A000F5D7AD8D6DD0AD9DA4C5ACF5A4AF02D08B
:1009B000B18FABD0B19FA9D0A7C5ABF5A7C500F04B
:1009C000A351AB5FA4C5B1F5B18FA5C5B0F5A6C560
:1009D000AFF5AE6BD890B133B033AF33AE33AB2F8E
:1009E000F8D7ACAF03D0AD839CD0AD93AB91AD8BBA
:1009F000050EEA6EAA0EE96EA7D0AD9BACBF0AD079
:100A0000ABA113D0B133B033AF33AE33002AD8B477
:100A100083D00BD0B1BF0CD0D890AE37AF37B03742
:100A2000B1370006D8B478D0F5D7AD8F29D0AD9FB7
:100A3000A8C5ACF5A8AF02D0B18F67D0B19F65D083
:100A4000A8C5B1F5B18FA9C5B0F5AAC5AFF5ACAFD2
:100A500004D0B19FAD8565D0AD95AE6BAB91050E61
:100A6000EA6EA60EE96E70D0ACBF1CD0A4C5ACF582
:100A7000ABA106D0B133B033AF33AE33002A4CE074
:100A8000AEAF0BD0AF2B09E1B02B07E1B12B05E1E5
:100A9000B133B033AF33002A3FE0ADBD84D7ADBF33
:100AA000C6D71CD0800EB11BB1AF04D03AD0A8C5B8
:100AB000ACF50AD0A4C5ACF5B15306E1B05304E1DE
:100AC000AF5302E1006A21D0B1BF08D0D890AE3751
:100AD000AF37B037B137002EF7D71ED0ACAF02D04A
:100AE000B18F13D0B19F11D0A7C500F0A8C5B1F543
:100AF000A9C5B0F5AAC5AFF508D0A3C500F0A4C537
:100B0000B1F5A5C5B0F5A6C5AFF5B1C501F0B0C545
:100B100002F0AFC503F034D0006A016A026A036ACA
:100B20002FD0AE6BAF1FB01FB11FAE1FAE2B05E1B4
:100B3000AF2B03E1B02B01E1B12BADB112D7ADB3B7
:100B400054D7ADB589D7B3D7EF50AF2705E3B02B56
:100B500003E1B12BD8B4AB81ED52EF50B02703E3E2
:100B6000B12BD8B4AB81ED52EF50EFBE01D0800A6B
:100B7000B127D8B0AB81ADB9FCD6ADBB3ED774D7E9
:100B8000000112000501A751D8B4A5D0B36FAB5135
:100B9000D8B4A1D0B35F05E37F0EB327D8B09BD004
:100BA00006D0810EB35FD8A096D0D8B494D0B3C588
:100BB00000F0016A026A036AB26BA8C5B1F5B18F91
:100BC000A9C5B0F5AAC5AFF5190EB36FAE51AF5FA9
:100BD0000DE2010EB05F0AE2B15F08E2B25F06E229
:100BE000B22BB12BB02BAE51AF2728D0AD51B05F97
:100BF00012E2010EB15F0FE2B25F0DE2B22BB12B38
:100C0000AD51B027AE51AF2719E3B02B17E1B12B8F
:100C100015E1B22B13D0AC518009B15F0EE2010E89
:100C2000B25F0BE2B22BAC518009B127AD51B027B6
:100C3000E9E3B12BE7E1B22BE5D70380B32F01D075
:100C40000BD0D890AF37B037B137B237D890033622
:100C500002360136B437BAD7B4A106D0D8900132E3
:100C600002320332B43302D0000635E0B4BF1ED0E6
:100C7000D890AF37B037B137B237AE51AF5F07E278
:100C8000010EB05F04E2B15F02E2B25F1AE3AD5160
:100C9000B05F05E2010EB15F02E2B25F12E3AC5158
:100CA0008009B15F03E2010EB25F0BE3032A09E1A1
:100CB000022A07E1012A05E1002A0DE00132023291
:100CC0000332A8C5B3F5AC51B31BB3AF02D0018E4C
:100CD00006D0019E04D0006A016A026A036A00011C
:100CE0001200A4C5ABF50501A851AB1BABAF05D0F5
:100CF000D894D890A4BFD8802FD0A4C5ABF5A7C5F1
:100D0000ACF5A351AC5F06E0ABAF26D0D850010ADA
:100D1000D86E22D0A8C5ACF5A451AC5F06E0ABAF4D
:100D20001BD0D850010AD86E17D0A9C5ACF5A55173
:100D3000AC5F06E0ABAF10D0D850010AD86E0CD033
:100D4000AAC5ACF5A651AC5F06E0ABAF05D0D85054
:100D5000010AD86E01D0D890000112000501B051EF
:100D6000B608B06F036AB1C5B4F5B18FD890B1338E
:100D7000B233B3330332023201320032B02FF6D72E
:100D8000B4AF0BD0001E011E021E031E002AD8B4F1
:100D9000012AD8B4022AD8B4032A000156EF07F07A
:100DA000D8B204D0050EEA6EB80EE96E006A016A88
:100DB000026A036A0501B86BB96BBA6BBB6BB751BA
:100DC000B611B511B4112CE0200EBC6FD890B0371D
:100DD000B137B237B337B837B937BA37BB37B7518E
:100DE000BB5D08E1B651BA5D05E1B551B95D02E1FF
:100DF000B451B85D0FE3B451B85FB551D8A0B53D5B
:100E0000B95FB651D8A0B63DBA5FB751D8A0B73DCB
:100E1000BB5FD8800036013602360336BC2FD6D7EA
:100E2000B8C5EFFFB9C5ECFFBAC5ECFFBBC5ECFF19
:100E3000000112006EC4EAFF6DC4E9FF0501B0C5F0
:100E4000EFFFE92AD8B4EA2AEF6A04016D2BD8B47F
:100E50006E2B00011200E9500501A86FA751AA6F7F
:100E60001BE0A6C5B3F5A5C5B2F5A4C5B1F5A3C5EC
:100E7000B0F5B76BB66B200EB56F820EB46F000184
:100E8000CADC03C0A6F502C0A5F501C0A4F500C0E8
:100E9000A3F50501AA2FE5D7A6C5B3F5A5C5B2F5FB
:100EA000A4C5B1F5A3C5B0F5000158D703C0A6F598
:100EB00002C0A5F501C0A4F500C0A3F50501A6AFC9
:100EC0000DD0A807A88BA31FA41FA51FA61FA32B87
:100ED000D8B4A42BD8B4A52BD8B4A62B3B0EAF6F97
:100EE0009A0EAE6FCA0EAD6FAC6B0A0EAA6FA75109
:100EF000D8B4A82BD882050EEA6EA30EE96EA6C55B
:100F0000B3F5A5C5B2F5A4C5B1F5A3C5B0F5AFC598
:100F1000B7F5AEC5B6F5ADC5B5F5ACC5B4F50001D0
:100F20003FDF0150005213E10501A729AA5DD8A4B3
:100F300002D000010CD0A8510DE00F0BAA5D01E01A
:100F400040E2A8BF3ED0A8BD05D0200E34D0200E70
:100F50000501A817A8AB0ED0A89BA751D8A4A80735
:100F60000050A86F2D0EB06F000164DF0501A8517D
:100F7000006EA86BA751AA5D0CE10050A86F2E0E61
:100F8000B06F000157DF0501A851006E200EA817B1
:100F9000000E300EA8AB0FD0A89BA751D8A4A8076D
:100FA0000050A86F2D0EB06F000144DF0501A8515D
:100FB000006EA86B300E002600C0B0F500013ADFCD
:100FC0000501D892AFC5B3F5AEC5B2F5ADC5B1F563
:100FD000ACC5B0F5B76BB66BB56B0A0EB46F00015C
:100FE000DFDE03C0AFF502C0AEF501C0ADF500C055
:100FF000ACF50501AA2F7ED700011200BFC5C1F5CF
:101000000501BE39C26F0F0EC217BE510F0BFF0A8A
:10101000100FC36FC02D36D0C56BC1C5C4F5C76BEB
:10102000100EC66F000144EC02F002C003F0015044
:10103000010F0501C46F000E0220C56F036AC2C50F
:1010400002F0D890023603360250C4270350C5235D
:10105000040EC425016E000EC521036E01C0E9FF18
:10106000EA6E036A010E026EC351006E05E0D8906D
:1010700002360336002EFBD70250EF120350EC105D
:10108000EF6E3AD0C56BC1C5C4F5C76B100EC66F05
:10109000000144EC02F002C003F00150010F050111
:1010A000C46F000E0220C56F036AC2C502F0D8905B
:1010B000023603360250C4270350C523040EC4254C
:1010C000016E000EC521036E01C0E9FFEA6E036ADE
:1010D000010E026EC351006E05E0D8900236033651
:1010E000002EFBD70250FF0A006EFF0E031A0050BD
:1010F000EF160350EC14EF6E048000011200A6C539
:1011000003F00501A5C5E9FFA6C5EAFFEF52D8B473
:10111000C8D0A6C503F0A5C5E9FFA6C5EAFFEF50F4
:10112000520822E3A6C503F0A5C5E9FFA6C5EAFF5C
:10113000200EEF5C050DF350036AB26F050EEA6EE8
:10114000AD0EE96EB66BB2C5B5F5050E016EF76A68
:10115000B251000102EC00F00A000900F5CFEEFFE9
:10116000012EFBD732D00501A6C503F0A5C5E9FFC6
:10117000A6C5EAFFEF507E0822E3A6C503F0A5C589
:10118000E9FFA6C5EAFF530EEF5C050DF350036AB5
:10119000B26F050EEA6EAD0EE96EB66BB2C5B5F56F
:1011A000050E016EF76AB25100018AEC00F00A00E8
:1011B0000900F5CFEEFF012EFBD707D00501AD6B7F
:1011C000AE6BAF6BB06BB16B0001A6C503F0050150
:1011D000A551E96E03C0EAFFEF500A0A000103E0DF
:1011E000070A09E00BD00501A751070DF350010FC5
:1011F000A42750D000010501A36B4CD00501A751D5
:10120000050DF350A3257F0806E2A36BA751070D38
:10121000F350010FA427A96BA95104083BE3AA6B63
:10122000AA51060833E3036AA951AD0FE96E050E12
:101230000320EA6EEFCFB2F5B2C500F0AA51016EFD
:1012400004E0D8900032012EFCD700A01DD0AB6B7B
:10125000A751AB5D19E2AC6BA751AC5D13E2AC5189
:10126000A325B26FAA51A703F350A425AB25B36FF2
:10127000B2C5BEF5BF6FA8C5C0F50001BFDE050150
:10128000AC2BEAD7AB2BE4D7AA2BCAD7A92BA751F3
:10129000A327C2D7A52BD8B4A62BA32B00012FD7E9
:1012A0000501000112000900F5520CE0F6CFA3F58C
:1012B000F7CFA4F5F5CFB0F5BDDDA3C5F6FFA4C506
:1012C000F7FFF1D7120004014F53D8A4F0EF0DF04F
:1012D0005053D8A4F0EF0DF00501A36B000155ECBD
:1012E00002F0000E016EC250C70B0110C26E1A0E42
:1012F000006E002EFED700000401436B426B4D6B65
:101300004C6B4B6B4A6B496B486B010E4E6F4E51E9
:10131000080814E3C284C2B4FED7C3CF4CF4C4CFD0
:101320004DF4040E0501A36F0001BEEC01F00401B1
:101330004C5142274D5143234E2BE9D7433342337F
:1013400043334233433342331F0E431743C4A4F5A0
:1013500042C4A3F50001F0EC03F000C076F401C034
:1013600077F402C078F403C079F403C0B3F502C087
:10137000B2F501C0B1F500C0B0F5E60E0501B76FDA
:101380003F0EB66F1C0EB56F810EB46F00010BECF3
:1013900004F003C04BF402C04AF401C049F400C099
:1013A00048F40EC4A4F50DC4A3F5F0EC03F0D88204
:1013B0004BC4A6F54AC4A5F549C4A4F548C4A3F591
:1013C00003C0AAF502C0A9F501C0A8F500C0A7F5A1
:1013D00086EC04F000C076F401C077F402C078F423
:1013E00003C079F403C0AAF502C0A9F501C0A8F5AD
:1013F00000C0A7F512C4AEF511C4ADF510C4ACF52C
:101400000FC4ABF5C2EC05F003C01AF402C019F426
:1014100001C018F400C017F404011B2BD89216C4A5
:10142000A6F515C4A5F514C4A4F513C4A3F51AC4F0
:10143000AAF519C4A9F518C4A8F517C4A7F50001A1
:1014400086EC04F003C016F402C015F401C014F4D5
:1014500000C013F404011B51090828E216C4AAF5C0
:1014600015C4A9F514C4A8F513C4A7F50501AE6BFE
:10147000AD6B200EAC6F820EAB6F0001C2EC05F0BD
:1014800003C016F402C015F401C014F400C013F434
:1014900016C40CF415C40BF414C40AF413C409F4F0
:1014A00004011B6B166B156B146B136B0CC4A6F548
:1014B0000BC4A5F50AC4A4F509C4A3F50501AA6BDC
:1014C000A96BA86BA76B00010CDC06E304010C6B95
:1014D0000B6B0A6B096B0001040E04016E6F6F0E3B
:1014E0006D6F890EE96E0CC4A6F50BC4A5F50AC490
:1014F000A4F509C4A3F5010E0501A76F0001ABDC3B
:101500000501A66BA56B480EA46F850EA36F0CC4D6
:10151000AAF50BC4A9F50AC4A8F509C4A7F50001EA
:1015200071EC06F001E204E10401756B410E746F89
:101530000CC4A6F50BC4A5F50AC4A4F509C4A3F50B
:101540000501AA6BA96B480EA86F850EA76F000155
:1015500071EC06F004E30401746B410E736F0CC46C
:10156000A6F50BC4A5F50AC4A4F509C4A3F50501A5
:10157000AA6BA96B200EA86F820EA76F000171ECF9
:1015800006F004E30401736B410E726F120E050145
:10159000A36F010EA46F040EA66F6F0EA56F010E50
:1015A000A76FA86F0001ABDD040E04016E6F6F0E14
:1015B0006D6F000EF66E020EF76E000174DE040110
:1015C000726B010E0501A36FA46F040EA66F6F0E60
:1015D000A56F010EA76FA86F000191DD080E016EC7
:1015E000C250C70B0110C26E1A0E006E002EFED73D
:1015F00000000401456B446B4D6B4C6B4B6B4A6BAD
:10160000496B486B010E4E6F4E51080814E3C284BB
:10161000C2B4FED7C3CF4CF4C4CF4DF4040E0501C1
:10162000A36F0001BEEC01F004014C5144274D5161
:1016300045234E2BE9D745334433453344334533B3
:1016400044331F0E451745C4A4F544C4A3F5000157
:10165000F0EC03F000C076F401C077F402C078F437
:1016600003C079F403C0B3F502C0B2F501C0B1F50F
:1016700000C0B0F5E60E0501B76F3F0EB66F1C0E49
:10168000B56F810EB46F00010BEC04F003C04BF496
:1016900002C04AF401C049F400C048F421C4A4F5D2
:1016A00020C4A3F5F0EC03F0D8824BC4A6F54AC4DD
:1016B000A5F549C4A4F548C4A3F503C0AAF502C022
:1016C000A9F501C0A8F500C0A7F586EC04F000C09C
:1016D00076F401C077F402C078F403C079F403C053
:1016E000AAF502C0A9F501C0A8F500C0A7F525C458
:1016F000AEF524C4ADF523C4ACF522C4ABF5C2EC01
:1017000005F003C02DF402C02CF401C02BF400C07E
:101710002AF404012E2BD89229C4A6F528C4A5F5D5
:1017200027C4A4F526C4A3F52DC4AAF52CC4A9F595
:101730002BC4A8F52AC4A7F5000186EC04F003C069
:1017400029F402C028F401C027F400C026F40401E3
:101750002E51090828E229C4AAF528C4A9F527C4EE
:10176000A8F526C4A7F50501AE6BAD6B200EAC6FD6
:10177000820EAB6F0001C2EC05F003C029F402C079
:1017800028F401C027F400C026F429C41FF428C49B
:101790001EF427C41DF426C41CF404012E6B296B0F
:1017A000286B276B266B1FC4A6F51EC4A5F51DC4A8
:1017B000A4F51CC4A3F50501AA6BA96BA86BA76BC4
:1017C000000171EC06F005E304011F6B1E6B1D6B3D
:1017D0001C6B040E04016E6F6F0E6D6F890EE96E47
:1017E0001FC4A6F51EC4A5F51DC4A4F51CC4A3F50D
:1017F000010E0501A76F00012BEC07F00501A66B98
:10180000A56B480EA46F850EA36F1FC4AAF51EC456
:10181000A9F51DC4A8F51CC4A7F5000171EC06F0DC
:1018200001E204E10401756B410E746F1FC4A6F55B
:101830001EC4A5F51DC4A4F51CC4A3F50501AA6B1F
:10184000A96B480EA86F850EA76F000171EC06F01A
:1018500004E30401746B410E736F1FC4A6F51EC42C
:10186000A5F51DC4A4F51CC4A3F50501AA6BA96BBD
:10187000200EA86F820EA76F000171EC06F004E342
:101880000401736B410E726F120E0501A36F0A0EF5
:10189000A46F040EA66F6F0EA56F010EA76FA86F41
:1018A00000012DDC040E04016E6F6F0E6D6F040ECF
:1018B000F66E020EF76E0001F6DC0401726B010E8B
:1018C0000501A36F0A0EA46F040EA66F6F0EA56F1D
:1018D000010EA76FA86F000112DC100E016EC2503E
:1018E000C70B0110C26E1A0E006E002EFED700004C
:1018F0000401476B466B4D6B4C6B4B6B4A6B496BF2
:10190000486B010E4E6F4E51080814E3C284C2B4F6
:10191000FED7C3CF4CF4C4CF4DF4040E0501A36F22
:101920000001BEEC01F004014C5146274D51472304
:101930004E2BE9D747334633473346334733463395
:101940001F0E471747C4A4F546C4A3F50001F0ECE9
:1019500003F000C076F401C077F402C078F403C04D
:1019600079F403C0B3F502C0B2F501C0B1F500C00F
:10197000B0F5E60E0501B76F3F0EB66F1C0EB56FE2
:10198000810EB46F00010BEC04F003C04BF402C0F5
:101990004AF401C049F400C048F434C4A4F533C487
:1019A000A3F5F0EC03F0D8824BC4A6F54AC4A5F524
:1019B00049C4A4F548C4A3F503C0AAF502C0A9F51B
:1019C00001C0A8F500C0A7F586EC04F000C076F4CD
:1019D00001C077F402C078F403C079F403C0AAF51B
:1019E00002C0A9F501C0A8F500C0A7F538C4AEF53E
:1019F00037C4ADF536C4ACF535C4ABF5C2EC05F073
:101A000003C040F402C03FF401C03EF400C03DF406
:101A10000401412BD8923CC4A6F53BC4A5F53AC4B9
:101A2000A4F539C4A3F540C4AAF53FC4A9F53EC442
:101A3000A8F53DC4A7F5000186EC04F003C03CF412
:101A400002C03BF401C03AF400C039F40401415132
:101A5000090828E23CC4AAF53BC4A9F53AC4A8F594
:101A600039C4A7F50501AE6BAD6B200EAC6F820ECD
:101A7000AB6F0001C2EC05F003C03CF402C03BF4C4
:101A800001C03AF400C039F43CC432F43BC431F430
:101A90003AC430F439C42FF40401416B3C6B3B6B06
:101AA0003A6B396B32C4A6F531C4A5F530C4A4F540
:101AB0002FC4A3F50501AA6BA96BA86BA76B000146
:101AC00071EC06F005E30401326B316B306B2F6B68
:101AD000040E04016E6F6F0E6D6F890EE96E32C4D5
:101AE000A6F531C4A5F530C4A4F52FC4A3F5010EA5
:101AF0000501A76F00012BEC07F00501A66BA56B94
:101B0000480EA46F850EA36F32C4AAF531C4A9F59F
:101B100030C4A8F52FC4A7F5000171EC06F001E26E
:101B200004E10401756B410E746F32C4A6F531C433
:101B3000A5F530C4A4F52FC4A3F50501AA6BA96BC4
:101B4000480EA86F850EA76F000171EC06F004E344
:101B50000401746B410E736F32C4A6F531C4A5F550
:101B600030C4A4F52FC4A3F50501AA6BA96B200E00
:101B7000A86F820EA76F000171EC06F004E3040168
:101B8000736B410E726F120E0501A36F130EA46FDB
:101B9000040EA66F6F0EA56F010EA76FA86F000150
:101BA0007FEC08F0040E04016E6F6F0E6D6F080E6F
:101BB000F66E020EF76E000153EC09F00401726B31
:101BC000010E0501A36F130EA46F040EA66F6F0E16
:101BD000A56F010EA76FA86F00017FEC08F004014C
:101BE00000018CEF1EF08E0E006E04017951005E34
:101BF0007AC402F07BC401F0028E005209E0D89052
:101C0000025202E1015204E002320132002EF7D703
:101C10007AAF05D0011E021E012AD8B4022A0001A3
:101C20001200016A026A006A036A04017C5102E13F
:101C30007B5118E0100E7D6FD89079377A370036D7
:101C400003367C51035C02E17B51005C07E37B516E
:101C5000005ED8A003067C51035ED88001360236B0
:101C60007D2FEAD7000104EF10F004018051016AD2
:101C70007F5D03E27FC400F00CD0006A080E816F24
:101C80007F3700368051005CD8B0006E0136812F5E
:101C9000F7D700011200200E04017AA9300E7B6FE5
:101CA00079C400F079AF08D0001E002A00C079F492
:101CB0002D0E7B6F7A8F7A81015079C47FF4640E88
:101CC000806F0001D2DF00C079F4300E01240401DE
:101CD0007C6F79C47FF40A0E806F0001C6DF300E7E
:101CE000002404017E6F300E01247D6F7BC400F060
:101CF000300E7C5D04E07A837ABF7A8512D07BC493
:101D00007CF4200E7B6F300E7D5D04E07A817ABF1B
:101D10007A8307D0D8A47A8104E17CC47DF4200EB4
:101D20007C6F7AB505D07AB308D07AB10BD00FD0DA
:101D30007BC4B0F500011AEC07F07CC4B0F50001DB
:101D40001AEC07F07DC4B0F500011AEC07F07EC470
:101D5000B0F500011AEC07F018EF10F004014F5332
:101D6000D8A4A4D15053D8A4A1D1606B5F6B5E6B93
:101D70005D6BD8920CC4A6F50BC4A5F50AC4A4F5F6
:101D800009C4A3F51FC4AAF51EC4A9F51DC4A8F56E
:101D90001CC4A7F5000186EC04F000C079F401C072
:101DA0007AF402C07BF403C07CF4D89203C0A6F599
:101DB00002C0A5F501C0A4F500C0A3F532C4AAF580
:101DC00031C4A9F530C4A8F52FC4A7F586EC04F0FA
:101DD00003C060F402C05FF401C05EF400C05DF4B3
:101DE00060C4AAF55FC4A9F55EC4A8F55DC4A7F5F3
:101DF0000501AE6BAD6B400EAC6F800EAB6F00019A
:101E0000C2EC05F003C060F402C05FF401C05EF4F0
:101E100000C05DF40401692BD89264C4A6F563C4C4
:101E2000A5F562C4A4F561C4A3F560C4AAF55FC4B6
:101E3000A9F55EC4A8F55DC4A7F5000186EC04F021
:101E400003C064F402C063F401C062F400C061F432
:101E5000040169510A0828E164C4AAF563C4A9F51C
:101E600062C4A8F561C4A7F50501AE6BAD6B200E89
:101E7000AC6F820EAB6F0001C2EC05F003C064F4DE
:101E800002C063F401C062F400C061F464C468F489
:101E900063C467F462C466F461C465F40401696BE9
:101EA000646B636B626B616B5CC4A4F55BC4A3F58C
:101EB0000001F0EC03F003C0B3F502C0B2F501C0BD
:101EC000B1F500C0B0F568C4B7F567C4B6F566C42F
:101ED000B5F565C4B4F50BEC04F003C07CF402C0A6
:101EE0007BF401C07AF400C079F47DDE02C059F4BD
:101EF00001C058F459C4A4F558C4A3F5F0EC03F09C
:101F000000C079F401C07AF402C07BF403C07CF411
:101F1000040E04016E6F6F0E6D6F890EE96E03C0C3
:101F2000A6F502C0A5F501C0A4F500C0A3F5010EF9
:101F30000501A76F00012BEC07F004015951260899
:101F400008E2FF0A03E15851100803E2776B570ECD
:101F5000766F5951270807E303E158510F0803E34F
:101F6000766B570E756F5951030807E303E158511B
:101F7000E70803E3756B570E746F595306E1585128
:101F8000630803E3746B570E736F595306E158519E
:101F9000090803E3736B570E726F3C0E0501A36FC4
:101FA000280EA46F040EA66F6F0EA56F010EA76F0B
:101FB000A86F00017FEC08F0040E04016E6F6F0E35
:101FC0006D6F6A0EF66E030EF76E000153EC09F0AA
:101FD0000401776B010E0501A36F280EA46F040E98
:101FE000A66F6F0EA56F010EA76FA86F00017FECA3
:101FF00008F059C47AF458C479F4020E04017C6FD5
:10200000EA0E7B6F00010DD602C003F001C002F0A2
:10201000D8900236033602C05AF40401040E6E6FE3
:102020006F0E6D6F5AC479F4110E7A6F000133D6BA
:1020300004015A51630805E3746B500E736F480E28
:10204000726F5A51090805E3736B500E726F480E98
:10205000716F350E0501A36F320EA46F040EA66FCB
:102060006F0EA56F010EA76FA86F00017FEC08F03F
:10207000040E04016E6F6F0E6D6F740EF66E030E1C
:10208000F76E000153EC09F00401776B010E0501B6
:10209000A36F320EA46F040EA66F6F0EA56F010E14
:1020A000A76FA86F00017FEC08F0040100018EEF1C
:1020B0001EF0010E0501B76FB86FBD6BAE51B05D7C
:1020C000BE6FBE51BEAF03D0000ED880BE55036AAE
:1020D000B56F03C0B6F5AF51B15DBE6FBE51BEAFB7
:1020E00003D0000ED880BE55036AB36F03C0B4F5A9
:1020F000AE51B05D01E2B769AF51B15D01E2B869BF
:10210000B451B65D3CE303E1B351B55D38E3D8901B
:10211000B337B437B551B35D006EB651B45900C092
:10212000B9F5BA6FB551B95DBB6FB651BA59BC6F4D
:10213000B65303E1BD51B55D21E3AEC5BEF5AFC5F4
:10214000BFF5B2C5C0F50001FEEC07F00501BABF4E
:1021500001D008D0B351B927B451BA23B751AE2535
:10216000AE6F0AD0BB51B927BC51BA23B751AE25C7
:10217000AE6FB851AF25AF6FBD2BDAD737D0D8903F
:10218000B537B637B351B55D006EB451B65900C01E
:10219000B9F5BA6FB351B95DBB6FB451BA59BC6FE1
:1021A000B45303E1BD51B35D21E3AEC5BEF5AFC588
:1021B000BFF5B2C5C0F50001FEEC07F00501BABFDE
:1021C00001D008D0B551B927B651BA23B851AF25BF
:1021D000AF6F0AD0BB51B927BC51BA23B751AE2556
:1021E000AE6FB851AF25AF6FBD2BDAD7000112002B
:1021F0000501A7532FE0A551A35D05E2A3C5AAF5EC
:10220000A5C5ABF504D0A5C5AAF5A3C5ABF5A651E8
:10221000A45D05E2A4C5ACF5A6C5ADF504D0A6C580
:10222000ACF5A4C5ADF5AA51AB5D13E3ACC5A9F5FA
:10223000A951AD5D0CE3AAC5BEF5A9C5BFF5A8C5FA
:10224000C0F50001FEEC07F00501A92BF1D7AA2B80
:10225000EAD72ED0A3C5AEF5A4C5AFF5A5C5B0F598
:10226000A4C5B1F5A8C5B2F5000123DFA3C5AEF53D
:10227000A6C5AFF5A5C5B0F5A6C5B1F5A8C5B2F51B
:1022800018DFA3C5AEF5A4C5AFF5A3C5B0F5A6C5C7
:10229000B1F5A8C5B2F50DDFA5C5AEF5A4C5AFF57E
:1022A000A5C5B0F5A6C5B1F5A8C5B2F502DF050113
:1022B00000011200EACFABF5E9CFAAF50501A4AF02
:1022C00008D0AA8FAAA9AA2BA31FA41FA32BD8B4F6
:1022D000A42BA439F009A66FA627E20FA76F320F2F
:1022E000A96FA4510F0BA727A727A927E90FA86F4C
:1022F000A827A827A3390F0BA827A927A837A937EC
:10230000A91FA937A3510F0BA927A637070EA56F41
:102310000A0EA807A927FDE3A707A827FDE3A6073C
:10232000A727FDE3A507A627FDE3050EEA6EA50E88
:10233000E96E070EAA15AA9DE906AA1507E1AAB932
:10234000E92AAAB903D0200E006E1CD0E926A90EF6
:10235000E95CD8B4AA8DEF50006E08E1AABD06D0A2
:10236000AAB91ED0AAB702D0200E0BD0AAAF06D0B1
:102370002D0E006EED50AA9DAA9F04D0AA87AA999F
:10238000300E0026EACFA4F5E9CFA3F500C0B0F5E2
:1023900000011AEC07F0A4C5EAFFA3C5E9FF050197
:1023A000EE50AAADD4D7000112000501A36B0001C5
:1023B00055EC02F0968084B014D004014F53D8A499
:1023C00002D000010ED04F510508D8B002D0000154
:1023D00008D05153D8B402D0000103D04F2B512B59
:1023E0000001968084B013D004015053D8B402D0B9
:1023F00000010DD05153D8B402D0000108D04F5382
:10240000D8B402D0000103D0502B512B000196808C
:1024100084B00CD00401502D01D002D0000106D0B0
:102420004F53D8B402D0000101D0512B04015151B7
:10243000140802E2010E4F6F968084A001D0516B08
:10244000948682B606D04F5304E0525302E14F0700
:10245000522B948682B606D0505304E0525302E1C8
:102460005007522B948682A601D0526B502DA6D0D5
:102470004F53D8A4A3D00501A36B000155EC02F083
:10248000040E04016E6F6F0E6D6F0C0EF66E020E71
:10249000F76E000153EC09F00401976B010E050182
:1024A000A36FA46F040EA66F6F0EA56F010EA76F2A
:1024B000A86F00017FEC08F0040E04016E6F6F0E30
:1024C0006D6F360EF66E020EF76E000153EC09F0DA
:1024D0000401756B010E0501A36F190EA46F040EA4
:1024E000A66F6F0EA56F010EA76FA86F00017FEC9E
:1024F00008F0040E04016E6F6F0E6D6F890EE96EA9
:1025000057C4A6F556C4A5F555C4A4F554C4A3F5FF
:10251000010E0501A76F00012BEC07F00401736B9E
:10252000730E726F320E0501A36F190EA46F040EA5
:10253000A66F6F0EA56F010EA76FA86F00017FEC4D
:1025400008F0968284B209D0040153512C08D8B007
:1025500002D0000102D0532B0001948482B408D031
:10256000040153510508D8A002D0000101D053073F
:102570000501A46B53C4A3F50001F0EC03F003C004
:10258000AAF502C0A9F501C0A8F500C0A7F5AE0ED6
:102590000501AE6F470EAD6F110EAC6F810EAB6FC4
:1025A0000001C2EC05F003C057F402C056F401C0AC
:1025B00055F400C054F4F3EC02F004014F2DD3D0D5
:1025C0000501A36B000155EC02F0040E04016E6FCF
:1025D000980E6D6F3E0EF66E020EF76E000153EC14
:1025E00009F00401C06B010E0501A36FA46F040E76
:1025F000A66F980EA56F010EA76FA86F00017FEC64
:1026000008F00501A36B180EA46F500EA56F200EE5
:10261000A66F010EA76FA86F0001EADD040E04018A
:102620006E6F980E6D6F600EF66E020EF76E000103
:1026300053EC09F0010E0501A36F190EA46F040EEF
:10264000A66F980EA56F010EA76FA86B00017FEC17
:1026500008F0040E04016E6F980E6D6F100EE96E97
:102660000EC4A4F50DC4A3F5000124DE320E05014D
:10267000A36F190EA46F040EA66F980EA56F010E1E
:10268000A76FA86B00017FEC08F0040E04016E6FC9
:10269000980E6D6F680EF66E020EF76E000153EC29
:1026A00009F0010E0501A36F230EA46F040EA66F9F
:1026B000980EA56F010EA76FA86F00017FEC08F0C0
:1026C000040E04016E6F980E6D6F890EE96E12C4D0
:1026D000A6F511C4A5F510C4A4F50FC4A3F5020E08
:1026E0000501A76F00012BEC07F0320E0501A36F67
:1026F000230EA46F040EA66F980EA56F010EA76F90
:10270000A86F00017FEC08F0968284B212D0040119
:102710000E511308D8B002D000010BD006E10D51C4
:102720008708D8B002D0000104D00D2BD8B40E2BEE
:102730000001948482B414D004010E510608D8A07C
:1027400002D000010DD0FF0A06E10D51D008D8A03B
:1027500002D0000105D00D51D8B40E070D070001BD
:10276000F3EC02F004014F510208D8A40DD1050189
:10277000A36B000155EC02F0040E04016E6FC10E54
:102780006D6F6E0EF66E020EF76E000153EC09F0DF
:102790000401E96B010E0501A36FA46F040EA66F7F
:1027A000C10EA56F010EA76FA86F00017FEC08F0A6
:1027B0000501A36B220EA46F500EA56F2A0EA66F03
:1027C000010EA76FA86F000113DD040E04016E6FE8
:1027D000C10E6D6F900EF66E020EF76E000153EC97
:1027E00009F0010E0501A36F190EA46F040EA66F68
:1027F000C10EA56F010EA76FA86F00017FEC08F056
:10280000040E04016E6FC10E6D6F100EE96E0EC4E2
:10281000A4F50DC4A3F500014DDD320E0501A36F33
:10282000190EA46F040EA66FC10EA56F010EA76F3F
:10283000A86F00017FEC08F0040E04016E6FC10E5A
:102840006D6F980EF66E020EF76E000153EC09F0F4
:10285000010E0501A36F230EA46F040EA66FC10E17
:10286000A56F010EA76FA86B00017FEC08F0040EA6
:1028700004016E6FC10E6D6F890EE96E12C4A6F56C
:1028800011C4A5F510C4A4F50FC4A3F5020E0501EB
:10289000A76F00012BEC07F0320E0501A36F230E8A
:1028A000A46F040EA66FC10EA56F010EA76FA86BD3
:1028B00000017FEC08F0968284B230D012C4A6F5F5
:1028C00011C4A5F510C4A4F50FC4A3F50501AA6BA6
:1028D000A96B700EA86F830EA76F000171EC06F054
:1028E0001DE3D89212C4A6F511C4A5F510C4A4F531
:1028F0000FC4A3F5CD0E0501AA6FCC0EA96F4C0E27
:10290000A86F7B0EA76F000186EC04F003C012F4E1
:1029100002C011F401C010F400C00FF4948482B41A
:1029200030D00501A66BA56B200EA46F810EA36F9E
:1029300012C4AAF511C4A9F510C4A8F50FC4A7F5CF
:10294000000171EC06F01DE3D88212C4A6F511C493
:10295000A5F510C4A4F50FC4A3F5CD0E0501AA6F0B
:10296000CC0EA96F4C0EA86F7B0EA76F000186ECF2
:1029700004F003C012F402C011F401C010F400C04E
:102980000FF4F3EC02F004014F2D01D004D04F51AD
:102990000208D8A46BD1000E016EC250C70B011003
:1029A000C26E1A0E006E002EFED70000436B426B03
:1029B0004D6B4C6B4B6B4A6B496B486B010E4E6F0A
:1029C0004E51080812E3C284C2B4FED7C3CF4CF400
:1029D000C4CF4DF41A0E006E002EFED700004C51ED
:1029E00042274D5143234E2BEBD7433342334333DE
:1029F0004233433342331F0E431743C4A4F542C44A
:102A0000A3F50001F0EC03F000C0A3F501C0A4F5AC
:102A100002C0A5F503C0A6F503C0B3F502C0B2F528
:102A200001C0B1F500C0B0F5E60E0501B76F3F0E6D
:102A3000B66F1C0EB56F810EB46F00010BEC04F085
:102A400003C04BF402C04AF401C049F400C048F48A
:102A50000EC4A4F50DC4A3F5F0EC03F0D8824BC46A
:102A6000A6F54AC4A5F549C4A4F548C4A3F503C016
:102A7000AAF502C0A9F501C0A8F500C0A7F586EC2B
:102A800004F000C0A3F501C0A4F502C0A5F503C081
:102A9000A6F503C0AAF502C0A9F501C0A8F500C0BB
:102AA000A7F512C4AEF511C4ADF510C4ACF50FC452
:102AB000ABF5C2EC05F003C01AF402C019F401C072
:102AC00018F400C017F404011B2BD89216C4A6F505
:102AD00015C4A5F514C4A4F513C4A3F51AC4AAF526
:102AE00019C4A9F518C4A8F517C4A7F5000186EC08
:102AF00004F003C016F402C015F401C014F400C0C1
:102B000013F404011B51090828E216C4AAF515C4E0
:102B1000A9F514C4A8F513C4A7F50501AE6BAD6BF8
:102B2000200EAC6F820EAB6F0001C2EC05F003C04B
:102B300016F402C015F401C014F400C013F416C456
:102B40000CF415C40BF414C40AF413C409F40401FE
:102B50001B6B166B156B146B136B040E6E6FEA0E0A
:102B60006D6F890EE96E0CC4A6F50BC4A5F50AC4F9
:102B7000A4F509C4A3F5010E0501A76F00012BEC14
:102B800007F00501A66BA56B480EA46F850EA36F19
:102B90000CC4AAF50BC4A9F50AC4A8F509C4A7F585
:102BA000000171EC06F001E204E10401F06B410E5A
:102BB000EF6F0CC4A6F50BC4A5F50AC4A4F509C4AF
:102BC000A3F50501AA6BA96B480EA86F850EA76F28
:102BD000000171EC06F004E30401EF6B410EEE6FAF
:102BE0000CC4A6F50BC4A5F50AC4A4F509C4A3F545
:102BF0000501AA6BA96B200EA86F820EA76F0001BA
:102C000071EC06F004E30401EE6B410EED6F120E61
:102C10000501A36F2D0EA46F040EA66FEA0EA56F1B
:102C2000010EA76FA86F00017FEC08F0040E0401ED
:102C30006E6FEA0E6D6F9E0EF66E020EF76E00015D
:102C400053EC09F00401ED6B010E0501A36F2D0E8D
:102C5000A46F040EA66FEA0EA56F010EA76FA86FF2
:102C600000017FEC08F0F3EC02F004014F5103087F
:102C7000D8A4D4D00501A36B000155EC02F0040EDA
:102C800004016E6FF10E6D6FA20EF66E020EF76EFE
:102C9000000153EC09F00501196B010EA36FA46F3D
:102CA000040EA66FF10EA56F010EA76FA86F0001AD
:102CB0007FEC08F00501A36B180EA46F500EA56FF2
:102CC000200EA66F010EA76FA86F0001F8EC10F0A0
:102CD000040E04016E6FF10E6D6FC40EF66E020EDF
:102CE000F76E000153EC09F0010E0501A36F190EF8
:102CF000A46F040EA66FF10EA56F010EA76FA86B4F
:102D000000017FEC08F0040E04016E6FF10E6D6F90
:102D1000100EE96E21C4A4F520C4A3F500015AECFD
:102D200011F0320E0501A36F190EA46F040EA66FE9
:102D3000F10EA56F010EA76FA86B00017FEC08F0E4
:102D4000040E04016E6FF10E6D6FCC0EF66E020E66
:102D5000F76E000153EC09F0010E0501A36F230E7D
:102D6000A46F040EA66FF10EA56F010EA76FA86FDA
:102D700000017FEC08F0040E04016E6FF10E6D6F20
:102D8000890EE96E25C4A6F524C4A5F523C4A4F5CF
:102D900022C4A3F5020E0501A76F00012BEC07F07A
:102DA000320E0501A36F230EA46F040EA66FF10E61
:102DB000A56F010EA76FA86F00017FEC08F0968247
:102DC00084B212D0040121511308D8B002D00001FE
:102DD0000BD006E120518708D8B002D0000104D002
:102DE000202BD8B4212B0001948482B414D0040188
:102DF00021510608D8A002D000010DD0FF0A06E13B
:102E00002051D008D8A002D0000105D02051D8B45C
:102E1000210720070001F3EC02F004014F510408E0
:102E2000D8A40ED10501A36B000155EC02F0050EEC
:102E300004016E6F1A0E6D6FD20EF66E020EF76EF3
:102E4000000153EC09F00501426B010EA36FA46F62
:102E5000050EA66F1A0EA56F010EA76FA86F0001D1
:102E60007FEC08F00501A36B220EA46F500EA56F36
:102E70002A0EA66F010EA76FA86F0001F8EC10F0E4
:102E8000050E04016E6F1A0E6D6FF40EF66E020ED3
:102E9000F76E000153EC09F0010E0501A36F190E46
:102EA000A46F050EA66F1A0EA56F010EA76FA86F6F
:102EB00000017FEC08F0050E04016E6F1A0E6D6FB5
:102EC000100EE96E21C4A4F520C4A3F500015AEC4C
:102ED00011F0320E0501A36F190EA46F050EA66F37
:102EE0001A0EA56F010EA76FA86F00017FEC08F006
:102EF000050E04016E6F1A0E6D6FFC0EF66E020E5B
:102F0000F76E000153EC09F0010E0501A36F230ECB
:102F1000A46F050EA66F1A0EA56F010EA76FA86B02
:102F200000017FEC08F0050E04016E6F1A0E6D6F44
:102F3000890EE96E25C4A6F524C4A5F523C4A4F51D
:102F400022C4A3F5020E0501A76F00012BEC07F0C8
:102F5000320E0501A36F230EA46F050EA66F1A0E85
:102F6000A56F010EA76FA86B00017FEC08F0968299
:102F700084B230D025C4A6F524C4A5F523C4A4F595
:102F800022C4A3F50501AA6BA96B700EA86F830E6E
:102F9000A76F000171EC06F01DE3D89225C4A6F5D9
:102FA00024C4A5F523C4A4F522C4A3F5CD0E0501C0
:102FB000AA6FCC0EA96F4C0EA86F7B0EA76F0001F5
:102FC00086EC04F003C025F402C024F401C023F40D
:102FD00000C022F4948482B430D00501A66BA56BA6
:102FE000200EA46F810EA36F25C4AAF524C4A9F5F1
:102FF00023C4A8F522C4A7F5000171EC06F01DE377
:10300000D88225C4A6F524C4A5F523C4A4F522C4FA
:10301000A3F5CD0E0501AA6FCC0EA96F4C0EA86FBB
:103020007B0EA76F000186EC04F003C025F402C0FC
:1030300024F401C023F400C022F4F3EC02F00401F4
:103040004F51030804E04F510408D8A46CD1080E76
:10305000016EC250C70B0110C26E1A0E006E002E18
:10306000FED70000456B446B4D6B4C6B4B6B4A6B52
:10307000496B486B010E4E6F4E51080814E3C28431
:10308000C2B4FED7C3CF4CF4C4CF4DF4040E050137
:10309000A36F0001BEEC01F004014C5144274D51D7
:1030A00045234E2BE9D74533443345334433453329
:1030B00044331F0E451745C4A4F544C4A3F50001CD
:1030C000F0EC03F000C0A3F501C0A4F502C0A5F523
:1030D00003C0A6F503C0B3F502C0B2F501C0B1F557
:1030E00000C0B0F5E60E0501B76F3F0EB66F1C0EBF
:1030F000B56F810EB46F00010BEC04F003C04BF40C
:1031000002C04AF401C049F400C048F421C4A4F547
:1031100020C4A3F5F0EC03F0D8824BC4A6F54AC452
:10312000A5F549C4A4F548C4A3F503C0AAF502C097
:10313000A9F501C0A8F500C0A7F586EC04F000C011
:10314000A3F501C0A4F502C0A5F503C0A6F503C010
:10315000AAF502C0A9F501C0A8F500C0A7F525C4CD
:10316000AEF524C4ADF523C4ACF522C4ABF5C2EC76
:1031700005F003C02DF402C02CF401C02BF400C0F4
:103180002AF404012E2BD89229C4A6F528C4A5F54B
:1031900027C4A4F526C4A3F52DC4AAF52CC4A9F50B
:1031A0002BC4A8F52AC4A7F5000186EC04F003C0DF
:1031B00029F402C028F401C027F400C026F4040159
:1031C0002E51090828E229C4AAF528C4A9F527C464
:1031D000A8F526C4A7F50501AE6BAD6B200EAC6F4C
:1031E000820EAB6F0001C2EC05F003C029F402C0EF
:1031F00028F401C027F400C026F429C41FF428C411
:103200001EF427C41DF426C41CF404012E6B296B84
:10321000286B276B266B050E6E6F430E6D6F890E44
:10322000E96E1FC4A6F51EC4A5F51DC4A4F51CC4F3
:10323000A3F5010E0501A76F00012BEC07F00501B6
:10324000A66BA56B480EA46F850EA36F1FC4AAF5CD
:103250001EC4A9F51DC4A8F51CC4A7F5000171EC96
:1032600006F001E204E10501496B410E486F1FC4FD
:10327000A6F51EC4A5F51DC4A4F51CC4A3F505013F
:10328000AA6BA96B480EA86F850EA76F000171ECA1
:1032900006F004E30501486B410E476F1FC4A6F515
:1032A0001EC4A5F51DC4A4F51CC4A3F50501AA6B95
:1032B000A96B200EA86F820EA76F000171EC06F0BB
:1032C00004E30501476B410E466F120E0501A36F23
:1032D0002D0EA46F050EA66F430EA56F010EA76FEE
:1032E000A86F00017FEC08F0050E04016E6F430E1D
:1032F0006D6F020EF66E030EF76E000153EC09F0CF
:103300000501466B010EA36F2D0EA46F050EA66F6F
:10331000430EA56F010EA76FA86F00017FEC08F0A8
:10332000F3EC02F004014F510508D8A4D4D00501F4
:10333000A36B000155EC02F0050E04016E6F4A0EFE
:103340006D6F060EF66E030EF76E000153EC09F07A
:103350000501726B010EA36FA46F050EA66F4A0ED6
:10336000A56F010EA76FA86F00017FEC08F00501A3
:10337000A36B180EA46F500EA56F200EA66F010E42
:10338000A76FA86F0001F8EC10F0050E04016E6F36
:103390004A0E6D6F280EF66E030EF76E000153ECA9
:1033A00009F0010E0501A36F190EA46F050EA66F9B
:1033B0004A0EA56F010EA76FA86B00017FEC08F005
:1033C000050E04016E6F4A0E6D6F100EE96E34C467
:1033D000A4F533C4A3F500015AEC11F0320E050137
:1033E000A36F190EA46F050EA66F4A0EA56F010EEE
:1033F000A76FA86B00017FEC08F0050E04016E6F4B
:103400004A0E6D6F300EF66E030EF76E000153EC30
:1034100009F0010E0501A36F230EA46F050EA66F20
:103420004A0EA56F010EA76FA86F00017FEC08F090
:10343000050E04016E6F4A0E6D6F890EE96E38C479
:10344000A6F537C4A5F536C4A4F535C4A3F5020E18
:103450000501A76F00012BEC07F0320E0501A36FE9
:10346000230EA46F050EA66F4A0EA56F010EA76F5F
:10347000A86F00017FEC08F0968284B212D004019C
:1034800034511308D8B002D000010BD006E13351FB
:103490008708D8B002D0000104D0332BD8B4342B25
:1034A0000001948482B414D0040134510608D8A0D9
:1034B00002D000010DD0FF0A06E13351D008D8A098
:1034C00002D0000105D03351D8B4340733070001CE
:1034D000F3EC02F004014F510608D8A40ED1050107
:1034E000A36B000155EC02F0050E04016E6F730E24
:1034F0006D6F360EF66E030EF76E000153EC09F099
:1035000005019B6B010EA36FA46F050EA66F730ED2
:10351000A56F010EA76FA86F00017FEC08F00501F1
:10352000A36B220EA46F500EA56F2A0EA66F010E7C
:10353000A76FA86F0001F8EC10F0050E04016E6F84
:10354000730E6D6F580EF66E030EF76E000153EC9E
:1035500009F0010E0501A36F190EA46F050EA66FE9
:10356000730EA56F010EA76FA86F00017FEC08F026
:10357000050E04016E6F730E6D6F100EE96E34C48C
:10358000A4F533C4A3F500015AEC11F0320E050185
:10359000A36F190EA46F050EA66F730EA56F010E13
:1035A000A76FA86F00017FEC08F0050E04016E6F95
:1035B000730E6D6F600EF66E030EF76E000153EC26
:1035C00009F0010E0501A36F230EA46F050EA66F6F
:1035D000730EA56F010EA76FA86B00017FEC08F0BA
:1035E000050E04016E6F730E6D6F890EE96E38C49F
:1035F000A6F537C4A5F536C4A4F535C4A3F5020E67
:103600000501A76F00012BEC07F0320E0501A36F37
:10361000230EA46F050EA66F730EA56F010EA76F84
:10362000A86B00017FEC08F0968284B230D038C4D9
:10363000A6F537C4A5F536C4A4F535C4A3F5050130
:10364000AA6BA96B700EA86F830EA76F000171ECB7
:1036500006F01DE3D89238C4A6F537C4A5F536C4E4
:10366000A4F535C4A3F5CD0E0501AA6FCC0EA96F44
:103670004C0EA86F7B0EA76F000186EC04F003C010
:1036800038F402C037F401C036F400C035F4948435
:1036900082B430D00501A66BA56B200EA46F810EFD
:1036A000A36F38C4AAF537C4A9F536C4A8F535C444
:1036B000A7F5000171EC06F01DE3D88238C4A6F529
:1036C00037C4A5F536C4A4F535C4A3F5CD0E050160
:1036D000AA6FCC0EA96F4C0EA86F7B0EA76F0001CE
:1036E00086EC04F003C038F402C037F401C036F4AD
:1036F00000C035F4F3EC02F004014F51050804E07A
:103700004F510608D8A46CD1100E016EC250C70BE1
:103710000110C26E1A0E006E002EFED70000476B1D
:10372000466B4D6B4C6B4B6B4A6B496B486B010E98
:103730004E6F4E51080814E3C284C2B4FED7C3CF03
:103740004CF4C4CF4DF4040E0501A36F0001BEEC90
:1037500001F004014C5146274D5147234E2BE9D728
:103760004733463347334633473346331F0E4717F5
:1037700047C4A4F546C4A3F50001F0EC03F000C073
:10378000A3F501C0A4F502C0A5F503C0A6F503C0CA
:10379000B3F502C0B2F501C0B1F500C0B0F5E60E58
:1037A0000501B76F3F0EB66F1C0EB56F810EB46F7B
:1037B00000010BEC04F003C04BF402C04AF401C05A
:1037C00049F400C048F434C4A4F533C4A3F5F0ECC4
:1037D00003F0D8824BC4A6F54AC4A5F549C4A4F5A4
:1037E00048C4A3F503C0AAF502C0A9F501C0A8F515
:1037F00000C0A7F586EC04F000C0A3F501C0A4F555
:1038000002C0A5F503C0A6F503C0AAF502C0A9F53C
:1038100001C0A8F500C0A7F538C4AEF537C4ADF5B2
:1038200036C4ACF535C4ABF5C2EC05F003C040F4CA
:1038300002C03FF401C03EF400C03DF40401412B3E
:10384000D8923CC4A6F53BC4A5F53AC4A4F539C446
:10385000A3F540C4AAF53FC4A9F53EC4A8F53DC4EC
:10386000A7F5000186EC04F003C03CF402C03BF471
:1038700001C03AF400C039F404014151090828E2BA
:103880003CC4AAF53BC4A9F53AC4A8F539C4A7F5C8
:103890000501AE6BAD6B200EAC6F820EAB6F0001FD
:1038A000C2EC05F003C03CF402C03BF401C03AF4A2
:1038B00000C039F43CC432F43BC431F43AC430F4AF
:1038C00039C42FF40401416B3C6B3B6B3A6B396B91
:1038D000050E6E6F9C0E6D6F890EE96E32C4A6F5F3
:1038E00031C4A5F530C4A4F52FC4A3F5010E05011C
:1038F000A76F00012BEC07F00501A66BA56B480E26
:10390000A46F850EA36F32C4AAF531C4A9F530C4E3
:10391000A8F52FC4A7F5000171EC06F001E204E15F
:103920000501A26B410EA16F32C4A6F531C4A5F505
:1039300030C4A4F52FC4A3F50501AA6BA96B480EEA
:10394000A86F850EA76F000171EC06F004E3050176
:10395000A16B410EA06F32C4A6F531C4A5F530C4E9
:10396000A4F52FC4A3F50501AA6BA96B200EA86FBF
:10397000820EA76F000171EC06F004E30501A06B55
:10398000410E9F6F120E0501A36F2D0EA46F050E41
:10399000A66F9C0EA56F010EA76FA86F00017FECAC
:1039A00008F0050E04016E6F9C0E6D6F660EF66ECC
:1039B000030EF76E000153EC09F005019F6B010E39
:1039C000A36F2D0EA46F050EA66F9C0EA56F010EA2
:1039D000A76FA86F00017FEC08F0F3EC02F0040180
:1039E000000192EF1EF00401505303E04F51000814
:1039F0003FE2958083B001D0076B958283B208D0F7
:103A0000958083A005D0085303E1010E076F082BB2
:103A1000072D09D094988B8895968C8695948C94D4
:103A2000052BD8B4062B5351055D0EE106530CE16E
:103A3000072D0AD094988B8895968C9695948C84B3
:103A4000020E076F066B056B0751020806E194989A
:103A50008B8895968C9695948C84075309E194985D
:103A60008B9895968C9695948C94066B056B086B49
:103A7000000193EF1EF00401746B745101082BE3F5
:103A800074517125756F040E776F720E766F7451D5
:103A90007625016E000E7721036E0150E96E03C09A
:103AA000EAFFEFCF76F475C4A9FF76C4A8FFA69C01
:103AB000A69EA684F250006EF29E0F01550EA76ED0
:103AC000AA0EA76EA682A6B2FED7A6940050F21246
:103AD0000401742BD2D700011200F86AD09EEA6A62
:103AE000E96A94948B840401066B056B076B086B81
:103AF0000C6B0B6B0A6B096B0E6B0D6B126B116B06
:103B0000106B0F6B166B156B146B136B1A6B196BB9
:103B1000186B176B1B6B1F6B1E6B1D6B1C6B216B6C
:103B2000206B256B246B236B226B296B286B276B17
:103B3000266B2D6B2C6B2B6B2A6B2E6B326B316BC8
:103B4000306B2F6B346B336B386B376B366B356B7D
:103B50003C6B3B6B3A6B396B406B3F6B3E6B3D6B29
:103B6000416B436B426B456B446B476B466B4B6BD6
:103B70004A6B496B486B4D6B4C6B4E6B4F6B506B8C
:103B8000516B526B596B586B5A6B5C6BDC0E5B6FF5
:103B9000606B5F6B5E6B5D6B646B636B626B616BC9
:103BA000686B676B666B656B696B6B6B6A6B6E6B77
:103BB0006D6BC180C182C184C196C190C192C18424
:103BC000C196C19CC28CC28EC18EC280000179EFA9
:103BD00003F00501A36B000155EC02F0F3EC02F0D9
:103BE0009D8AC00EF212F2CF6FF4F29E010EA96E02
:103BF000A69CA69EA680A85004016FBFF28E536FAC
:103C00000A0E6F6F0001C6EC03F002C00EF401C093
:103C10000DF4140E04016F6F0001C6EC03F002C036
:103C2000A4F501C0A3F5F0EC03F003C012F402C048
:103C300011F401C010F400C00FF41E0E04016F6FE8
:103C40000001C6EC03F002C021F401C020F4280EEC
:103C500004016F6F0001C6EC03F002C0A4F501C0BF
:103C6000A3F5F0EC03F003C025F402C024F401C076
:103C700023F400C022F4320E04016F6F0001C6EC81
:103C800003F002C034F401C033F43C0E04016F6F42
:103C90000001C6EC03F002C0A4F501C0A3F5F0ECEE
:103CA00003F003C038F402C037F401C036F400C09A
:103CB00035F4F2CF6FF4F29E020EA96EA69CA69E7A
:103CC000A680A85004016FBFF28E6C6F6C5321E088
:103CD000090E0E6FC40E0D6F126B116B200E106F5C
:103CE000820E0F6F090E216FBB0E206F256B246BA8
:103CF000200E236F820E226F090E346FB60E336FC3
:103D0000386B376B200E366F820E356F190E536F7E
:103D10006C6B000163EF09F0AEEF0EF0F3EC02F014
:103D2000D5EF11F060D6F2CF6FF4F29E010EA96EBE
:103D3000A69CA69EA680A85004016FBFF28E6B6B56
:103D40006A6F53516A5D02E16B5316E0010EA96E72
:103D500053C4A8FFA69CA69EA684F250006EF29EB5
:103D60000F01550EA76EAA0EA76EA682A6B2FED7A9
:103D7000A6940050F21204010A0E6F6F0001C6EC07
:103D800003F002C06BF401C06AF404010D516A5DD6
:103D900003E10E516B5D09E00A0E716F0EC473F4FE
:103DA0000DC472F4000167DE0401140E6F6F000190
:103DB000C6EC03F002C06BF401C06AF46BC4A4F556
:103DC0006AC4A3F5F0EC03F003C0A6F502C0A5F5A4
:103DD00001C0A4F500C0A3F512C4AAF511C4A9F549
:103DE00010C4A8F50FC4A7F571EC06F017E012C4D3
:103DF0007CF411C47BF410C47AF40FC479F4F3ECAE
:103E00000DF002C070F401C06FF4140E0401716F64
:103E100002C073F401C072F400012DDE1E0E040115
:103E20006F6F0001C6EC03F002C06BF401C06AF4CE
:103E3000040120516A5D03E121516B5D09E01E0E12
:103E4000716F21C473F420C472F4000114DE040104
:103E5000280E6F6F0001C6EC03F002C06BF401C0C6
:103E60006AF46BC4A4F56AC4A3F5F0EC03F003C0D4
:103E7000A6F502C0A5F501C0A4F500C0A3F525C4B0
:103E8000AAF524C4A9F523C4A8F522C4A7F571ECAA
:103E900006F017E025C47CF424C47BF423C47AF430
:103EA00022C479F4F3EC0DF002C070F401C06FF499
:103EB000280E0401716F02C073F401C072F4000196
:103EC000DADD320E04016F6F0001C6EC03F002C0B0
:103ED0006BF401C06AF4040133516A5D03E13451AB
:103EE0006B5D09E0320E716F34C473F433C472F445
:103EF0000001C1DD04013C0E6F6F0001C6EC03F050
:103F000002C06BF401C06AF46BC4A4F56AC4A3F5E3
:103F1000F0EC03F003C0A6F502C0A5F501C0A4F5BE
:103F200000C0A3F538C4AAF537C4A9F536C4A8F56E
:103F300035C4A7F571EC06F017E038C47CF437C43B
:103F40007BF436C47AF435C479F4F3EC0DF002C096
:103F500070F401C06FF43C0E0401716F02C073F481
:103F600001C072F4000187DDF2CF6FF4F29E020E01
:103F7000A96EA69CA69EA680A85004016FBFF28ED3
:103F80006B6B6A6F6C516A5D02E16B5316E0020E57
:103F9000A96E6CC4A8FFA69CA69EA684F250006ED3
:103FA000F29E0F01550EA76EAA0EA76EA682A6B2AC
:0E3FB000FED7A6940050F2120401ABD6030017
:020000040030CA
:0E00000000220C0E0001810000C00FE00F4036
:00000001FF
;PIC18F452
;CRC=8A76  CREATED="29-mai-20 20:45"
