:10000000E1EF1FF0F76A140FF66E000EF7220900F9
:10001000F5501200000000000000005F0000000327
:10002000000300143E143E14242A7F2A124333088E
:10003000666136495522500005030000001C22412C
:10004000000041221C0014083E081408083E08085D
:100050000050300000080808080800606000002018
:10006000100804023E5149453E0004027F004261EF
:1000700051494622414949361814127F10274545F7
:1000800045393E4949493201017109073649494913
:1000900036264949493E00363600000056360000F3
:1000A00008142241001414141414004122140802EC
:1000B000015109063E4159555E7E0909097E7F4975
:1000C0004949363E414141227F4141413E7F4949B4
:1000D00049417F090909013E4141493A7F08080821
:1000E0007F00417F4100304040403F7F0814224163
:1000F0007F404040407F020C027F7F0204087F3E29
:100100004141413E7F090909061E2121215E7F09E7
:1001100009097600F76A240FF66E010EF72209002E
:10012000F5501200264949493201017F01013F4043
:1001300040403F1F2040201F7F2010207F41221C75
:10014000224107087008076151494543007F41007B
:100150000002040810200000417F00040201020494
:100160004040404040000102040020545454787F35
:10017000444444383844444444384444447F385424
:1001800054541804047E0505085454543C7F080454
:10019000047800447D40002040443D007F10284406
:1001A0000000417F40007C047804787C08040478D7
:1001B00038444444387C14141408081414147C0083
:1001C0007C080404485454542004043F44443C40F4
:1001D00040207C1C2040201C3C4030403C442810E7
:1001E00028440C5050503C4464544C440008364160
:1001F0004100007F00004141360800020102040274
:100200004C313A004C323A004C333A00446566694E
:100210006E61206F2074656D706F20646F202020E8
:100220002045737472656C61202F20547269616E71
:1002300067756C6F000054656D706F3A00004D6F0C
:10024000646F206465206C6967616D656E746F0012
:100250005469706F3A0050756C736F004469726531
:10026000746F000050756C736F73204F4E3A00002E
:1002700050756C736F73204F46463A005175616E2E
:100280007469646164653A0043616C6962726163B8
:10029000616F2020202020202020202020646F203B
:1002A00053656E736F72204C31004F6666736574D0
:1002B0003A005265663A000043616C69627261639C
:1002C000616F2020202020202020202020646F200B
:1002D00053656E736F72204C31004F6666736574A0
:1002E0003A005265663A00004C313A0043616C694D
:1002F00062726163616F2020202020202020202056
:1003000020646F2053656E736F72204C32004F660D
:10031000667365743A005265663A000043616C6921
:1003200062726163616F2020202020202020202025
:1003300020646F2053656E736F72204C32004F66DD
:10034000667365743A005265663A00004C323A00B2
:1003500043616C6962726163616F202020202020FC
:100360002020202020646F2053656E736F72204C14
:1003700033004F66667365743A005265663A000052
:1003800043616C6962726163616F202020202020CC
:100390002020202020646F2053656E736F72204CE4
:1003A00033004F66667365743A005265663A000022
:1003B0004C333A0050285265616C293D00005028AA
:1003C0004850293D0000050EEA6ED70EE96EEF5049
:1003D0000EE0050E016E006A002EFED7012EFBD73F
:1003E0002E0E006E002EFED700D0EF2EF2D7120098
:1003F0000501DD8193948A9493968A86DDA109D0C4
:1004000093988A88958E83BE01D0DD9193988A98BF
:10041000F5D700011200ECDF93948A9493968A96A4
:10042000060E006E002EFED700000501DABF02D0D6
:100430008C9E01D08C8E959EDABD02D08C9C01D012
:100440008C8C959CDABB02D08C9A01D08C8A959AC0
:10045000DAB902D08C9801D08C889598060E006E7F
:10046000002EFED7000093988A88060E006E002E9C
:10047000FED7000093988A98060E006E002EFED7D5
:100480000000DAB702D08C9E01D08C8E959EDAB532
:1004900002D08C9C01D08C8C959CDAB302D08C9AC3
:1004A00001D08C8A959ADAB102D08C9801D08C88D0
:1004B0009598060E006E002EFED7000093988A884D
:1004C000060E006E002EFED7000093988A98000159
:1004D00012000501F851FA03F3CF01F0F4CF00F058
:1004E000FB03F3500026F951FA03F3500020026E8B
:1004F000000112000501D72D03D00368FF0E02D0C2
:10050000036A000EDA6F03C0DBF5D86BD8513F08E1
:100510002EE3D96BD951070828E3F96BD8C5F8F554
:10052000FB6B100EFA6F0001D4DF02C003F0015024
:10053000010F0501DC6F000E0220DD6F036AD9C5D3
:1005400002F0D890023603360250DC270350DD2338
:10055000040EDC25E96E000EDD21EA6EDBC5ECFF42
:10056000ED52DAC5EFFFD92BD5D7D82BCFD70480E2
:10057000000112003DDF93948A8493968A96060EBA
:10058000006E002EFED700000501DCBF02D08C9E5D
:1005900001D08C8E959EDCBD02D08C9C01D08C8CC1
:1005A000959CDCBB02D08C9A01D08C8A959ADCB9E0
:1005B00002D08C9801D08C889598060E006E002E83
:1005C000FED7000093988A88060E006E002EFED794
:1005D000000093988A98060E006E002EFED7000049
:1005E000DCB702D08C9E01D08C8E959EDCB502D0FB
:1005F0008C9C01D08C8C959CDCB302D08C9A01D061
:100600008C8A959ADCB102D08C9801D08C88959810
:10061000060E006E002EFED7000093988A88060E04
:10062000006E002EFED7000093988A9800011200F9
:1006300004A083D00501D76BD7513F08D8A07BD049
:10064000D7511F080DE3D7518009D96FDA6F000128
:10065000E2DE800E0501DA6F0001DDDE0DD005015E
:10066000200ED75D8009D96FDA6F0001D4DE880EC5
:100670000501DA6F0001CFDE0501D86BD8510708FC
:1006800058E3F96BD7C5F8F5FB6B100EFA6F000154
:1006900020DF02C003F00150010F0501D96F000EE9
:1006A0000220DA6F036AD8C502F0D890023603360A
:1006B0000250D9270350DA23010ED925016E000E0E
:1006C000DA21036E0150040FE96E000E0320EA6E7A
:1006D000EFCFD9F5D9C5DCF500014CDF0501F96B89
:1006E000D7C5F8F5FB6B100EFA6F0001F2DE02C001
:1006F00003F00150010F0501D96F000E0220DA6FDF
:10070000036AD8C502F0D890023603360250D927C2
:100710000350DA23040ED925E96E000EDA21EA6EC1
:10072000EFCFDBF5DBC5DCF5000124DF0501D82BBD
:10073000A5D7D72B81D7049000011200280E050100
:10074000D76F000140DE939A8A9A00D000D0939A26
:100750008A8A200E0501DA6F00015DDEBF0E006E91
:10076000002EFED700D00C0E0501DA6F000153DE1B
:10077000850E006E002EFED7010E0501DA6F000116
:100780004ADE0A0E0501D76F00011DDE060E0501C7
:10079000DA6F000140DE5F0E006E002EFED700D043
:1007A000240E0501DA6F000136DE5F0E006E002EAA
:1007B000FED700D0260E0501DA6F00012CDE5F0E99
:1007C000006E002EFED700D00501D76B000192DE2F
:1007D0002FDF6BEF20F004017B6B7B5101081FE3DF
:1007E000040E7F6F7C0E7E6F7B517E25016E000EA6
:1007F0007F21036E0150E96E03C0EAFF7B517A2529
:10080000806FF2CF81F4F29E80C4A9FFA69CA69EC1
:10081000A680A85081BFF28EEF6E7B2BDED77CC402
:1008200001F07DC402F0000112008E0E006ED8C5EA
:1008300001F0D7C502F0036A015209E102C001F0DC
:10084000026A080E005E015202E1006A08D0D890E8
:1008500001BE04D0023601360006F9D7019E12000F
:100860000501E451D8B471D0006EE851D8B46DD010
:10087000002604E3810E002668E204D07F0E005EAD
:1008800064E363E0E5C5ECF5E951EC1BE58FE98F26
:10089000E751EB03F4CFEEF5E651EA03F4CF03F0B2
:1008A000F3CFEDF5EB03F350EE27F450ED23000EFC
:1008B0000322E751EA03F350EE27F450ED23000E34
:1008C000026A03220222E551EB03F350ED27F450B4
:1008D0000322000E0222E551EA03F3500326F450EE
:1008E0000222000E016A0122E751E903F350ED27CD
:1008F000F4500322000E02220122E651E903F350D4
:100900000326F4500222000E0122E551E903F350C0
:100910000226F4500122002A01BE05D0ED3703362D
:10092000023601360006000EEDAF0AD0032A02227D
:100930000122015005E1025003E1035001E1002AC8
:10094000ECBF018EECAF019E04D0006A016A026A1E
:10095000036A00011200800ED8A202D00501DC1B40
:100960000501E16BE26BD8C5E0F5DC51E01BD75126
:10097000D8B4DFD0DF6F006EDB51D8B4E3D0DF5FD7
:10098000D8B483D03EE3DCC5E5F5E58FDDC5E4F5FD
:10099000DEC5E3F5E26BD890E533E433E333E233CD
:1009A000DF2FF8D7E0AF03D0E181E0D0E191DF9114
:1009B000E189050EEA6EDA0EE96EEBD0E199E0BF4F
:1009C0000AD0DFA113D0E533E433E333E233002A66
:1009D000D8B4C7D00BD0E5BF0CD0D890E237E337FE
:1009E000E437E5370006D8B4BCD0F5D7E18D6DD03B
:1009F000E19DD8C5E0F5D8AF02D0E58FABD0E59F3B
:100A0000A9D0DBC5DFF5DBC500F0D751DF5FD8C566
:100A1000E5F5E58FD9C5E4F5DAC5E3F5E26BD890E5
:100A2000E533E433E333E233DF2FF8D7E0AF03D02D
:100A3000E1839CD0E193DF91E18B050EEA6EDE0E3F
:100A4000E96EA7D0E19BE0BF0AD0DFA113D0E53368
:100A5000E433E333E233002AD8B483D00BD0E5BFCC
:100A60000CD0D890E237E337E437E5370006D8B446
:100A700078D0F5D7E18F29D0E19FDCC5E0F5DCAF78
:100A800002D0E58F67D0E59F65D0DCC5E5F5E58F41
:100A9000DDC5E4F5DEC5E3F5E0AF04D0E59FE18513
:100AA00065D0E195E26BDF91050EEA6EDA0EE96E34
:100AB00070D0E0BF1CD0D8C5E0F5DFA106D0E5338B
:100AC000E433E333E233002A4CE0E2AF0BD0E32B14
:100AD00009E1E42B07E1E52B05E1E533E433E333FA
:100AE000002A3FE0E1BD84D7E1BFC6D71CD0800E0D
:100AF000E51BE5AF04D03AD0DCC5E0F50AD0D8C597
:100B0000E0F5E55306E1E45304E1E35302E1006A52
:100B100021D0E5BF08D0D890E237E337E437E53796
:100B2000002EF7D71ED0E0AF02D0E58F13D0E59F9F
:100B300011D0DBC500F0DCC5E5F5DDC5E4F5DEC5AB
:100B4000E3F508D0D7C500F0D8C5E5F5D9C5E4F57B
:100B5000DAC5E3F5E5C501F0E4C502F0E3C503F04D
:100B600034D0006A016A026A036A2FD0E26BE31F85
:100B7000E41FE51FE21FE22B05E1E32B03E1E42B79
:100B800001E1E52BE1B112D7E1B354D7E1B589D743
:100B9000B3D7EF50E32705E3E42B03E1E52BD8B40B
:100BA000DF81ED52EF50E42703E3E52BD8B4DF817A
:100BB000ED52EF50EFBE01D0800AE527D8B0DF81BB
:100BC000E1B9FCD6E1BB3ED774D7000112000501A4
:100BD000DB51D8B4A5D0E76FDF51D8B4A1D0E75F1F
:100BE00005E37F0EE727D8B09BD006D0810EE75FE4
:100BF000D8A096D0D8B494D0E7C500F0016A026AB4
:100C0000036AE66BDCC5E5F5E58FDDC5E4F5DEC519
:100C1000E3F5190EE76FE251E35F0DE2010EE45FC9
:100C20000AE2E55F08E2E65F06E2E62BE52BE42B4D
:100C3000E251E32728D0E151E45F12E2010EE55FC3
:100C40000FE2E65F0DE2E62BE52BE151E427E251EE
:100C5000E32719E3E42B17E1E52B15E1E62B13D08D
:100C6000E0518009E55F0EE2010EE65F0BE2E62B44
:100C7000E0518009E527E151E427E9E3E52BE7E1CD
:100C8000E62BE5D70380E72F01D00BD0D890E337D0
:100C9000E437E537E637D890033602360136E837D1
:100CA000BAD7E8A106D0D890013202320332E83335
:100CB00002D0000635E0E8BF1ED0D890E337E43715
:100CC000E537E637E251E35F07E2010EE45F04E255
:100CD000E55F02E2E65F1AE3E151E45F05E2010E3F
:100CE000E55F02E2E65F12E3E0518009E55F03E2BF
:100CF000010EE65F0BE3032A09E1022A07E1012A5C
:100D000005E1002A0DE0013202320332DCC5E7F5CD
:100D1000E051E71BE7AF02D0018E06D0019E04D060
:100D2000006A016A026A036A00011200D8C5DFF591
:100D30000501DC51DF1BDFAF05D0D894D890D8BFB8
:100D4000D8802FD0D8C5DFF5DBC5E0F5D751E05FFF
:100D500006E0DFAF26D0D850010AD86E22D0DCC51D
:100D6000E0F5D851E05F06E0DFAF1BD0D850010AB4
:100D7000D86E17D0DDC5E0F5D951E05F06E0DFAFF2
:100D800010D0D850010AD86E0CD0DEC5E0F5DA518B
:100D9000E05F06E0DFAF05D0D850010AD86E01D081
:100DA000D890000112000501E451B608E46F036A0F
:100DB000E5C5E8F5E58FD890E533E633E733033250
:100DC000023201320032E42FF6D7E8AF0BD0001E1A
:100DD000011E021E031E002AD8B4012AD8B4022A1A
:100DE000D8B4032A00017BEF07F0D8B204D0050E77
:100DF000EA6EEC0EE96E006A016A026A036A050196
:100E0000EC6BED6BEE6BEF6BEB51EA11E911E81156
:100E10002CE0200EF06FD890E437E537E637E7375F
:100E2000EC37ED37EE37EF37EB51EF5D08E1EA5184
:100E3000EE5D05E1E951ED5D02E1E851EC5D0FE3A6
:100E4000E851EC5FE951D8A0E93DED5FEA51D8A047
:100E5000EA3DEE5FEB51D8A0EB3DEF5FD880003666
:100E6000013602360336F02FD6D7ECC5EFFFEDC5BD
:100E7000ECFFEEC5ECFFEFC5ECFF0001120079C4FA
:100E8000EAFF78C4E9FF0501E4C5EFFFE92AD8B419
:100E9000EA2AEF6A0401782BD8B4792B00011200FA
:100EA000E9500501DC6FDB51DE6F1BE0DAC5E7F5C9
:100EB000D9C5E6F5D8C5E5F5D7C5E4F5EB6BEA6B22
:100EC000200EE96F820EE86F0001CADC03C0DAF57C
:100ED00002C0D9F501C0D8F500C0D7F50501DE2F55
:100EE000E5D7DAC5E7F5D9C5E6F5D8C5E5F5D7C53F
:100EF000E4F5000158D703C0DAF502C0D9F501C006
:100F0000D8F500C0D7F50501DAAF0DD0DC07DC8BD2
:100F1000D71FD81FD91FDA1FD72BD8B4D82BD8B4D6
:100F2000D92BD8B4DA2B3B0EE36F9A0EE26FCA0EC0
:100F3000E16FE06B0A0EDE6FDB51D8B4DC2BD88298
:100F4000050EEA6ED70EE96EDAC5E7F5D9C5E6F506
:100F5000D8C5E5F5D7C5E4F5E3C5EBF5E2C5EAF597
:100F6000E1C5E9F5E0C5E8F500013FDF01500052B9
:100F700013E10501DB29DE5DD8A402D000010CD00D
:100F8000DC510DE00F0BDE5D01E040E2DCBF3ED046
:100F9000DCBD05D0200E34D0200E0501DC17DCAB03
:100FA0000ED0DC9BDB51D8A4DC070050DC6F2D0E8B
:100FB000E46F000164DF0501DC51006EDC6BDB5186
:100FC000DE5D0CE10050DC6F2E0EE46F000157DF98
:100FD0000501DC51006E200EDC17000E300EDCAB7C
:100FE0000FD0DC9BDB51D8A4DC070050DC6F2D0E4A
:100FF000E46F000144DF0501DC51006EDC6B300E54
:10100000002600C0E4F500013ADF0501D892E3C5EF
:10101000E7F5E2C5E6F5E1C5E5F5E0C5E4F5EB6B1E
:10102000EA6BE96B0A0EE86F0001DFDE03C0E3F54F
:1010300002C0E2F501C0E1F500C0E0F50501DE2FD8
:101040007ED700011200F3C5F5F50501F239F66F00
:101050000F0EF617F2510F0BFF0A100FF76FF42D5A
:1010600036D0F96BF5C5F8F5FB6B100EFA6F000181
:1010700069EC02F002C003F00150010F0501F86FA6
:10108000000E0220F96F036AF6C502F0D89002360E
:1010900003360250F8270350F923040EF825016E99
:1010A000000EF921036E01C0E9FFEA6E036A010E2A
:1010B000026EF751006E05E0D89002360336002E1E
:1010C000FBD70250EF120350EC10EF6E3AD0F96BE1
:1010D000F5C5F8F5FB6B100EFA6F000169EC02F034
:1010E00002C003F00150010F0501F86F000E02204D
:1010F000F96F036AF6C502F0D89002360336025043
:10110000F8270350F923040EF825016E000EF9218B
:10111000036E01C0E9FFEA6E036A010E026EF75129
:10112000006E05E0D89002360336002EFBD7025041
:10113000FF0A006EFF0E031A0050EF160350EC1466
:10114000EF6E048000011200DAC503F00501D9C575
:10115000E9FFDAC5EAFFEF52D8B4C8D0DAC503F028
:10116000D9C5E9FFDAC5EAFFEF50520822E3DAC534
:1011700003F0D9C5E9FFDAC5EAFF200EEF5C050DE3
:10118000F350036AE66F050EEA6EE10EE96EEA6B54
:10119000E6C5E9F5050E016EF76AE651000102ECBD
:1011A00000F00A000900F5CFEEFF012EFBD732D088
:1011B0000501DAC503F0D9C5E9FFDAC5EAFFEF504A
:1011C0007E0822E3DAC503F0D9C5E9FFDAC5EAFFF4
:1011D000530EEF5C050DF350036AE66F050EEA6EE1
:1011E000E10EE96EEA6BE6C5E9F5050E016EF76AF8
:1011F000E65100018AEC00F00A000900F5CFEEFF8D
:10120000012EFBD707D00501E16BE26BE36BE46BCA
:10121000E56B0001DAC503F00501D951E96E03C0A1
:10122000EAFFEF500A0A000103E0070A09E00BD0C9
:101230000501DB51070DF350010FD82750D00001F5
:101240000501D76B4CD00501DB51050DF350D725B7
:101250007F0806E2D76BDB51070DF350010FD8274B
:10126000DD6BDD5104083BE3DE6BDE51060833E342
:10127000036ADD51E10FE96E050E0320EA6EEFCF40
:10128000E6F5E6C500F0DE51016E04E0D8900032CC
:10129000012EFCD700A01DD0DF6BDB51DF5D19E212
:1012A000E06BDB51E05D13E2E051D725E66FDE51E4
:1012B000DB03F350D825DF25E76FE6C5F2F5F36FC2
:1012C000DCC5F4F50001BFDE0501E02BEAD7DF2B1A
:1012D000E4D7DE2BCAD7DD2BDB51D727C2D7D92BDA
:1012E000D8B4DA2BD72B00012FD70501000112004B
:1012F0000900F5520CE0F6CFD7F5F7CFD8F5F5CFCA
:10130000E4F5BDDDD7C5F6FFD8C5F7FFF1D712006C
:1013100004015A53D8A415EF0EF05B53D8A415EF6F
:101320000EF00501D76B00017AEC02F0000E016EA1
:10133000C250C70B0110C26E1A0E006E002EFED7EF
:10134000000004014E6B4D6B586B576B566B556B21
:10135000546B536B010E596F5951080814E3C28442
:10136000C2B4FED7C3CF57F4C4CF58F4040E05015E
:10137000D76F0001E3EC01F0040157514D2758519C
:101380004E23592BE9D74E334D334E334D334E3325
:101390004D331F0E4E174EC4D8F54DC4D7F500017E
:1013A00015EC04F000C081F401C082F402C083F4A3
:1013B00003C084F403C0E7F502C0E6F501C0E5F51B
:1013C00000C0E4F5E60E0501EB6F3F0EEA6F1C0E60
:1013D000E96F810EE86F000130EC04F003C056F4B1
:1013E00002C055F401C054F400C053F419C4D8F538
:1013F00018C4D7F515EC04F0D88256C4DAF555C4F4
:10140000D9F554C4D8F553C4D7F503C0DEF502C0EE
:10141000DDF501C0DCF500C0DBF5ABEC04F000C08D
:1014200081F401C082F402C083F403C084F403C0D9
:10143000DEF502C0DDF501C0DCF500C0DBF51DC442
:10144000E2F51CC4E1F51BC4E0F51AC4DFF5E7ECD6
:1014500005F003C025F402C024F401C023F400C049
:1014600022F40401262BD89221C4DAF520C4D9F540
:101470001FC4D8F51EC4D7F525C4DEF524C4DDF598
:1014800023C4DCF522C4DBF50001ABEC04F003C09F
:1014900021F402C020F401C01FF400C01EF40401B6
:1014A0002651090828E221C4DEF520C4DDF51FC459
:1014B000DCF51EC4DBF50501E26BE16B200EE06F8D
:1014C000820EDF6F0001E7EC05F003C021F402C0DB
:1014D00020F401C01FF400C01EF421C417F420C47E
:1014E00016F41FC415F41EC414F40401266B216BFA
:1014F000206B1F6B1E6B17C4DAF516C4D9F515C423
:10150000D8F514C4D7F50501DE6BDD6BDC6BDB6B46
:1015100000010CDC06E30401176B166B156B146BF2
:101520000001040E0401796F7A0E786F890EE96E5E
:1015300017C4DAF516C4D9F515C4D8F514C4D7F50F
:10154000010E0501DB6F0001ABDC0501DA6BD96B25
:10155000480ED86F850ED76F17C4DEF516C4DDF5BB
:1015600015C4DCF514C4DBF5000196EC06F001E2CD
:1015700004E10401806B410E7F6F17C4DAF516C4D5
:10158000D9F515C4D8F514C4D7F50501DE6BDD6BAC
:10159000480EDC6F850EDB6F000196EC06F004E36D
:1015A00004017F6B410E7E6F17C4DAF516C4D9F5BE
:1015B00015C4D8F514C4D7F50501DE6BDD6B200E1C
:1015C000DC6F820EDB6F000196EC06F004E3040191
:1015D0007E6B410E7D6F120E0501D76F010ED86F25
:1015E000040EDA6F7A0ED96F010EDB6FDC6F00012B
:1015F000ABDD040E0401796F7A0E786F000EF66E83
:10160000020EF76E000174DE04017D6B010E050110
:10161000D76FD86F040EDA6F7A0ED96F010EDB6FB9
:10162000DC6F000191DD080E016EC250C70B011086
:10163000C26E1A0E006E002EFED700000401506B21
:101640004F6B586B576B566B556B546B536B010E4E
:10165000596F5951080814E3C284C2B4FED7C3CFEE
:1016600057F4C4CF58F4040E0501D76F0001E3EC22
:1016700001F0040157514F2758515023592BE9D7F6
:1016800050334F3350334F3350334F331F0E5017B7
:1016900050C4D8F54FC4D7F5000115EC04F000C0D4
:1016A00081F401C082F402C083F403C084F403C057
:1016B000E7F502C0E6F501C0E5F500C0E4F5E60E89
:1016C0000501EB6F3F0EEA6F1C0EE96F810EE86FAC
:1016D000000130EC04F003C056F402C055F401C020
:1016E00054F400C053F42CC4D8F52BC4D7F515EC32
:1016F00004F0D88256C4DAF555C4D9F554C4D8F5E7
:1017000053C4D7F503C0DEF502C0DDF501C0DCF53A
:1017100000C0DBF5ABEC04F000C081F401C082F442
:1017200002C083F403C084F403C0DEF502C0DDF51B
:1017300001C0DCF500C0DBF530C4E2F52FC4E1F5F3
:101740002EC4E0F52DC4DFF5E7EC05F003C038F456
:1017500002C037F401C036F400C035F40401392B5F
:10176000D89234C4DAF533C4D9F532C4D8F531C4CB
:10177000D7F538C4DEF537C4DDF536C4DCF535C43D
:10178000DBF50001ABEC04F003C034F402C033F429
:1017900001C032F400C031F404013951090828E2D3
:1017A00034C4DEF533C4DDF532C4DCF531C4DBF519
:1017B0000501E26BE16B200EE06F820EDF6F00012E
:1017C000E7EC05F003C034F402C033F401C032F496
:1017D00000C031F434C42AF433C429F432C428F4E8
:1017E00031C427F40401396B346B336B326B316BCA
:1017F0002AC4DAF529C4D9F528C4D8F527C4D7F501
:101800000501DE6BDD6BDC6BDB6B000196EC06F03B
:1018100005E304012A6B296B286B276B040E040176
:10182000796F7A0E786F890EE96E2AC4DAF529C4C9
:10183000D9F528C4D8F527C4D7F5010E0501DB6F0B
:10184000000150EC07F00501DA6BD96B480ED86F38
:10185000850ED76F2AC4DEF529C4DDF528C4DCF572
:1018600027C4DBF5000196EC06F001E204E1040177
:10187000806B410E7F6F2AC4DAF529C4D9F528C4DC
:10188000D8F527C4D7F50501DE6BDD6B480EDC6F9C
:10189000850EDB6F000196EC06F004E304017F6B1C
:1018A000410E7E6F2AC4DAF529C4D9F528C4D8F5CB
:1018B00027C4D7F50501DE6BDD6B200EDC6F820ED1
:1018C000DB6F000196EC06F004E304017E6B410E31
:1018D0007D6F120E0501D76F0A0ED86F040EDA6FF6
:1018E0007A0ED96F010EDB6FDC6F00012DDC040E68
:1018F0000401796F7A0E786F040EF66E020EF76EA1
:101900000001F6DC04017D6B010E0501D76F0A0EA4
:10191000D86F040EDA6F7A0ED96F010EDB6FDC6FB1
:10192000000112DC100E016EC250C70B0110C26E16
:101930001A0E006E002EFED700000401526B516B90
:10194000586B576B566B556B546B536B010E596F3D
:101950005951080814E3C284C2B4FED7C3CF57F468
:10196000C4CF58F4040E0501D76F0001E3EC01F079
:1019700004015751512758515223592BE9D752335B
:10198000513352335133523351331F0E521752C415
:10199000D8F551C4D7F5000115EC04F000C081F46E
:1019A00001C082F402C083F403C084F403C0E7F5ED
:1019B00002C0E6F501C0E5F500C0E4F5E60E05015C
:1019C000EB6F3F0EEA6F1C0EE96F810EE86F0001AE
:1019D00030EC04F003C056F402C055F401C054F4D6
:1019E00000C053F43FC4D8F53EC4D7F515EC04F05D
:1019F000D88256C4DAF555C4D9F554C4D8F553C4C1
:101A0000D7F503C0DEF502C0DDF501C0DCF500C08E
:101A1000DBF5ABEC04F000C081F401C082F402C03D
:101A200083F403C084F403C0DEF502C0DDF501C019
:101A3000DCF500C0DBF543C4E2F542C4E1F541C486
:101A4000E0F540C4DFF5E7EC05F003C04BF402C05D
:101A50004AF401C049F400C048F404014C2BD89268
:101A600047C4DAF546C4D9F545C4D8F544C4D7F51A
:101A70004BC4DEF54AC4DDF549C4DCF548C4DBF5EA
:101A80000001ABEC04F003C047F402C046F401C00F
:101A900045F400C044F404014C51090828E247C44D
:101AA000DEF546C4DDF545C4DCF544C4DBF50501CF
:101AB000E26BE16B200EE06F820EDF6F0001E7EC5E
:101AC00005F003C047F402C046F401C045F400C06D
:101AD00044F447C43DF446C43CF445C43BF444C418
:101AE0003AF404014C6B476B466B456B446B3DC449
:101AF000DAF53CC4D9F53BC4D8F53AC4D7F50501AD
:101B0000DE6BDD6BDC6BDB6B000196EC06F005E356
:101B100004013D6B3C6B3B6B3A6B040E0401796F27
:101B20007A0E786F890EE96E3DC4DAF53CC4D9F5BA
:101B30003BC4D8F53AC4D7F5010E0501DB6F0001AF
:101B400050EC07F00501DA6BD96B480ED86F850EA3
:101B5000D76F3DC4DEF53CC4DDF53BC4DCF53AC4CB
:101B6000DBF5000196EC06F001E204E10401806B74
:101B7000410E7F6F3DC4DAF53CC4D9F53BC4D8F5BE
:101B80003AC4D7F50501DE6BDD6B480EDC6F850EC0
:101B9000DB6F000196EC06F004E304017F6B410E5D
:101BA0007E6F3DC4DAF53CC4D9F53BC4D8F53AC4E0
:101BB000D7F50501DE6BDD6B200EDC6F820EDB6F6F
:101BC000000196EC06F004E304017E6B410E7D6F8C
:101BD000120E0501D76F130ED86F040EDA6F7A0E4E
:101BE000D96F010EDB6FDC6F0001A4EC08F0040E6E
:101BF0000401796F7A0E786F080EF66E020EF76E9A
:101C0000000178EC09F004017D6B010E0501D76F2E
:101C1000130ED86F040EDA6F7A0ED96F010EDB6FD8
:101C2000DC6F0001A4EC08F00401000114EF21F0C6
:101C30008E0E006E04018451005E85C402F086C4DD
:101C400001F0028E005209E0D890025202E10152E6
:101C500004E002320132002EF7D785AF05D0011E15
:101C6000021E012AD8B4022A00011200016A026A87
:101C7000006A036A0401875102E1865118E0100EE0
:101C8000886FD89084378537003603368751035CD8
:101C900002E18651005C07E38651005ED8A003068E
:101CA0008751035ED88001360236882FEAD70001BB
:101CB00060EF10F00501DE51016ADD5D03E2DDC574
:101CC00000F00CD0006A080EDF6FDD370036DE5101
:101CD000005CD8B0006E0136DF2FF7D7000112008C
:101CE000200E0501D8A9300ED96FD7C500F0D7AFA7
:101CF00008D0001E002A00C0D7F52D0ED96FD88F4E
:101D0000D8810150D7C5DDF5640EDE6F0001D2DF4A
:101D100000C0D7F5300E01240501DA6FD7C5DDF517
:101D20000A0EDE6F0001C6DF300E00240501DC6FF5
:101D3000300E0124DB6FD9C500F0300EDA5D04E00F
:101D4000D883D8BFD88512D0D9C5DAF5200ED96F7F
:101D5000300EDB5D04E0D881D8BFD88307D0D8A48B
:101D6000D88104E1DAC5DBF5200EDA6FD8B505D0ED
:101D7000D8B308D0D8B10BD00FD0D9C5E4F5000145
:101D80003FEC07F0DAC5E4F500013FEC07F0DBC5F6
:101D9000E4F500013FEC07F0DCC5E4F500013FECA1
:101DA00007F0120004015A53D8A4DDD15B53D8A424
:101DB000DAD16B6B6A6B696B686BD89217C4DAF512
:101DC00016C4D9F515C4D8F514C4D7F52AC4DEF560
:101DD00029C4DDF528C4DCF527C4DBF50001ABEC34
:101DE00004F000C084F401C085F402C086F403C08E
:101DF00087F4D89203C0DAF502C0D9F501C0D8F54E
:101E000000C0D7F53DC4DEF53CC4DDF53BC4DCF5D0
:101E10003AC4DBF5ABEC04F003C06BF402C06AF427
:101E200001C069F400C068F46BC4DEF56AC4DDF576
:101E300069C4DCF568C4DBF50501E26BE16B400EBB
:101E4000E06F800EDF6F0001E7EC05F003C06BF47C
:101E500002C06AF401C069F400C068F40401742B84
:101E6000D8926FC4DAF56EC4D9F56DC4D8F56CC4D8
:101E7000D7F56BC4DEF56AC4DDF569C4DCF568C46A
:101E8000DBF50001ABEC04F003C06FF402C06EF4AC
:101E900001C06DF400C06CF4040174510A0828E11B
:101EA0006FC4DEF56EC4DDF56DC4DCF56CC4DBF526
:101EB0000501E26BE16B200EE06F820EDF6F000127
:101EC000E7EC05F003C06FF402C06EF401C06DF4DE
:101ED00000C06CF46FC473F46EC472F46DC471F41A
:101EE0006CC470F40401746B6F6B6E6B6D6B6C6B18
:101EF00067C4D8F566C4D7F5000115EC04F003C03B
:101F0000E7F502C0E6F501C0E5F500C0E4F56BC4F5
:101F1000EBF56AC4EAF569C4E9F568C4E8F530ECA4
:101F200004F000C084F401C085F402C086F403C04C
:101F300087F403C0E7F502C0E6F501C0E5F500C08F
:101F4000E4F52D0E0501EB6FB20EEA6F5D0EE96F41
:101F50007F0EE86F000130EC04F000C084F401C093
:101F600085F402C086F403C087F403C0E7F502C01D
:101F7000E6F501C0E5F500C0E4F59A0E0501EB6F4A
:101F8000990EEA6F590EE96F7E0EE86F000130EC92
:101F900004F003C087F402C086F401C085F400C0D9
:101FA00084F446DE02C064F401C063F464C4D8F56E
:101FB00063C4D7F515EC04F000C084F401C085F4C7
:101FC00002C086F403C087F4040E0401796F7A0E10
:101FD000786F890EE96E03C0DAF502C0D9F501C049
:101FE000D8F500C0D7F5010E0501DB6F000150ECFC
:101FF00007F004016451260808E2FF0A03E1635177
:10200000100803E2826B570E816F6451270807E3C3
:1020100003E163510F0803E3816B570E806F645136
:10202000030807E303E16351E70803E3806B570EFE
:102030007F6F645306E16351630803E37F6B570EC0
:102040007E6F645306E16351090803E37E6B570E0C
:102050007D6F3C0E0501D76F280ED86F040EDA6F26
:102060007A0ED96F010EDB6FDC6F0001A4EC08F073
:10207000040E0401796F7A0E786FB40EF66E030EBB
:10208000F76E000178EC09F00401826B010E050186
:10209000D76F280ED86F040EDA6F7A0ED96F010E43
:1020A000DB6FDC6F0001A4EC08F064C485F463C44A
:1020B00084F4020E0401876FEA0E866F0001D6D504
:1020C00002C003F001C002F0D8900236033602C00D
:1020D00065F40401040E796F7A0E786F65C4D7F544
:1020E000110E0501D86F0001FBDD04016551630885
:1020F00005E37F6B500E7E6F480E7D6F65510908BA
:1021000005E37E6B500E7D6F480E7C6F350E05012A
:10211000D76F320ED86F040EDA6F7A0ED96F010EB8
:10212000DB6FDC6F0001A4EC08F0040E0401796F92
:102130007A0E786FBE0EF66E030EF76E000178EC25
:1021400009F00401826B010E0501D76F320ED86FC2
:10215000040EDA6F7A0ED96F010EDB6FDC6F0001AF
:10216000A4EC08F00401000116EF21F0EACFDFF53E
:10217000E9CFDEF50501D8AF08D0DE8FDEA9DE2B72
:10218000D71FD81FD72BD8B4D82BD839F009DA6F7E
:10219000DA27E20FDB6F320FDD6FD8510F0BDB2731
:1021A000DB27DD27E90FDC6FDC27DC27D7390F0BB6
:1021B000DC27DD27DC37DD37DD1FDD37D7510F0B9F
:1021C000DD27DA37070ED96F0A0EDC07DD27FDE3BE
:1021D000DB07DC27FDE3DA07DB27FDE3D907DA2796
:1021E000FDE3050EEA6ED90EE96E070EDE15DE9DE3
:1021F000E906DE1507E1DEB9E92ADEB903D0200ED3
:10220000006E1CD0E926DD0EE95CD8B4DE8DEF50FF
:10221000006E08E1DEBD06D0DEB91ED0DEB702D00A
:10222000200E0BD0DEAF06D02D0E006EED50DE9DE1
:10223000DE9F04D0DE87DE99300E0026EACFD8F587
:10224000E9CFD7F500C0E4F500013FEC07F0D8C5B1
:10225000EAFFD7C5E9FF0501EE50DEADD4D7000196
:102260001200010E0501EB6FEC6FF16BE251E45DC2
:10227000F26FF251F2AF03D0000ED880F255036A2C
:10228000E96F03C0EAF5E351E55DF26FF251F2AF99
:1022900003D0000ED880F255036AE76F03C0E8F55B
:1022A000E251E45D01E2EB69E351E55D01E2EC69D5
:1022B000E851EA5D3CE303E1E751E95D38E3D8909A
:1022C000E737E837E951E75D006EEA51E85900C0A9
:1022D000EDF5EE6FE951ED5DEF6FEA51EE59F06FFC
:1022E000EA5303E1F151E95D21E3E2C5F2F5E3C50B
:1022F000F3F5E6C5F4F5000123EC08F00501EEBFA7
:1023000001D008D0E751ED27E851EE23EB51E2254B
:10231000E26F0AD0EF51ED27F051EE23EB51E225A9
:10232000E26FEC51E325E36FF12BDAD737D0D89089
:10233000E937EA37E751E95D006EE851EA5900C034
:10234000EDF5EE6FE751ED5DEF6FE851EE59F06F8F
:10235000E85303E1F151E75D21E3E2C5F2F5E3C59E
:10236000F3F5E6C5F4F5000123EC08F00501EEBF36
:1023700001D008D0E951ED27EA51EE23EC51E325D5
:10238000E36F0AD0EF51ED27F051EE23EB51E22538
:10239000E26FEC51E325E36FF12BDAD70001120075
:1023A0000501DB532FE0D951D75D05E2D7C5DEF536
:1023B000D9C5DFF504D0D9C5DEF5D7C5DFF5DA51CB
:1023C000D85D05E2D8C5E0F5DAC5E1F504D0DAC597
:1023D000E0F5D8C5E1F5DE51DF5D13E3E0C5DDF5DD
:1023E000DD51E15D0CE3DEC5F2F5DDC5F3F5DCC5DD
:1023F000F4F5000123EC08F00501DD2BF1D7DE2B0D
:10240000EAD72ED0D7C5E2F5D8C5E3F5D9C5E4F5AE
:10241000D8C5E5F5DCC5E6F5000123DFD7C5E2F553
:10242000DAC5E3F5D9C5E4F5DAC5E5F5DCC5E6F5C9
:1024300018DFD7C5E2F5D8C5E3F5D7C5E4F5DAC5A9
:10244000E5F5DCC5E6F50DDFD9C5E2F5D8C5E3F560
:10245000D9C5E4F5DAC5E5F5DCC5E6F502DF050129
:10246000000112000501D76B00017AEC02F09680A2
:1024700084B014D004015A53D8A402D000010ED065
:102480005A510508D8B002D0000108D05C53D8B426
:1024900002D0000103D05A2B5C2B0001968084B03F
:1024A00014D004015B510408D8B002D000010DD053
:1024B0005C53D8B402D0000108D05A53D8B402D02B
:1024C000000103D05B2B5C2B0001968084B00CD004
:1024D00004015B2D01D002D0000106D05A53D8B4BC
:1024E00002D0000101D05C2B04015C51140802E20F
:1024F000010E5A6F968084A001D05C6B948682B6E0
:1025000007D05A5305E05D5303E15A075D2B076B73
:10251000948682B607D05B5305E05D5303E15B0709
:102520005D2B076B948682A601D05D6B5B2DA6D0D8
:102530005A53D8A4A3D00501D76B00017AEC02F05E
:10254000040E0401796F7A0E786F0C0EF66E020E8F
:10255000F76E000178EC09F00401A26B010E050191
:10256000D76FD86F040EDA6F7A0ED96F010EDB6F5A
:10257000DC6F0001A4EC08F0040E0401796F7A0E00
:10258000786F360EF66E020EF76E000178EC09F0E9
:102590000401806B010E0501D76F190ED86F040E70
:1025A000DA6F7A0ED96F010EDB6FDC6F0001A4ECDD
:1025B00008F0040E0401796F7A0E786F890EE96EC7
:1025C00062C4DAF561C4D9F560C4D8F55FC4D7F543
:1025D000010E0501DB6F000150EC07F004017E6B7A
:1025E000730E7D6F320E0501D76F190ED86F040E72
:1025F000DA6F7A0ED96F010EDB6FDC6F0001A4EC8D
:1026000008F0968284B209D004015E512C08D8B03B
:1026100002D0000102D05E2B0001948482B408D065
:1026200004015E510508D8A002D0000101D05E0768
:102630000501D86B5EC4D7F5000115EC04F003C0AA
:10264000DEF502C0DDF501C0DCF500C0DBF5AE0E45
:102650000501E26F470EE16F110EE06F810EDF6F33
:102660000001E7EC05F003C062F402C061F401C0B0
:1026700060F400C05FF418EC03F00401075303E1B9
:102680005B5102080AE05B51030807E05B51040854
:1026900004E05B510508D8A4AED10501D76B000159
:1026A0007AEC02F0040E0401796FA30E786F3E0EEF
:1026B000F66E020EF76E000178EC09F00401CB6BA8
:1026C000010E0501D76FD86F040EDA6FA30ED96F14
:1026D000010EDB6FDC6F0001A4EC08F0040E0401B6
:1026E000796FA30E786F500EF66E020EF76E000132
:1026F00078EC09F00401A86B010E0501D76F0F0EED
:10270000D86F040EDA6FA30ED96F010EDB6FDC6F8A
:102710000001A4EC08F00401092D1DD0040E796F0E
:10272000A30E786F560EF66E020EF76E000178EC6F
:1027300009F00401AA6B460E0501D76F0F0ED86F82
:10274000040EDA6FA30ED96F010EDB6FDC6F000190
:10275000A4EC08F0040109531DE1040E796FA30EE7
:10276000786F5C0EF66E020EF76E000178EC09F0E1
:102770000401AA6B460E0501D76F0F0ED86F040E29
:10278000DA6FA30ED96F010EDB6FDC6F0001A4ECD2
:1027900008F00401040E796FA30E786F640EF66ED4
:1027A000020EF76E000178EC09F0010E0501D76FFB
:1027B000230ED86F040EDA6FA30ED96F010EDB6FF4
:1027C000DC6F0001A4EC08F0040E0401796FA30E85
:1027D000786F100EE96E0FC4D8F50EC4D7F500015E
:1027E000C5DC460E0501D76F230ED86F040EDA6FD5
:1027F000A30ED96F010EDB6FDC6F0001A4EC08F0B3
:10280000040E0401796FA30E786F700EF66E020E3F
:10281000F76E000178EC09F0010E0501D76F2D0E5F
:10282000D86F040EDA6FA30ED96F010EDB6FDC6F69
:102830000001A4EC08F0040E0401796FA30E786F78
:10284000100EE96E11C4D8F510C4D7F500018EDC66
:10285000460E0501D76F2D0ED86F040EDA6FA30E4A
:10286000D96F010EDB6FDC6F0001A4EC08F0040EE1
:102870000401796FA30E786F7C0EF66E020EF76E70
:10288000000178EC09F0010E0501D76F370ED86F03
:10289000040EDA6FA30ED96F010EDB6FDC6F00013F
:1028A000A4EC08F0040E0401796FA30E786F13C432
:1028B000D7F5180E0501D86F000170EC0EF0460E2A
:1028C0000501D76F370ED86F040EDA6FA30ED96FDC
:1028D000010EDB6FDC6F0001A4EC08F018EC03F0D4
:1028E00004015B51020822E10501D76B0E0ED86F7F
:1028F000780ED96F160EDA6F010EDB6FDC6F0001F8
:102900004FDD968284B208D004010953D8B402D0B6
:10291000000102D0092B0001948482B408D0040184
:102920000953D8A402D0000102D009070001040114
:102930005B5103081DE10501D76B220ED86F780E9D
:10294000D96F2A0EDA6F010EDB6FDC6F000128DD14
:10295000968284B205D004010E2BD8B40F2B00014F
:10296000948482B406D004010E51D8B40F070E0728
:10297000000104015B5104081DE10501D76B2C0E19
:10298000D86F780ED96F340EDA6F010EDB6FDC6F03
:10299000000106DD968284B205D00401102BD8B464
:1029A000112B0001948482B406D004011051D8B4D4
:1029B00011071007000104015B51050818E105012A
:1029C000D76B360ED86F780ED96F3E0EDA6F010EC8
:1029D000DB6FDC6F0001E4DC968284B203D004017B
:1029E000132B0001948482B403D004011307000167
:1029F00018EC03F004015A2DD4D00501D76B000167
:102A00007AEC02F0040E0401796FCC0E786F880E18
:102A1000F66E020EF76E000178EC09F00401F46B1B
:102A2000010E0501D76FD86F040EDA6FCC0ED96F87
:102A3000010EDB6FDC6F0001A4EC08F00501D76B21
:102A4000180ED86F500ED96F200EDA6F010EDB6FA3
:102A5000DC6F0001A5DC040E0401796FCC0E786FE9
:102A6000AA0EF66E020EF76E000178EC09F0010E68
:102A70000501D76F190ED86F040EDA6FCC0ED96F1F
:102A8000010EDB6FDC6B0001A4EC08F0040E040106
:102A9000796FCC0E786F100EE96E19C4D8F518C492
:102AA000D7F50001B6EC10F0320E0501D76F190E04
:102AB000D86F040EDA6FCC0ED96F010EDB6FDC6BB2
:102AC0000001A4EC08F0040E0401796FCC0E786FBD
:102AD000B20EF66E020EF76E000178EC09F0010EF0
:102AE0000501D76F230ED86F040EDA6FCC0ED96FA5
:102AF000010EDB6FDC6F0001A4EC08F0040E040192
:102B0000796FCC0E786F890EE96E1DC4DAF51CC49E
:102B1000D9F51BC4D8F51AC4D7F5020E0501DB6F31
:102B2000000150EC07F0320E0501D76F230ED86F6D
:102B3000040EDA6FCC0ED96F010EDB6FDC6F000173
:102B4000A4EC08F0968284B212D004011951130843
:102B5000D8B002D000010BD006E118518708D8B0D8
:102B600002D0000104D0182BD8B4192B0001948492
:102B700082B414D0040119510608D8A002D0000173
:102B80000DD0FF0A06E11851D008D8A002D00001EC
:102B900005D01851D8B419071807000118EC03F034
:102BA00004015A510208D8A40ED10501D76B0001C7
:102BB0007AEC02F0040E0401796FF50E786FB80E0E
:102BC000F66E020EF76E000178EC09F005011D6B40
:102BD000010ED76FD86F040EDA6FF50ED96F010EA4
:102BE000DB6FDC6F0001A4EC08F00501D76B220E4F
:102BF000D86F500ED96F2A0EDA6F010EDB6FDC6FC3
:102C00000001D0EC11F0040E0401796FF50E786F1D
:102C1000DA0EF66E020EF76E000178EC09F0010E86
:102C20000501D76F190ED86F040EDA6FF50ED96F44
:102C3000010EDB6FDC6F0001A4EC08F0040E040150
:102C4000796FF50E786F100EE96E19C4D8F518C4B7
:102C5000D7F50001B6EC10F0320E0501D76F190E52
:102C6000D86F040EDA6FF50ED96F010EDB6FDC6FD3
:102C70000001A4EC08F0040E0401796FF50E786FE2
:102C8000E20EF66E020EF76E000178EC09F0010E0E
:102C90000501D76F230ED86F040EDA6FF50ED96FCA
:102CA000010EDB6FDC6B0001A4EC08F0040E0401E4
:102CB000796FF50E786F890EE96E1DC4DAF51CC4C4
:102CC000D9F51BC4D8F51AC4D7F5020E0501DB6F80
:102CD000000150EC07F0320E0501D76F230ED86FBC
:102CE000040EDA6FF50ED96F010EDB6FDC6B00019D
:102CF000A4EC08F0968284B230D01DC4DAF51CC46E
:102D0000D9F51BC4D8F51AC4D7F50501DE6BDD6B08
:102D1000700EDC6F830EDB6F000196EC06F01DE396
:102D2000D8921DC4DAF51CC4D9F51BC4D8F51AC451
:102D3000D7F5CD0E0501DE6FCC0EDD6F4C0EDC6FCE
:102D40007B0EDB6F0001ABEC04F003C01DF402C08E
:102D50001CF401C01BF400C01AF4948482B430D077
:102D60000501DA6BD96B200ED86F810ED76F1DC4A9
:102D7000DEF51CC4DDF51BC4DCF51AC4DBF500016F
:102D800096EC06F01DE3D8821DC4DAF51CC4D9F513
:102D90001BC4D8F51AC4D7F5CD0E0501DE6FCC0ED5
:102DA000DD6F4C0EDC6F7B0EDB6F0001ABEC04F0D3
:102DB00003C01DF402C01CF401C01BF400C01AF4CF
:102DC00018EC03F004015A2D01D004D05A51020826
:102DD000D8A46AD1000E016EC250C70B0110C26E9A
:102DE0001A0E006E002EFED700004E6B4D6B586B16
:102DF000576B566B556B546B536B010E596F595192
:102E0000080812E3C284C2B4FED7C3CF57F4C4CFBC
:102E100058F41A0E006E002EFED7000057514D27B1
:102E200058514E23592BEBD74E334D334E334D3340
:102E30004E334D331F0E4E174EC4D8F54DC4D7F543
:102E4000000115EC04F000C0D7F501C0D8F502C0B0
:102E5000D9F503C0DAF503C0E7F502C0E6F501C015
:102E6000E5F500C0E4F5E60E0501EB6F3F0EEA6FF5
:102E70001C0EE96F810EE86F000130EC04F003C016
:102E800056F402C055F401C054F400C053F419C400
:102E9000D8F518C4D7F515EC04F0D88256C4DAF585
:102EA00055C4D9F554C4D8F553C4D7F503C0DEF5DD
:102EB00002C0DDF501C0DCF500C0DBF5ABEC04F0D1
:102EC00000C0D7F501C0D8F502C0D9F503C0DAF5C6
:102ED00003C0DEF502C0DDF501C0DCF500C0DBF5A6
:102EE0001DC4E2F51CC4E1F51BC4E0F51AC4DFF50E
:102EF000E7EC05F003C025F402C024F401C023F47C
:102F000000C022F40401262BD89221C4DAF520C493
:102F1000D9F51FC4D8F51EC4D7F525C4DEF524C4E1
:102F2000DDF523C4DCF522C4DBF50001ABEC04F0D5
:102F300003C021F402C020F401C01FF400C01EF43D
:102F400004012651090828E221C4DEF520C4DDF57C
:102F50001FC4DCF51EC4DBF50501E26BE16B200E3E
:102F6000E06F820EDF6F0001E7EC05F003C021F493
:102F700002C020F401C01FF400C01EF421C417F4E5
:102F800020C416F41FC415F41EC414F40401266BE7
:102F9000216B206B1F6B1E6B050E796F1E0E786FF9
:102FA000890EE96E17C4DAF516C4D9F515C4D8F53B
:102FB00014C4D7F5010E0501DB6F000150EC07F0DA
:102FC0000501DA6BD96B480ED86F850ED76F17C421
:102FD000DEF516C4DDF515C4DCF514C4DBF500011F
:102FE00096EC06F001E204E10501246B410E236F2B
:102FF00017C4DAF516C4D9F515C4D8F514C4D7F535
:103000000501DE6BDD6B480EDC6F850EDB6F0001AA
:1030100096EC06F004E30501236B410E226F17C402
:10302000DAF516C4D9F515C4D8F514C4D7F50501D9
:10303000DE6BDD6B200EDC6F820EDB6F000196EC29
:1030400006F004E30501226B410E216F120E05010B
:10305000D76F2D0ED86F050EDA6F1E0ED96F010EC9
:10306000DB6FDC6F0001A4EC08F0050E0401796F42
:103070001E0E786FE80EF66E020EF76E000178EC09
:1030800009F00501216B010ED76F2D0ED86F050ECB
:10309000DA6F1E0ED96F010EDB6FDC6F0001A4EC3E
:1030A00008F018EC03F004015A510308D8A4D4D056
:1030B0000501D76B00017AEC02F0050E0401796F6F
:1030C000250E786FEC0EF66E020EF76E000178ECAE
:1030D00009F005014D6B010ED76FD86F050EDA6F41
:1030E000250ED96F010EDB6FDC6F0001A4EC08F038
:1030F0000501D76B180ED86F500ED96F200EDA6FFE
:10310000010EDB6FDC6F0001D0EC11F0050E040145
:10311000796F250E786F0E0EF66E030EF76E0001B6
:1031200078EC09F0010E0501D76F190ED86F050E66
:10313000DA6F250ED96F010EDB6FDC6B0001A4EC9A
:1031400008F0050E0401796F250E786F100EE96EF8
:103150002CC4D8F52BC4D7F50001B6EC10F0320E14
:103160000501D76F190ED86F050EDA6F250ED96FCE
:10317000010EDB6FDC6B0001A4EC08F0050E04010E
:10318000796F250E786F160EF66E030EF76E00013E
:1031900078EC09F0010E0501D76F230ED86F050EEC
:1031A000DA6F250ED96F010EDB6FDC6F0001A4EC26
:1031B00008F0050E0401796F250E786F890EE96E0F
:1031C00030C4DAF52FC4D9F52EC4D8F52DC4D7F5FF
:1031D000020E0501DB6F000150EC07F0320E050115
:1031E000D76F230ED86F050EDA6F250ED96F010E3B
:1031F000DB6FDC6F0001A4EC08F0968284B212D081
:1032000004012C511308D8B002D000010BD006E104
:103210002B518708D8B002D0000104D02B2BD8B492
:103220002C2B0001948482B414D004012C51060884
:10323000D8A002D000010DD0FF0A06E12B51D00822
:10324000D8A002D0000105D02B51D8B42C072B07F1
:10325000000118EC03F004015A510408D8A40ED15F
:103260000501D76B00017AEC02F0050E0401796FBD
:103270004E0E786F1C0EF66E030EF76E000178ECA2
:1032800009F00501766B010ED76FD86F050EDA6F66
:103290004E0ED96F010EDB6FDC6F0001A4EC08F05D
:1032A0000501D76B220ED86F500ED96F2A0EDA6F38
:1032B000010EDB6FDC6F0001D0EC11F0050E040194
:1032C000796F4E0E786F3E0EF66E030EF76E0001AC
:1032D00078EC09F0010E0501D76F190ED86F050EB5
:1032E000DA6F4E0ED96F010EDB6FDC6F0001A4ECBC
:1032F00008F0050E0401796F4E0E786F100EE96E1E
:103300002CC4D8F52BC4D7F50001B6EC10F0320E62
:103310000501D76F190ED86F050EDA6F4E0ED96FF3
:10332000010EDB6FDC6F0001A4EC08F0050E040158
:10333000796F4E0E786F460EF66E030EF76E000133
:1033400078EC09F0010E0501D76F230ED86F050E3A
:10335000DA6F4E0ED96F010EDB6FDC6B0001A4EC4F
:1033600008F0050E0401796F4E0E786F890EE96E34
:1033700030C4DAF52FC4D9F52EC4D8F52DC4D7F54D
:10338000020E0501DB6F000150EC07F0320E050163
:10339000D76F230ED86F050EDA6F4E0ED96F010E60
:1033A000DB6FDC6B0001A4EC08F0968284B230D0B5
:1033B00030C4DAF52FC4D9F52EC4D8F52DC4D7F50D
:1033C0000501DE6BDD6B700EDC6F830EDB6F0001C1
:1033D00096EC06F01DE3D89230C4DAF52FC4D9F587
:1033E0002EC4D8F52DC4D7F5CD0E0501DE6FCC0E59
:1033F000DD6F4C0EDC6F7B0EDB6F0001ABEC04F07D
:1034000003C030F402C02FF401C02EF400C02DF42C
:10341000948482B430D00501DA6BD96B200ED86F5A
:10342000810ED76F30C4DEF52FC4DDF52EC4DCF578
:103430002DC4DBF5000196EC06F01DE3D88230C404
:10344000DAF52FC4D9F52EC4D8F52DC4D7F5CD0E95
:103450000501DE6FCC0EDD6F4C0EDC6F7B0EDB6F7B
:103460000001ABEC04F003C030F402C02FF401C043
:103470002EF400C02DF418EC03F004015A51030897
:1034800004E05A510408D8A46CD1080E016EC25051
:10349000C70B0110C26E1A0E006E002EFED7000080
:1034A000506B4F6B586B576B566B556B546B536B24
:1034B000010E596F5951080814E3C284C2B4FED7F3
:1034C000C3CF57F4C4CF58F4040E0501D76F0001E1
:1034D000E3EC01F0040157514F2758515023592B69
:1034E000E9D750334F3350334F3350334F331F0EE0
:1034F000501750C4D8F54FC4D7F5000115EC04F0AF
:1035000000C0D7F501C0D8F502C0D9F503C0DAF57F
:1035100003C0E7F502C0E6F501C0E5F500C0E4F53B
:10352000E60E0501EB6F3F0EEA6F1C0EE96F810E90
:10353000E86F000130EC04F003C056F402C055F40B
:1035400001C054F400C053F42CC4D8F52BC4D7F5F3
:1035500015EC04F0D88256C4DAF555C4D9F554C434
:10356000D8F553C4D7F503C0DEF502C0DDF501C0C0
:10357000DCF500C0DBF5ABEC04F000C0D7F501C012
:10358000D8F502C0D9F503C0DAF503C0DEF502C0F4
:10359000DDF501C0DCF500C0DBF530C4E2F52FC479
:1035A000E1F52EC4E0F52DC4DFF5E7EC05F003C02E
:1035B00038F402C037F401C036F400C035F4040119
:1035C000392BD89234C4DAF533C4D9F532C4D8F5DE
:1035D00031C4D7F538C4DEF537C4DDF536C4DCF5C3
:1035E00035C4DBF50001ABEC04F003C034F402C0D9
:1035F00033F401C032F400C031F404013951090838
:1036000028E234C4DEF533C4DDF532C4DCF531C460
:10361000DBF50501E26BE16B200EE06F820EDF6FE0
:103620000001E7EC05F003C034F402C033F401C03C
:1036300032F400C031F434C42AF433C429F432C45F
:1036400028F431C427F40401396B346B336B326BCB
:10365000316B050E796F770E786F890EE96E2AC48B
:10366000DAF529C4D9F528C4D8F527C4D7F5010E51
:103670000501DB6F000150EC07F00501DA6BD96B37
:10368000480ED86F850ED76F2AC4DEF529C4DDF544
:1036900028C4DCF527C4DBF5000196EC06F001E256
:1036A00004E105017D6B410E7C6F2AC4DAF529C463
:1036B000D9F528C4D8F527C4D7F50501DE6BDD6B35
:1036C000480EDC6F850EDB6F000196EC06F004E31C
:1036D00005017C6B410E7B6F2AC4DAF529C4D9F54C
:1036E00028C4D8F527C4D7F50501DE6BDD6B200EA5
:1036F000DC6F820EDB6F000196EC06F004E305013F
:103700007B6B410E7A6F120E0501D76F2D0ED86FAD
:10371000050EDA6F770ED96F010EDB6FDC6F0001DB
:10372000A4EC08F0050E0401796F770E786F4C0E4B
:10373000F66E030EF76E000178EC09F005017A6B66
:10374000010ED76F2D0ED86F050EDA6F770ED96F79
:10375000010EDB6FDC6F0001A4EC08F018EC03F045
:1037600004015A510508D8A4D4D00501D76B000133
:103770007AEC02F0050E0401796F7E0E786F500E20
:10378000F66E030EF76E000178EC09F00501A66BEA
:10379000010ED76FD86F050EDA6F7E0ED96F010E4E
:1037A000DB6FDC6F0001A4EC08F00501D76B180E8D
:1037B000D86F500ED96F200EDA6F010EDB6FDC6F01
:1037C0000001D0EC11F0050E0401796F7E0E786FC8
:1037D000720EF66E030EF76E000178EC09F0010E22
:1037E0000501D76F190ED86F050EDA6F7E0ED96FEF
:1037F000010EDB6FDC6B0001A4EC08F0050E040188
:10380000796F7E0E786F100EE96E3FC4D8F53EC416
:10381000D7F50001B6EC10F0320E0501D76F190E86
:10382000D86F050EDA6F7E0ED96F010EDB6FDC6B81
:103830000001A4EC08F0050E0401796F7E0E786F8C
:103840007A0EF66E030EF76E000178EC09F0010EA9
:103850000501D76F230ED86F050EDA6F7E0ED96F74
:10386000010EDB6FDC6F0001A4EC08F0050E040113
:10387000796F7E0E786F890EE96E43C4DAF542C423
:10388000D9F541C4D8F540C4D7F5020E0501DB6F68
:10389000000150EC07F0320E0501D76F230ED86FF0
:1038A000050EDA6F7E0ED96F010EDB6FDC6F000143
:1038B000A4EC08F0968284B212D004013F511308A0
:1038C000D8B002D000010BD006E13E518708D8B035
:1038D00002D0000104D03E2BD8B43F2B00019484C9
:1038E00082B414D004013F510608D8A002D00001D0
:1038F0000DD0FF0A06E13E51D008D8A002D0000149
:1039000005D03E51D8B43F073E07000118EC03F044
:1039100004015A510608D8A40ED10501D76B000145
:103920007AEC02F0050E0401796FA70E786F800E15
:10393000F66E030EF76E000178EC09F00501CF6B0F
:10394000010ED76FD86F050EDA6FA70ED96F010E73
:10395000DB6FDC6F0001A4EC08F00501D76B220ED1
:10396000D86F500ED96F2A0EDA6F010EDB6FDC6F45
:103970000001D0EC11F0050E0401796FA70E786FED
:10398000A20EF66E030EF76E000178EC09F0010E40
:103990000501D76F190ED86F050EDA6FA70ED96F14
:1039A000010EDB6FDC6F0001A4EC08F0050E0401D2
:1039B000796FA70E786F100EE96E3FC4D8F53EC43C
:1039C000D7F50001B6EC10F0320E0501D76F190ED5
:1039D000D86F050EDA6FA70ED96F010EDB6FDC6FA3
:1039E0000001A4EC08F0050E0401796FA70E786FB2
:1039F000AA0EF66E030EF76E000178EC09F0010EC8
:103A00000501D76F230ED86F050EDA6FA70ED96F99
:103A1000010EDB6FDC6B0001A4EC08F0050E040165
:103A2000796FA70E786F890EE96E43C4DAF542C448
:103A3000D9F541C4D8F540C4D7F5020E0501DB6FB6
:103A4000000150EC07F0320E0501D76F230ED86F3E
:103A5000050EDA6FA70ED96F010EDB6FDC6B00016C
:103A6000A4EC08F0968284B230D043C4DAF542C4A4
:103A7000D9F541C4D8F540C4D7F50501DE6BDD6B3F
:103A8000700EDC6F830EDB6F000196EC06F01DE319
:103A9000D89243C4DAF542C4D9F541C4D8F540C43C
:103AA000D7F5CD0E0501DE6FCC0EDD6F4C0EDC6F51
:103AB0007B0EDB6F0001ABEC04F003C043F402C0EB
:103AC00042F401C041F400C040F4948482B430D088
:103AD0000501DA6BD96B200ED86F810ED76F43C406
:103AE000DEF542C4DDF541C4DCF540C4DBF5000180
:103AF00096EC06F01DE3D88243C4DAF542C4D9F54A
:103B000041C4D8F540C4D7F5CD0E0501DE6FCC0E0B
:103B1000DD6F4C0EDC6F7B0EDB6F0001ABEC04F055
:103B200003C043F402C042F401C041F400C040F4B9
:103B300018EC03F004015A51050804E05A51060834
:103B4000D8A46CD1100E016EC250C70B0110C26E0A
:103B50001A0E006E002EFED70000526B516B586B90
:103B6000576B566B556B546B536B010E596F595114
:103B7000080814E3C284C2B4FED7C3CF57F4C4CF3D
:103B800058F4040E0501D76F0001E3EC01F00401C5
:103B90005751512758515223592BE9D7523351339A
:103BA00052335133523351331F0E521752C4D8F58A
:103BB00051C4D7F5000115EC04F000C0D7F501C0E1
:103BC000D8F502C0D9F503C0DAF503C0E7F502C0A5
:103BD000E6F501C0E5F500C0E4F5E60E0501EB6F82
:103BE0003F0EEA6F1C0EE96F810EE86F000130ECAA
:103BF00004F003C056F402C055F401C054F400C0F0
:103C000053F43FC4D8F53EC4D7F515EC04F0D88280
:103C100056C4DAF555C4D9F554C4D8F553C4D7F50C
:103C200003C0DEF502C0DDF501C0DCF500C0DBF548
:103C3000ABEC04F000C0D7F501C0D8F502C0D9F54F
:103C400003C0DAF503C0DEF502C0DDF501C0DCF526
:103C500000C0DBF543C4E2F542C4E1F541C4E0F540
:103C600040C4DFF5E7EC05F003C04BF402C04AF4B2
:103C700001C049F400C048F404014C2BD89247C459
:103C8000DAF546C4D9F545C4D8F544C4D7F54BC4D4
:103C9000DEF54AC4DDF549C4DCF548C4DBF50001B6
:103CA000ABEC04F003C047F402C046F401C045F495
:103CB00000C044F404014C51090828E247C4DEF571
:103CC00046C4DDF545C4DCF544C4DBF50501E26B13
:103CD000E16B200EE06F820EDF6F0001E7EC05F074
:103CE00003C047F402C046F401C045F400C044F4E8
:103CF00047C43DF446C43CF445C43BF444C43AF4E0
:103D000004014C6B476B466B456B446B050E796F3A
:103D1000D00E786F890EE96E3DC4DAF53CC4D9F552
:103D20003BC4D8F53AC4D7F5010E0501DB6F00019D
:103D300050EC07F00501DA6BD96B480ED86F850E91
:103D4000D76F3DC4DEF53CC4DDF53BC4DCF53AC4B9
:103D5000DBF5000196EC06F001E204E10501D66B0B
:103D6000410ED56F3DC4DAF53CC4D9F53BC4D8F556
:103D70003AC4D7F50501DE6BDD6B480EDC6F850EAE
:103D8000DB6F000196EC06F004E30501D56B410EF4
:103D9000D46F3DC4DAF53CC4D9F53BC4D8F53AC478
:103DA000D7F50501DE6BDD6B200EDC6F820EDB6F5D
:103DB000000196EC06F004E30501D46B410ED36FCD
:103DC000120E0501D76F2D0ED86F050EDA6FD00ECB
:103DD000D96F010EDB6FDC6F0001A4EC08F0050E5B
:103DE0000401796FD00E786FB00EF66E030EF76E89
:103DF000000178EC09F00501D36B010ED76F2D0E91
:103E0000D86F050EDA6FD00ED96F010EDB6FDC6F45
:103E10000001A4EC08F018EC03F0040100011AEF13
:103E200021F00401095302E15B5303E05A510008F9
:103E30003FE2958083B001D0076B958283B208D0B2
:103E4000958083A005D0085303E1010E076F082B6E
:103E5000072D09D094988B8895968C8695948C9490
:103E6000052BD8B4062B5E51055D0EE106530CE11F
:103E7000072D0AD094988B8895968C9695948C846F
:103E8000020E076F066B056B0751020806E1949856
:103E90008B8895968C9695948C84075309E1949819
:103EA0008B9895968C9695948C94066B056B086B05
:103EB000092D52D05B5350E1958083B001D0076B40
:103EC000958283B208D0958083A005D0085303E182
:103ED000010E076F082B1351125D02E194988B8835
:103EE000072D0CD00C530AE10D5308E11351125D5C
:103EF00005E094988B880A2BD8B40B2B0E510A5DE1
:103F00000DE10F510B5D0AE1072D08D01351125D31
:103F100005E094988B980C2BD8B40D2B10510C5DA8
:103F20000DE111510D5D0AE1072D08D01351125D0D
:103F300005E00B6B0A6B0D6B0C6B122B07530CE13E
:103F400094988B9895968C9695948C94086B0B6BA3
:103F50000A6B0D6B0C6B126B00011BEF21F004015F
:103F60007F6B7F5101082BE37F517C25806F040E0E
:103F7000826F7D0E816F7F518125016E000E82213F
:103F8000036E0150E96E03C0EAFFEFCF81F480C4F5
:103F9000A9FF81C4A8FFA69CA69EA684F250006E2D
:103FA000F29E0F01550EA76EAA0EA76EA682A6B2AC
:103FB000FED7A6940050F21204017F2BD2D7000145
:103FC0001200F86AD09EEA6AE96A94948B8404012C
:103FD000066B056B076B086B096B0B6B0A6B0D6B44
:103FE0000C6B0F6B030E0E6F116B106F126B050EC7
:103FF000136F176B166B156B146B196B186B1D6BAE
:104000001C6B1B6B1A6B216B206B1F6B1E6B256B64
:10401000246B236B226B266B2A6B296B286B276B17
:104020002C6B2B6B306B2F6B2E6B2D6B346B336BC0
:10403000326B316B386B376B366B356B396B3D6B75
:104040003C6B3B6B3A6B3F6B3E6B436B426B416B24
:10405000406B476B466B456B446B4B6B4A6B496BD4
:10406000486B4C6B4E6B4D6B506B4F6B526B516B87
:10407000566B556B546B536B586B576B596B5A6B34
:104080005B6B5C6B5D6B646B636B656B676BDC0EB2
:10409000666F6B6B6A6B696B686B6F6B6E6B6D6B6E
:1040A0006C6B736B726B716B706B746B766B756B27
:1040B000776B796B786BC180C182C184C196C190E6
:1040C000C192C184C196C19CC28CC28EC18EC28075
:1040D00000019EEF03F00501D76B00017AEC02F0BE
:1040E00018EC03F09D8AC00EF212F2CF7AF4F29E21
:1040F000010EA96EA69CA69EA680A85004017ABFB8
:10410000F28E5E6F0A0E7A6F0001EBEC03F002C0D4
:1041100019F401C018F4140E04017A6F0001EBECDD
:1041200003F002C0D8F501C0D7F515EC04F003C0C8
:104130001DF402C01CF401C01BF400C01AF41E0ED2
:1041400004017A6F0001EBEC03F002C02CF401C013
:104150002BF4280E04017A6F0001EBEC03F002C08F
:10416000D8F501C0D7F515EC04F003C030F402C057
:104170002FF401C02EF400C02DF4320E04017A6F2A
:104180000001EBEC03F002C03FF401C03EF43C0E32
:1041900004017A6F0001EBEC03F002C0D8F501C016
:1041A000D7F515EC04F003C043F402C042F401C09B
:1041B00041F400C040F4F2CF7AF4F29E460EA96EAC
:1041C000A69CA69EA680A85004017ABFF28E776FA7
:1041D0007751050826E0090E196FC40E186F9A0E64
:1041E0001D6F990E1C6F490E1B6F820E1A6F090E00
:1041F0002C6FBB0E2B6F9A0E306F990E2F6F490EDE
:104200002E6F820E2D6F090E3F6FB60E3E6F9A0E07
:10421000436F990E426F490E416F820E406F190E27
:104220005E6F000188EF09F0D2EF0EF018EC03F09A
:1042300032EF12F0F6D5F2CF7AF4F29E010EA96EAB
:10424000A69CA69EA680A85004017ABFF28E766B2B
:10425000756F5E51755D02E1765316E0010EA96E31
:104260005EC4A8FFA69CA69EA684F250006EF29E95
:104270000F01550EA76EAA0EA76EA682A6B2FED794
:10428000A6940050F21204010A0E7A6F0001EBECC2
:1042900003F002C076F401C075F404011851755D95
:1042A00003E11951765D09E00A0E7C6F19C47EF4B2
:1042B00018C47DF4000153DE0401140E7A6F00016E
:1042C000EBEC03F002C076F401C075F476C4D8F5C7
:1042D00075C4D7F515EC04F003C0DAF502C0D9F5C2
:1042E00001C0D8F500C0D7F51DC4DEF51CC4DDF54E
:1042F0001BC4DCF51AC4DBF596EC06F017E01DC410
:1043000087F41CC486F41BC485F41AC484F418EC26
:104310000EF002C07BF401C07AF4140E04017C6F2D
:1043200002C07EF401C07DF4000119DE1E0E0401FE
:104330007A6F0001EBEC03F002C076F401C075F473
:1043400004012B51755D03E12C51765D09E01E0ED1
:104350007C6F2CC47EF42BC47DF4000100DE0401CC
:10436000280E7A6F0001EBEC03F002C076F401C076
:1043700075F476C4D8F575C4D7F515EC04F003C010
:10438000DAF502C0D9F501C0D8F500C0D7F530C4C0
:10439000DEF52FC4DDF52EC4DCF52DC4DBF596EC7F
:1043A00006F017E030C487F42FC486F42EC485F4D9
:1043B0002DC484F418EC0EF002C07BF401C07AF432
:1043C000280E04017C6F02C07EF401C07DF4000160
:1043D000C6DD320E04017A6F0001EBEC03F002C07F
:1043E00076F401C075F404013E51755D03E13F515F
:1043F000765D09E0320E7C6F3FC47EF43EC47DF4EE
:104400000001ADDD04013C0E7A6F0001EBEC03F01E
:1044100002C076F401C075F476C4D8F575C4D7F53A
:1044200015EC04F003C0DAF502C0D9F501C0D8F5E7
:1044300000C0D7F543C4DEF542C4DDF541C4DCF568
:1044400040C4DBF596EC06F017E043C487F442C4A1
:1044500086F441C485F440C484F418EC0EF002C024
:104460007BF401C07AF43C0E04017C6F02C07EF440
:1044700001C07DF4000173DD050E0401776FF2CFFA
:104480007AF4F29E460EA96EA69CA69EA680A8501F
:104490007ABFF28E766B756F7751755D02E1765358
:1044A00016E0460EA96E77C4A8FFA69CA69EA68419
:1044B000F250006EF29E0F01550EA76EAA0EA76E67
:1044C000A682A6B2FED7A6940050F2120401A9D685
:0244D0000300E7
:020000040030CA
:0E00000000220C0E0001810000C00FE00F4036
:00000001FF
;PIC18F452
;CRC=DFCC  CREATED="22-jul-20 16:19"
